:020000040800F2
:1000000000000120812F0008552E0008572E0008FF
:10001000592E00085B2E00085D2E0008000000002D
:100020000000000000000000000000005F2E00083B
:10003000612E000800000000632E0008652E0008F5
:10004000D12F0008D12F0008D12F0008D12F000890
:10005000D12F0008D12F0008D12F0008D12F000880
:10006000D12F0008D12F0008D12F0008D12F000870
:10007000D12F0008D12F0008D12F0008D12F000860
:10008000D12F0008D12F0008D12F0008D12F000850
:10009000D12F0008D12F0008D12F0008D12F000840
:1000A000D12F0008D12F0008D12F0008D12F000830
:1000B000D12F0008D12F0008D12F0008D12F000820
:1000C000D12F0008D12F0008D12F0008D12F000810
:1000D000D12F0008D12F00086D2E00087D2E0008BA
:1000E000D12F0008D12F0008D12F0008D12F0008F0
:1000F000D12F0008D12F0008D12F0008D12F0008E0
:10010000D12F00080000000000000000D12F0008DF
:10011000D12F0008D12F0008D12F0008D12F0008BF
:10012000D12F0008D12F0008D12F0008D12F0008AF
:10013000D12F0008D12F00080000000000000000AF
:10014000D12F0008D12F0008D12F00080000000097
:10015000000000000000000000000000000000009F
:10016000D12F0008D12F0008D12F0008D12F00086F
:10017000D12F0008D12F0008D12F0008D12F00085F
:10018000D12F0008D12F000800000000000000005F
:04019000D12F000863
:1001A00010B5054C237833B9044B13B10448AFF3B1
:1001B00000800123237010BD7C000020000000009F
:1001C000C83E000808B5034B1BB103490348AFF311
:1001D000008008BD0000000080000020C83E00082C
:1001E00001F0FF01102A2BDB10F0070F08D010F8E8
:1001F000013B013A8B422DD010F0070F42B3F6D1EC
:10020000F0B441EA012141EA014122F007047FF004
:1002100000070023F0E80256083C85EA010586EA5B
:10022000010685FA47F5A3FA87F586FA47F6A5FA97
:1002300087F68EB9EED1F0BC01F0FF0102F00702A3
:1002400032B110F8013B013A83EA010313B1F8D14E
:100250000020704701387047002D06BF354603382F
:10026000073815F0010F07D1013015F4807F02BF68
:10027000013015F4C03F0130F0BC0138704700BFB9
:1002800010B504460E4B18784FF47A73B3FBF0F3B5
:100290000C4A1068B0FBF3F000F0A0F868B90F2C1E
:1002A00001D901200AE0002221464FF0FF3000F082
:1002B00055F8034B5C60002000E0012010BD00BF3A
:1002C000000000201400002008B5074A136843F01E
:1002D00010031360032000F02FF80020FFF7D0FF79
:1002E00002F0C6FC002008BD00200240034A11684D
:1002F000034B1B780B441360704700BFB000002015
:1003000000000020014B1868704700BFB0000020BB
:1003100038B50446FFF7F6FF0546B4F1FF3F02D0BB
:10032000044B1B781C44FFF7EDFF401BA042FAD39F
:1003300038BD00BF00000020074AD36823F4E06303
:100340001B041B0C000200F4E060184340F0BF6087
:1003500040F40030D060704700ED00E030B4174B3F
:10036000DB68C3F30223C3F10704042C28BF042471
:100370001D1D062D18D9033B4FF0FF3505FA04F477
:1003800021EA0401994005FA03F322EA0303194321
:1003900000280BDB0901C9B200F1604000F56140A3
:1003A00080F8001330BC70470023E5E700F00F0031
:1003B0000901C9B2024B1954F4E700BF00ED00E097
:1003C00014ED00E000F01F02400901239340024AAF
:1003D00042F82030704700BF00E100E00138B0F182
:1003E000807F0AD2064B5860064AF02182F823101B
:1003F0000020986007221A6070470120704700BFF4
:1004000010E000E000ED00E008B590F82130022B8C
:1004100003D004238363012008BD0268136823F01E
:100420000E0313600268136823F001031360036C6A
:10043000C16B012202FA03F34B6080F821200023F4
:1004400080F82030436B13B198470020E4E7002088
:10045000E2E70000F0B482B0002336E0062400E0BA
:100460000024B4403C430235614E46F82540614CBF
:100470002568D44304EA05064F6817F4803F01D08D
:1004800042EA05065B4D2E606D6804EA05064F687A
:1004900017F4003F01D042EA0506564D6E60AD6884
:1004A00004EA05064F6817F4801F01D042EA0506EA
:1004B000504DAE60ED682C404E6816F4001F01D020
:1004C00042EA05044B4AD46001330A6832FA03F465
:1004D00000F08B8001249C402240F5D04D68022D15
:1004E00001D0122D10D1DE08083650F826C003F0D6
:1004F0000705AF000F25BD402CEA050C0D69BD4076
:1005000045EA0C0540F8265006685F000325BD400B
:10051000ED4305EA060C4E6806F00306BE4046EAC7
:100520000C0606604E6806F1FF3CBCF1010F03D9D2
:10053000112E01D0122E10D1866805EA060CCE6865
:10054000BE4046EA0C068660466826EA04044E6809
:10055000C6F300169E4026434660C46825408C685A
:10056000BC402C43C4604C6814F0805FACD0224C7B
:10057000A56945F00105A561A46904F00104019491
:10058000019C9D08AE1C1A4C54F8267003F003041D
:10059000A6000F24B44027EA0407B0F1904F3FF4BF
:1005A0005FAF164CA04216D004F58064A04214D070
:1005B00004F58064A04212D004F58064A04210D0FB
:1005C00004F58064A0420ED004F58064A0423FF49C
:1005D00045AF072445E7012443E7022441E703240C
:1005E0003FE704243DE705243BE702B0F0BC704739
:1005F00000000140000401400010024000040048D7
:100600000369194201D100207047012070470AB9DF
:100610008162704781617047002800F0F98270B5EF
:1006200082B00446036813F0010F3DD0B44B5B6801
:1006300003F00C03042B20D0B14B5B6803F00C03D8
:10064000082B13D06368B3F5803F6AD0002B40F0CD
:100650008D8003F1804303F504331A6822F480325D
:100660001A601A6822F480221A605FE0A44B5B686B
:1006700003F4C033B3F5803FE4D14FF4003393FA71
:10068000A3F39F4B19684FF4003393FAA3F3B3FA23
:1006900083F303F01F03012202FA03F30B4203D09A
:1006A0006368002B00F0BC82236813F0020F00F097
:1006B000C180934B5B6813F00C0F00F09780904B58
:1006C0005B6803F00C03082B00F08880E368002BC4
:1006D00000F0EE80012292FAA2F3B3FA83F303F161
:1006E000845303F584139B001A60FFF70BFE054645
:1006F000022393FAA3F3824B1968022393FAA3F31C
:10070000B3FA83F303F01F03012202FA03F30B424F
:1007100040F0BF80FFF7F6FD401B0228E8D9032018
:1007200085E2774A136843F4803313606368002BD3
:1007300036D0FFF7E7FD05464FF4003393FAA3F3F5
:100740006F4B19684FF4003393FAA3F3B3FA83F3B2
:1007500003F01F03012202FA03F30B42A4D1FFF7B7
:10076000D1FD401B6428E7D9032060E2B3F5A02F38
:1007700009D0634B1A6822F480321A601A6822F496
:1007800080221A60D2E703F18043A3F53C331A6854
:1007900042F480221A601A6842F480321A60C5E777
:1007A000FFF7B0FD05464FF4003393FAA3F3544B23
:1007B00019684FF4003393FAA3F3B3FA83F303F009
:1007C0001F03012202FA03F30B423FF46DAFFFF760
:1007D00099FD401B6428E6D9032028E2484B5B685A
:1007E00003F4C033B3F5004F7FF470AF022393FAE4
:1007F000A3F3434B1968022393FAA3F3B3FA83F3E9
:1008000003F01F03012202FA03F30B4204D0E36852
:10081000934201D001200AE23948036823F0F8032B
:100820002169F82292FAA2F2B2FA82F201FA02F2F5
:1008300013430360236813F0080F00F08D80636991
:10084000002B61D0012191FAA1F2B2FA82F22D4B74
:1008500013449B001960FFF755FD0546022393FAE8
:10086000A3F293FAA3F293FAA3F2254A516A93FAF8
:10087000A3F3B3FA83F303F01F03012202FA03F395
:100880000B4269D1FFF73EFD401B0228E6D9032049
:10089000CDE11B48036823F0F8032169F82292FA9E
:1008A000A2F2B2FA82F201FA02F213430360C1E744
:1008B000012393FAA3F3B3FA83F303F1845303F50B
:1008C00084139B0000221A60FFF71CFD05460223DB
:1008D00093FAA3F30A4B1968022393FAA3F3B3FA2A
:1008E00083F303F01F03012202FA03F30B42A1D0AA
:1008F000FFF708FD401B0228E9D9032097E100BF5C
:100900000010024020819010012292FAA2F2B2FA65
:1009100082F2C04B13449B0000221A60FFF7F2FCE6
:100920000546022393FAA3F293FAA3F293FAA3F2F1
:10093000B94A516A93FAA3F3B3FA83F303F01F039E
:10094000012202FA03F30B4206D0FFF7DBFC401B47
:100950000228E6D903206AE1236813F0040F00F0AF
:10096000B380AD4BDB6913F0805F20D1AA4BDA690D
:1009700042F08052DA61DB6903F080530193019BFE
:100980000125A64B1B6813F4807F12D0A368012BAE
:1009900023D073BB03F1804303F504331A6A22F0BA
:1009A00001021A621A6A22F004021A621AE0002591
:1009B000E7E79A4A136843F480731360FFF7A2FCD9
:1009C0000646964B1B6813F4807FDFD1FFF79AFC35
:1009D000801B6428F5D9032029E18F4A136A43F06C
:1009E00001031362A368002B41D0FFF78BFC06467E
:1009F0002BE0052B09D0884B1A6A22F001021A62FB
:100A00001A6A22F004021A62ECE7834B1A6A42F077
:100A100004021A621A6A42F001021A62E2E77E4B8D
:100A2000196A022393FAA3F3B3FA83F303F01F03C3
:100A3000012202FA03F3194245D1FFF763FC801B40
:100A400041F28833984200F2ED80022393FAA3F238
:100A500093FAA3F3B3FA83F35B0943F00203022B87
:100A6000DDD0022393FAA3F36B4B596AD9E7FFF762
:100A700049FC064615E0684B196A022393FAA3F372
:100A8000B3FA83F303F01F03012202FA03F31942BE
:100A900019D0FFF737FC801B41F28833984200F2EF
:100AA000C380022393FAA3F293FAA3F3B3FA83F376
:100AB0005B0943F00203022BDDD0022393FAA3F378
:100AC000554B596AD9E7B5BBA369002B00F0AE803E
:100AD000514A526802F00C02082A00F0AA80022B48
:100AE0002FD04FF0807393FAA3F3B3FA83F303F19B
:100AF000845303F584139B0000221A60FFF702FC65
:100B000004464FF0007393FAA3F3434B19684FF078
:100B1000007393FAA3F3B3FA83F303F01F030122E4
:100B200002FA03F3194271D0FFF7ECFB001B022815
:100B3000E7D903207BE0384AD36923F08053D3619F
:100B4000C2E74FF0807393FAA3F3B3FA83F303F190
:100B5000845303F584139B0000221A60FFF7D2FB35
:100B600005464FF0007393FAA3F32B4B19684FF02F
:100B7000007393FAA3F3B3FA83F303F01F03012284
:100B800002FA03F3194206D0FFF7BCFB401B022810
:100B9000E7D903204BE0204AD36A23F00F03616AB0
:100BA0000B43D362536823F47613216AE06901434F
:100BB0000B4353604FF0807393FAA3F3B3FA83F3BC
:100BC00003F1845303F584139B0001221A60FFF79D
:100BD00099FB04464FF0007393FAA3F30E4B196888
:100BE0004FF0007393FAA3F3B3FA83F303F01F03F8
:100BF000012202FA03F3194206D1FFF783FB001B1F
:100C00000228E7D9032012E0002010E000200EE0C7
:100C100001207047208190100010024000700040B9
:100C2000012004E0032002E0032000E0002002B0E5
:100C300070BD0120FBE700BF10B4184B5C6804F0E6
:100C40000C03082B28D104F470124FF4701393FA9C
:100C5000A3F3B3FA83F322FA03F31149C85C0F4BF1
:100C6000DB6A03F00F030F2292FAA2F2B2FA82F2C9
:100C7000D3400B441A7C14F4803F07D1094BB3FBDB
:100C8000F2F300FB03F05DF8044B7047054BB3FB38
:100C9000F2F300FB03F0F6E70248F4E7001002402D
:100CA000E03E000800127A00002800F0C08070B515
:100CB0000446614B1B6803F007038B420CD25E4A6B
:100CC000136823F007030B431360136803F0070353
:100CD0008B4201D0012070BD236813F0020F06D0B3
:100CE000564A536823F0F003A068034353600D464F
:100CF000236813F0010F5AD06368012B2DD0022B0B
:100D000040D0022292FAA2F24C4A1068022292FAD1
:100D1000A2F2B2FA82F202F01F02012101FA02F2FB
:100D2000104200F0868045494A6822F003021343CE
:100D30004B60FFF7E7FA0646404B5B6803F00C0395
:100D40006268B3EB820F32D0FFF7DCFA801B41F20E
:100D500088339842F0D90320BDE74FF4003292FA6D
:100D6000A2F2364A10684FF4003292FAA2F2B2FAB6
:100D700082F202F01F02012101FA02F20242D2D1F4
:100D80000120A8E74FF0007292FAA2F22B4A1068F5
:100D90004FF0007292FAA2F2B2FA82F202F01F024F
:100DA000012101FA02F21042BDD1012093E7224B4A
:100DB0001B6803F00703AB420CD91F4A136823F0EA
:100DC00007032B431360136803F00703AB4201D002
:100DD000012080E7236813F0040F06D0174A5368F8
:100DE00023F4E063E1680B435360236813F0080FBA
:100DF00007D0124A536823F46053216943EAC103C0
:100E00005360FFF719FF0D4B5B6803F0F003F0220E
:100E100092FAA2F2B2FA82F2D340094AD35CD840E5
:100E2000084B18600020FFF72BFA002053E7012041
:100E3000704701204FE700BF002002400010024031
:100E4000003F000814000020014B1868704700BFE5
:100E50001400002008B5FFF7F7FF074B5B6803F4A9
:100E6000E0634FF4E06292FAA2F2B2FA82F2D34067
:100E7000024AD35CD84008BD00100240103F000871
:100E800008B5FFF7E1FF074B5B6803F460534FF4CD
:100E9000605292FAA2F2B2FA82F2D340024AD35CD2
:100EA000D84008BD00100240103F0008F0B583B0E4
:100EB0000446036813F4803F48D0A14BDB6913F06C
:100EC000805F40F022819E4BDA6942F08052DA6105
:100ED000DB6903F080530193019B0125994B1B684B
:100EE00013F4807F00F01381954B1B6A13F4407359
:100EF00022D0626802F440729A421DD09048016A82
:100F000021F440764FF4803393FAA3F2B2FA82F2DE
:100F10008D4F3A4492004FF0010CC2F800C093FA92
:100F2000A3F3B3FA83F33B449B0000221A600662EA
:100F300011F0010F40F00081814A136A23F44073DD
:100F400061680B431362002D40F02881236813F081
:100F5000010F06D07A4A136B23F00303A1680B43F9
:100F60001363236813F0020F06D0754A136B23F442
:100F70004033E1680B431363236813F0040F06D07A
:100F80006F4A136B23F4402321690B4313632368D7
:100F900013F0200F06D06A4A136B23F01003E169A7
:100FA0000B431363236813F4003F06D0644A53686D
:100FB00023F48003616D0B435360236813F0400FEB
:100FC00006D05F4A136B23F02003216A0B4313639F
:100FD000236813F4802F06D0594A136B23F0400383
:100FE000616A0B431363236813F0080F06D0544A59
:100FF000136B23F4401361690B431363236813F0ED
:10100000100F06D04E4A136B23F44003A1690B4323
:101010001363236813F4007F06D0494A536823F40E
:101020000003216B0B435360236813F0800F06D03D
:10103000434AD36A23F4F873A16A0B43D36223684B
:1010400013F4807F06D03E4AD36A23F47853E16AD2
:101050000B43D362236813F4805F06D0384A136BC6
:1010600023F48073616B0B431363236813F4005FF5
:1010700006D0334A136B23F40073216C0B431363C4
:10108000236813F4801F06D02D4A136B23F080735E
:10109000A16B0B431363236813F4001F06D0284A87
:1010A000136B23F00073E16B0B431363236813F49A
:1010B000800F06D0224A136B23F48063616C0B43CC
:1010C0001363236813F4000F06D01D4A136B23F437
:1010D0000063A16C0B431363236813F0807F06D079
:1010E000174A136B23F40053E16C0B43136323681B
:1010F00013F0007F59D0124A136B23F40043216D83
:101100000B431363002003B0F0BD0025E6E60D4A53
:10111000136843F480731360FFF7F4F80646094B35
:101120001B6813F4807F7FF4DFAEFFF7EBF8801BC2
:101130006428F4D90320E6E7FFF7E4F806461BE04D
:10114000001002400070004000819010184B196A96
:10115000022393FAA3F3B3FA83F303F01F030122EC
:1011600002FA03F30B427FF4E7AEFFF7CBF8801BE4
:1011700041F28833984216D8022393FAA3F293FAE5
:10118000A3F3B3FA83F35B0943F00203022BDDD030
:10119000022393FAA3F3064B596AD9E7D36923F0E4
:1011A0008053D361D2E60320ADE70020ABE700BF58
:1011B000001002400368324A904212D0B0F1804FD2
:1011C0000FD0A2F5943290420BD002F5806290428B
:1011D00007D002F59632904203D002F5E0529042D9
:1011E00003D123F070034A681343254A90421ED06E
:1011F000B0F1804F1BD0A2F59432904217D002F587
:101200008062904213D002F5963290420FD002F5E0
:10121000406290420BD002F58062904207D002F506
:101220008062904203D002F50062904203D123F421
:101230004073CA68134323F080034A691343036071
:101240008B68C3620B6883620D4B984213D003F521
:10125000006398420FD003F5406398420BD003F52A
:101260008063984207D003F58063984203D003F56A
:101270000063984201D10B69036301234361704706
:10128000002C0140A8B110B5044690F83D305BB188
:10129000022384F83D30211D2068FFF78BFF0123D6
:1012A00084F83D30002010BD80F83C3001F0FEFC99
:1012B000EEE701207047000030B4036A23F0010319
:1012C0000362036A4468826922F4803222F0730266
:1012D0000D682A4323F002038D682B43204DA8425A
:1012E00013D005F50065A8420FD005F54065A8426A
:1012F0000BD005F58065A84207D005F58065A842AA
:1013000003D005F50065A84205D123F00803CD6898
:101310002B4323F00403124DA84213D005F50065BA
:10132000A8420FD005F54065A8420BD005F58065B1
:10133000A84207D005F58065A84203D005F50065F1
:10134000A84205D124F440754C692C438D692C4387
:10135000446082614A684263036230BC704700BFE8
:10136000002C014030B4036A23F010030362036AC7
:101370004468826922F0807222F4E6420D6842EAF3
:10138000052223F020038D6843EA05131B4DA84274
:1013900007D005F50065A84203D005F5E055A84241
:1013A00006D123F08003CD6843EA051323F0400300
:1013B000124DA84213D005F50065A8420FD005F5DF
:1013C0004065A8420BD005F58065A84207D005F519
:1013D0008065A84203D005F50065A84207D124F432
:1013E00040644D6944EA85048D6944EA850444609B
:1013F00082614A688263036230BC7047002C0140FE
:1014000030B4036A23F480730362036A4468C269D8
:1014100022F4803222F073020D682A4323F4007311
:101420008D6843EA05231C4DA84207D005F50065E9
:10143000A84203D005F5E055A84206D123F4006385
:10144000CD6843EA052323F48063134DA84213D0EB
:1014500005F50065A8420FD005F54065A8420BD000
:1014600005F58065A84207D005F58065A84203D040
:1014700005F50065A84207D124F440544D6944EABB
:1014800005148D6944EA05144460C2614A68C26368
:10149000036230BC704700BF002C014030B4036AC7
:1014A00023F480530362036A4468C26922F08072A5
:1014B00022F4E6420D6842EA052223F400538D68C7
:1014C00043EA0533114DA84213D005F50065A84243
:1014D0000FD005F54065A8420BD005F58065A84200
:1014E00007D005F58065A84203D005F50065A84240
:1014F00004D124F480444D6944EA85144460C261F7
:101500004A680264036230BC704700BF002C01408F
:1015100010B4012303FA01F4036A23EA040303620B
:10152000036A8A40134303625DF8044B704700006E
:1015300010B5044601220068FFF7EAFF2368114A4C
:10154000934213D002F5006293420FD002F540623D
:1015500093420BD002F58062934207D002F580627D
:10156000934203D002F50062934203D15A6C42F4D5
:1015700000425A642268136843F00103136000209C
:1015800010BD00BF002C014030B4036A23F4803347
:101590000362036A4468426D22F4803222F07002D2
:1015A0000D682A4323F400338D6843EA0543114D47
:1015B000A84213D005F50065A8420FD005F5406597
:1015C000A8420BD005F58065A84207D005F58065D7
:1015D000A84203D005F50065A84204D124F4803464
:1015E0004D6944EA0524446042654A6882650362A5
:1015F00030BC7047002C014030B4036A23F48013E0
:101600000362036A4468426D22F0807222F4E04271
:101610000D6842EA052223F400138D6843EA05535E
:10162000114DA84213D005F50065A8420FD005F56D
:101630004065A8420BD005F58065A84207D005F5A6
:101640008065A84203D005F50065A84204D124F4C2
:1016500080244D6944EA8524446042654A68C26535
:10166000036230BC704700BF002C014038B590F8D1
:101670003C30012B00F092800D460446012380F897
:101680003C30022380F83D30142A1ED8DFE802F0F7
:101690000B1D1D1D241D1D1D381D1D1D4B1D1D1D3C
:1016A0005F1D1D1D72000068FFF706FE226893692A
:1016B00043F0080393612268936923F00403936164
:1016C0002268936929690B439361012384F83D30B3
:1016D000002084F83C0038BD0068FFF743FE226814
:1016E000936943F4006393612268936923F48063F0
:1016F000936122689369296943EA01239361E4E7CE
:101700000068FFF77DFE2268D36943F00803D361C8
:101710002268D36923F00403D3612268D36929695D
:101720000B43D361D1E70068FFF7B8FE2268D369A5
:1017300043F40063D3612268D36923F48063D361E7
:101740002268D369296943EA0123D361BDE70068B0
:10175000FFF71AFF2268536D43F0080353652268B0
:10176000536D23F0040353652268536D29690B43BD
:101770005365AAE70068FFF73FFF2268536D43F403
:10178000006353652268536D23F4806353652268B8
:10179000536D296943EA0123536596E702209AE7CE
:1017A00090F83C30012B26D030B4012380F83C3037
:1017B000026853689568114CA24207D004F5006492
:1017C000A24203D004F5E054A24203D123F47003F3
:1017D0004C68234323F070030C68234325F08004F6
:1017E00089682143536003689960002380F83C3086
:1017F000184630BC70470220704700BF002C0140E3
:1018000090F83C30012B45D010B4012380F83C30D7
:10181000CB6823F440738A68134323F480634A68D7
:10182000134323F400630A68134323F480530A69C3
:10183000134323F400534A69134323F480438A6A11
:10184000134323F40043134323F470238A6943EAC8
:1018500002430268104CA24207D004F50064A24281
:1018600003D004F5E054A2420CD123F470034C6A77
:1018700043EA045323F08073CC69234323F00073BD
:10188000096A0B435364002380F83C3018465DF826
:10189000044B704702207047002C01400268136817
:1018A00023F4907313600268936823F0010393603C
:1018B000202380F86A30704790F86A30DBB2202B22
:1018C00049D1002949D0002A49D090F86830012B2D
:1018D00047D0012380F868304165A0F85820A0F86F
:1018E0005A208368B3F5805F06D0A3B9036973B942
:1018F000FF23A0F85C3011E0036923B940F2FF1325
:10190000A0F85C300AE0FF23A0F85C3006E07F23FB
:10191000A0F85C3002E0B3F1805F12D00023C36610
:10192000222280F86A2080F8683001688A6842F0D4
:1019300001028A6001680A6842F490720A601846DF
:10194000704703691BB97F23A0F85C30E6E73F23AB
:10195000A0F85C30E2E702207047012070470120C8
:101960007047022070477047704708B5406A0023EF
:10197000A0F85A30A0F85230FFF7F6FF08BD00007B
:1019800010B5044683680269134342691343C26970
:101990001343016808689C4A024013430B602268A5
:1019A000536823F44053E1680B435360A369226AF0
:1019B0001A4321688B6823F4306313438B602368D8
:1019C000924A93421FD0924A93422FD0914A934217
:1019D00046D0914A93425DD0904A934274D01022EF
:1019E000E169B1F5004F00F08B80082A00F20A810E
:1019F000DFE812F0CE00DA00E6000801F20008018C
:101A000008010801FE0002F55842126B02F00302C1
:101A1000032A09D8DFE802F0020406720122DFE798
:101A20000422DDE70822DBE71022D9E702F5E632DF
:101A3000126B02F44032B2F5803F0BD007D9B2F5F9
:101A4000003F09D0B2F5403F08D10222C8E72AB9C9
:101A50000022C5E70422C3E70822C1E71022BFE73E
:101A600002F5E432126B02F44022B2F5802F0BD063
:101A700007D9B2F5002F09D0B2F5402F08D10222C4
:101A8000AEE72AB90022ABE70422A9E70822A7E7BC
:101A90001022A5E702F5E232126B02F44012B2F511
:101AA000801F0BD007D9B2F5001F09D0B2F5401F37
:101AB00008D1022294E72AB9002291E704228FE795
:101AC00008228DE710228BE702F5E032126B02F458
:101AD0004002B2F5800F0BD007D9B2F5000F09D044
:101AE000B2F5400F08D102227AE72AB9002277E73F
:101AF000042275E7082273E7102271E702226FE7DC
:101B0000082A42D8DFE802F0051722412D41414161
:101B10003800FFF79FF96268530803EB4003B3FBFB
:101B2000F2F39BB2002023F00F02C3F342031343EE
:101B30002268D36010BDFFF7A3F96268530803EB76
:101B40004003B3FBF2F39BB20020ECE7626853085A
:101B500003F5740303F51053B3FBF2F39BB20020BB
:101B6000E1E7FFF769F86268530803EB4003B3FB52
:101B7000F2F39BB20020D6E76268530803F5803386
:101B8000B3FBF2F39BB20020CDE701200023CAE7AC
:101B9000FFF760F9636800EB5300B0FBF3F02368D4
:101BA00080B2D8600020C5E7FFF76AF9636800EBF0
:101BB0005300B0FBF3F0236880B2D8600020B9E78F
:101BC00061684A0802F5F40202F59052B2FBF1F2A4
:101BD00092B2DA600020ADE7FFF72EF8636800EB01
:101BE0005300B0FBF3F0236880B2D8600020A1E777
:101BF00061684A0802F50042B2FBF1F292B2DA6083
:101C0000002097E7012095E7F369FFEF00380140D6
:101C10000044004000480040004C0040005000409C
:101C2000436A13F0010F06D00268536823F40033AF
:101C3000816A0B435360436A13F0020F06D00268B7
:101C4000536823F48033C16A0B435360436A13F033
:101C5000040F06D00268536823F48023016B0B4302
:101C60005360436A13F0080F06D00268536823F4E8
:101C70000043416B0B435360436A13F0100F06D0CF
:101C80000268936823F48053816B0B439360436A2B
:101C900013F0200F06D00268936823F40053C16B41
:101CA0000B439360436A13F0400F0AD002685368F5
:101CB00023F48013016C0B435360036CB3F5801F56
:101CC0000BD0436A13F0800F06D00268536823F4E8
:101CD0000023816C0B43536070470268536823F400
:101CE000C003416C0B435360EBE72DE9F04105461F
:101CF0000F4616469846069C2B68DB6937EA0303B5
:101D00000CBF01230023B3421DD1B4F1FF3FF3D038
:101D10002CB1FEF7F7FAA0EB0800A042ECD92A6834
:101D2000136823F4D07313602A68936823F00103C7
:101D30009360202385F8693085F86A30002385F8A0
:101D40006830032000E00020BDE8F0812DE9F0417B
:101D500082B01E4690F86930DBB2202B4ED104468B
:101D60000D46904600294ED0002A4ED090F868309B
:101D7000012B4CD0012380F868300023C366212357
:101D800080F86930FEF7BEFA0746A4F85080A4F840
:101D9000528003E023682A781A850135B4F852305E
:101DA0009BB2DBB1B4F85230013B9BB2A4F8523085
:101DB00000963B46002280212046FFF796FF40BB5D
:101DC000A368B3F5805FE5D12369002BE2D12268D7
:101DD00035F8023BC3F308031385DFE700963B4663
:101DE000002240212046FFF780FF034698B92022B9
:101DF00084F86920002284F8682000E00223184655
:101E000002B0BDE8F0810123F9E70123F7E70223DF
:101E1000F5E70323F3E70323F1E730B583B0044686
:101E20000023C366FEF76EFA054623681B6813F0AD
:101E3000080F0ED123681B6813F0040F17D120235D
:101E400084F8693084F86A30002084F8680003B0B0
:101E500030BD6FF07E430093034600224FF4001123
:101E60002046FFF742FF0028E4D00320EFE76FF0A1
:101E70007E4300932B4600224FF480012046FFF75B
:101E800034FF0028DBD00320E1E778B310B5044627
:101E900090F869300BB3242384F869302268136802
:101EA00023F0010313602046FFF76AFD012813D0D9
:101EB000636ABBB92268536823F490435360226875
:101EC000936823F02A0393602268136843F00103A8
:101ED00013602046FFF7A1FF10BD80F8683000F0C6
:101EE0004FFFD8E72046FFF79BFEE3E7012070474E
:101EF00090F86930DBB2212B2ED1B0F852309BB272
:101F00008BB18368B3F5805F19D0C36C5A1CC2646F
:101F100002681B781385B0F85230013B9BB2A0F8E1
:101F20005230002070470268136823F0800313606A
:101F30000268136843F04003136000207047036990
:101F4000002BE2D1C36C02681B88C3F3080313851E
:101F5000C36C0233C364DEE70220704708B5016832
:101F60000B6823F040030B60202380F86930FFF7F3
:101F7000FAFC002008BDB0F85C2090F86A30DBB2B3
:101F8000222B31D110B503689B8C9BB28168B1F5CF
:101F9000805F0ED0D2B2416D4C1C44651A400A706D
:101FA000B0F85A30013B9BB2A0F85A305BB1002028
:101FB00010BD01690029EDD1416D1A400A80436DC1
:101FC00002334365ECE70268136823F490731360EF
:101FD0000268936823F001039360202380F86A303D
:101FE00000F024FE0020E3E70268936943F0080351
:101FF000936102207047000038B504460268D36937
:10200000116813F00F0505D113F0200F02D011F065
:10201000200F60D19068002D72D010F0010502D120
:1020200011F4907F6CD013F0010F07D011F4807F72
:1020300004D001201062E26E0243E26613F0020F48
:1020400007D035B1226802201062E26E42F004022D
:10205000E26613F0040F07D035B122680420106245
:10206000E26E42F00202E26613F0080F09D011F0AE
:10207000200F00D12DB1226808201062E26E0243C9
:10208000E266E26E002A4DD013F0200F02D011F06C
:10209000200F23D1E36E13F0080F04D123689B684F
:1020A00013F0400F26D02046FFF7F8FB23689A680C
:1020B00012F0400F1AD09A6822F040029A60636EC4
:1020C00083B1234A5A63606EFEF79EF950B3606E87
:1020D000436B984726E0FFF74EFF23E02046FFF7CB
:1020E0004AFFD7E72046FFF73FFC1BE02046FFF7FB
:1020F0003BFC17E02046FFF737FC0023E36611E0C6
:1021000013F4801F02D010F4800F0CD113F0800F55
:1021100002D011F0800F12D113F0400F02D011F055
:10212000400F10D138BD4FF480131362202384F880
:10213000693084F86A30204600F00CF8F2E7204657
:10214000FFF7D6FEEEE72046FFF708FFEAE700BFFD
:102150006B190008704700000E4BDA6822F080729D
:10216000DA60DA6842F08072DA600B4B1A6822F0AB
:1021700001021A601A6842F001021A6000225A60D5
:1021800000BF00BF00BF5B680BB90120704710465D
:10219000704700BFF0ED00E0001000E030B58BB0FC
:1021A000002405940694079408940994244B5A69D2
:1021B00042F400225A615A6902F400220192019A03
:1021C0005A6942F480025A615A6902F4800202920A
:1021D000029A5A6942F400325A615A6902F4003292
:1021E0000392039A5A6942F480225A615B6903F4AC
:1021F00080230493049B224620214FF09040FEF759
:1022000006FA4FF4005305930E4B0693079405A965
:102210000D48FEF71FF92023059301250695079425
:10222000089405A94FF09040FEF714F9059506941F
:10223000079405A90548FEF70DF90BB030BD00BFA6
:10224000001002400000211000080048000400486F
:1022500008B50948094B03604FF4E133436000239C
:102260008360C36003610C2242618361C3610362C6
:102270004362FFF70AFE08BDC00100200044004091
:1022800008B50948094B03604FF4E133436000236C
:102290008360C36003610C2242618361C361036296
:1022A0004362FFF7F2FD08BDB40000200048004083
:1022B00030B597B000241394149415940C940D9495
:1022C0000E940F941094119412942C22214601A87C
:1022D00000F0AAFE224D234B2B608F236B60AC6075
:1022E00040F2E733EB602C616C61AC612846FEF78D
:1022F000C9FF13941494159413A92846FFF750FAB4
:1023000060230C930D940E940F94109411941294D6
:1023100022460CA92846FFF7A9F904220CA9284651
:10232000FFF7A4F90C220CA92846FFF79FF90194A6
:1023300002940394049405944FF400530693079475
:1023400008944FF0007309930A940B9401A928464E
:10235000FFF756FA284600F0CFFC17B030BD00BF9B
:1023600080010020002C014030B58BB00024079480
:10237000089409940094019402940394049405949D
:102380000694144D144B2B608F236B60AC6040F2AD
:10239000E733EB602C61AC612846FEF773FF0794CE
:1023A000099407A92846FFF7FBF9602300930194DD
:1023B00002940494224669462846FFF757F90422FE
:1023C00069462846FFF752F9284600F095FC0BB005
:1023D00030BD00BF280100200004004030B5A7B088
:1023E000202200211EA800F01FFE0024179418943C
:1023F00019941A941B945822214601A800F014FE47
:1024000001221C924FF480331D931F9202252295C6
:1024100023934FF4E01324931CA8FEF7FDF80F2339
:102420001793189519944FF480631A931B942946B7
:1024300017A8FEF739FC054B0193049405940E94FC
:10244000109401A8FEF732FD27B030BD0610200021
:1024500008B5054901230B604B600023CB6003489E
:10246000FDF7F8FF08BD00BF6C0100200004004824
:1024700008B5054901230B6000234B608B600348BE
:10248000FDF7E8FF08BD00BF6C0100200004004814
:1024900038B5FFF7DDFF002201210B48FEF7B7F842
:1024A00044F25064094B5D68FEF7CEFC084BA3FB79
:1024B0000030800C04FB00F4044B5B685B1BA34200
:1024C000FAD3FFF7D5FF38BD00040048001000E044
:1024D00083DE1B4338B528241A4B5D68FEF7B4FC35
:1024E000194BA3FB0030800C04FB00F4154B5B6818
:1024F0005B1BA342FAD301211448FEF781F830B1E7
:1025000001211248FEF77CF80028F9D138BD50248B
:102510000C4B5D68FEF798FC0B4BA3FB00239B0C58
:1025200004FB03F4074B5B685B1BA342FAD3012156
:102530000648FEF765F80028E2D0054B01221A7024
:10254000DEE700BF001000E083DE1B43000400480C
:1025500098000020F8B5002637460DE0C6F10702C6
:10256000012393401F43FFB201211748FEF748F8AB
:102570000028F9D10136F6B2072E22D801211248DF
:10258000FEF73EF80028F9D02824104B5D68FEF7CE
:102590005BFC0F4BA3FB0030800C04FB00F40B4BE7
:1025A0005B685B1BA342FAD301210748FEF728F8BA
:1025B0000028D3D1C6F107020123934027EA03077D
:1025C000D2E73846F8BD00BF00040048001000E024
:1025D00083DE1B4310B582B002AC04F8010D01226A
:1025E00020214FF09040FEF712F801231A462146B1
:1025F0000848FFF7ABFB01231A4621460648FFF7C0
:10260000A5FB002220214FF09040FEF700F802B019
:1026100010BD00BFC0010020B400002010B504466A
:102620000A2804D0E0B2FFF7D5FF204610BD0D20E8
:10263000FFF7D0FFF6E70000F8B5154B1B7803B99C
:10264000F8BDFFF725FFFFF745FFFFF783FF114FA9
:102650003870FFF77FFF104E3070FFF77BFF0F4D94
:102660002870FFF777FF0E4C2070FFF773FF80B2E2
:102670000C4B1880397833780B442A78134424782B
:1026800023449842DCD1084800F0D6FCD8E700BFCC
:1026900008000020260100206901002068010020B8
:1026A0003002002024010020183F0008F8B534480B
:1026B00000F036FD334F00213846FEF739FF324D2A
:1026C00040F2EE246C80314E7463FFF7B5FF4FF497
:1026D000FA60FDF71DFE2E4800F022FD2D4800F0A7
:1026E0001FFD04213846FEF723FFAC80B463FFF7DB
:1026F000A3FF4FF4FA60FDF70BFE274800F010FD32
:10270000264800F00DFD0C213846FEF711FFEC8045
:102710003464FFF791FF4FF4FA60FDF7F9FD2048AC
:1027200000F0FEFC1F4800F0FBFC1F4F0421384660
:10273000FEF7FEFE2C81A6F59436B463FFF77CFF0E
:102740004FF4FA60FDF7E4FD184800F0E9FC184882
:1027500000F0E6FC00213846FEF7EAFE6C81746367
:10276000FFF76AFF4FF4FA60FDF7D2FD114800F061
:10277000D7FC114B01225A70104800F0D1FCF8BD73
:10278000343F00088001002008000020002C014098
:102790004C3F0008683F0008803F00089C3F00084D
:1027A000B43F0008D03F000828010020E83F00089F
:1027B000044000081C400008980000203840000831
:1027C00008B540F22523994206D940F2B633994222
:1027D00004D940F2B63101E040F226210138042844
:1027E0000BD8DFE800F0030B131B2300144B5980B8
:1027F000144B5963144800F01FFC08BD104B99801E
:10280000104B9963114800F017FCF6E70C4BD98088
:102810000C4B19640E4800F00FFCEEE7084B1981D1
:102820000C4B99630C4800F007FCE6E7044B598118
:10283000084A51631989094800F0FEFBDDE700BF33
:1028400008000020002C0140484000085C400008BF
:1028500070400008000400408440000898400008D0
:1028600008B5094800F05CFC084800F0E5FB0848A2
:1028700000F0E2FB074800F053FC074800F0DCFBE7
:10288000064800F04DFC08BDAC400008C4400008FC
:10289000D0400008DC400008E8400008F440000890
:1028A00008B5114800F03CFC104800F039FC104815
:1028B00000F036FC0F4800F033FC0F4800F030FC0D
:1028C0000E4800F02DFC0E4800F02AFC0D4800F0E8
:1028D00027FC0D4800F024FC0C4800F021FC0C48BB
:1028E00000F01EFC08BD00BF0041000818410008B0
:1028F000284100085C41000880410008A44100080C
:10290000C8410008E44100080442000824420008CD
:102910004042000808B5FFF7A3FFFFF7C1FF08BD5D
:1029200008B5FDF7D1FCFFF759FDFFF737FCFFF7BE
:102930008FFCFFF7BDFCFFF717FDFFF7A1FCFFF7CA
:102940000BFC0E4800F0ECFBFFF7E4FF0C4C0122FF
:1029500021460C48FEF7B0FF012221460A48FEF747
:10296000ABFF4FF47A70FDF7D3FCFFF79FFEFFF744
:1029700063FE4FF49660FDF7CBFCF8E76042000879
:1029800031020020C0010020B400002008B50A4B2D
:102990001B78012B01D03BB108BD074B00221A70F8
:1029A000064800F0BDFBF7E7034B01221A7004480C
:1029B00000F0B6FBF0E700BF0800002074420008FA
:1029C0009442000808B540F2EE210120FFF7F8FE1E
:1029D00040F2EE210220FFF7F3FE40F2EE21032049
:1029E000FFF7EEFE40F2EE210420FFF7E9FE40F291
:1029F000EE210520FFF7E4FE08BD000008B50348FE
:102A000000F08EFB024800F08BFB08BDB0420008CE
:102A1000C442000810B57E4B1B787E4A9278032A88
:102A200000F2D880DFE802F0022F557E732B13D01E
:102A30003F2B14D0632B15D0762B06D0682B04D0F7
:102A4000A3F13102D2B2042A17D8724A527862B97D
:102A5000714800F065FBBDE0FFF7B4FFBAE0FFF797
:102A600059FFB7E0FFF792FFB4E06A4CE3706B48A0
:102A700000F056FB0123A370ACE0694800F050FB66
:102A8000FFF70EFFA6E0732B13D03F2B14D0632B60
:102A900015D0A3F13502D2B2042A13D8303B5D4AD7
:102AA00003EB830303EB830399009180022393706C
:102AB00090E0FFF787FF8DE0FFF72CFF8AE0FFF73C
:102AC00065FF87E0574800F02BFB574800F0B4FA49
:102AD00080E0732B13D03F2B14D0632B15D0A3F1C0
:102AE0003002D2B2092A13D8303B4A4903EB8303A0
:102AF0005A008B881A448A8003238B706AE0FFF7A0
:102B000061FF67E0FFF706FF64E0FFF73FFF61E06A
:102B1000404B01229A70434800F002FB424800F00B
:102B20008BFA57E0732B37D03F2B38D0632B39D03B
:102B3000A3F13002D2B2092A37D8364A9188194413
:102B4000303989B29180D378313B452B3FD8DFE8CB
:102B500003F04B4F53575B3E3E3E3E3E3E3E3E3EB5
:102B60003E3E3E3E3E3E3E3E3E3E3E3E3E3E3E3E85
:102B70003E3E3E3E3E3E3E3E3E3E3E3E3E3E3E3E75
:102B80003E3E3E3E3E3E3E3E3E423E3E3E3E3E3E61
:102B90003E3E3E3E3E3E3E32FFF714FF1AE0FFF758
:102BA000B9FE17E0FFF7F2FE14E01A4B01229A700B
:102BB000FFF724FF0EE00120FFF702FE154CA1886D
:102BC0000220FFF7FDFDA1880320FFF7F9FD114B5F
:102BD00000229A7010BD0420FFF7F2FD0D4B99887A
:102BE0000520FFF7EDFDF2E70120FFF7E9FDEEE735
:102BF0000220FFF7E5FDEAE70320FFF7E1FDE6E746
:102C00000420FFF7DDFDE2E70520FFF7D9FDDEE751
:102C10003102002098000020E84200080843000824
:102C20001C430008B04200083443000810B50446B5
:102C3000FFF7F0FE2368094A934203D0084A934203
:102C400006D010BD012207490748FEF735FEF8E718
:102C5000012204490548FEF72FFEF2E70044004038
:102C60000048004031020020C0010020B4000020D4
:102C700000B583B00C4B9A6942F001029A619A69DF
:102C800002F001020092009ADA6942F08052DA61A1
:102C9000DB6903F080530193019B0720FDF74CFB98
:102CA00003B05DF804FB00BF0010024082B003686F
:102CB0000E4A934204D00E4A93420CD002B07047A1
:102CC0000C4B9A6942F400629A619B6903F40063B9
:102CD0000093009BF2E7074BDA6942F00202DA61E7
:102CE000DB6903F002030193019BE7E7002C01403D
:102CF000000400400010024000B589B00023039397
:102D000004930593069307930368194A934205D0E9
:102D1000184A934216D009B05DF804FB164B5A6965
:102D200042F400225A615B6903F400230193019B82
:102D30000B23039302230493079303A90F48FDF782
:102D400089FBE8E70C4B5A6942F400325A615B692F
:102D500003F400330293029B502303930223049352
:102D6000079303A94FF09040FDF774FBD3E700BF32
:102D7000002C014000040040001002400008004800
:102D800000B58BB00023059306930793089309932E
:102D900003682C4A934205D02B4A934229D00BB0AA
:102DA0005DF804FB294BDA6942F40032DA61DA6932
:102DB00002F400320192019A5A6942F400325A61D7
:102DC0005B6903F400330293029B0C2305930223F7
:102DD00006930723099305A94FF09040FDF73AFBAE
:102DE000002211462620FDF7B9FA2620FDF7EAFA5F
:102DF000D5E7164BDA6942F48022DA61DA6902F427
:102E000080220392039A5A6942F480225A615B69D4
:102E100003F480230493049B4FF44063059302233F
:102E20000693032308930723099305A90848FDF790
:102E300011FB002211462720FDF790FA2720FDF70D
:102E4000C1FAACE7004400400048004000100240D6
:102E5000000400487047FEE7FEE7FEE7FEE7704724
:102E60007047704708B5FDF741FA08BD08B502483C
:102E7000FFF7C2F808BD00BFC001002008B5024836
:102E8000FFF7BAF808BD00BFB400002070B50D46CA
:102E90001646002404E0AFF30080287001340135A9
:102EA000B442F8DB304670BD70B51646002405E02C
:102EB0004D1C0878FFF7B2FB01342946B442F7DB1A
:102EC000304670BD08B503460B4A126842B10A4A43
:102ED000106803446A46934206D8074A136008BD47
:102EE000054A06491160F2E700F074F80C2303600C
:102EF0004FF0FF30F3E700BFA000002038020020B1
:102F00004FF0FF3070474FF400534B600020704784
:102F100001207047002070471549D1F8883043F4EC
:102F20007003C1F88830134B1A6842F001021A602E
:102F30005868114A02405A601A6822F0847222F4DA
:102F400080321A601A6822F480221A605A6822F4C9
:102F5000FE025A60DA6A22F00F02DA62186B074A40
:102F600002401A6300229A604FF000638B60704742
:102F700000ED00E0001002400CC07FF8CCFC00FF28
:102F8000DFF834D0002103E00C4B5B584350043190
:102F90000B480C4B42189A42F6D30B4A02E000232E
:102FA00042F8043B094B9A42F9D3FFF7B5FF00F012
:102FB00017F8FFF7B5FCFEE700000120F843000812
:102FC000000000207C0000207C000020380200204F
:102FD000FEE70000014B1868704700BF1800002092
:102FE00070B50D4E0D4CA41BA4100025A54209D1AF
:102FF0000B4E0C4C00F068FFA41BA4100025A5424A
:1030000005D170BD56F8253098470135EEE756F8E2
:10301000253098470135F2E7F0430008F0430008F7
:10302000F0430008F443000802440346934200D1F1
:10303000704703F8011BF9E70FB40A4B13B51C687E
:1030400024B1A36913B9204600F022FA05AB049A13
:10305000A1680193204600F0DBFB02B0BDE8104000
:1030600004B070471800002070B50E46054618B130
:1030700083690BB900F00CFAAB69AC6813B9284648
:1030800000F006FA234B9C4217D16C68A3891B07FA
:103090001DD52369DBB1013EA36816F8011F013B72
:1030A000A360E9B9002B2EDA22460A21284600F057
:1030B0003FF8013011D00A2011E0174B9C4201D19A
:1030C000AC68E3E7154B9C4208BFEC68DEE721469D
:1030D000284600F07FF80028DDD04FF0FF3070BDAB
:1030E000002B04DAA2699A4206DC0A2904D023687C
:1030F0005A1C22601970CFE72246284600F018F8C3
:103100000130C9D1E9E723680A205A1C22601870EF
:10311000E5E700BF7C4300089C4300085C430008CF
:10312000024B01461868FFF79FBF00BF1800002040
:10313000F8B50E461446054618B183690BB900F080
:10314000A7F9214B9C422AD16C68A369A360A3898B
:103150001A072ED5236963B323692068C01A6369EF
:10316000F6B28342374604DC2146284600F026F9B1
:1031700028BBA368013BA36023685A1C22601E7011
:1031800063690130834204D0A389DB0719D50A2E75
:1031900017D12146284600F011F990B10FE00B4BF2
:1031A0009C4201D1AC68D0E7094B9C4208BFEC6857
:1031B000CBE72146284600F00DF80028CCD04FF090
:1031C000FF373846F8BD00BF7C4300089C43000829
:1031D0005C430008324B70B51D6806460C4625B1AD
:1031E000AB6913B9284600F053F92E4B9C420FD11E
:1031F0006C68B4F90C309AB215072CD4D00611D4EF
:103200000922326043F04003A3814FF0FF303EE0DB
:10321000254B9C4201D1AC68EBE7244B9C4208BF94
:10322000EC68E6E7510712D5616B41B104F1440344
:10323000994202D0304600F019FA00236363A38953
:1032400023F02403A3810023636023692360A389FF
:1032500043F00803A38123694BB9A38903F42073C6
:10326000B3F5007F03D02146304600F0BFF9A289B4
:1032700012F001030CD00023A36063695B42A361D9
:10328000236953B9B4F90C3013F08000BAD170BD82
:10329000920758BF6369A360F2E70020F7E700BF19
:1032A000180000207C4300089C4300085C43000891
:1032B0008A892DE9F041054610070C4658D44B6821
:1032C000002B05DC0B6C002B02DC0020BDE8F0813C
:1032D000E66A002EF9D0002312F480522F68216A8A
:1032E0002B6032D0606DA3895A0705D56368C01A78
:1032F000636B0BB1236CC01A00230246E66A216A95
:103300002846B047431CA38906D129681D2948D8FF
:10331000294ACA40D60744D500226260D9042269EE
:10332000226004D5421C01D12B6803B96065616B32
:103330002F600029C9D004F14403994202D02846E5
:1033400000F094F900206063C0E701232846B047ED
:10335000411CC8D12B68002BC5D01D2B01D0162BCA
:1033600001D12F60B1E7A38943F04003A381ADE70A
:103370000F69002FA9D093070E6808BF4B690F6033
:1033800018BF0023A6EB07088B60B8F1000F9CDD87
:1033900043463A46216AA66A2846B047002806DC1A
:1033A000A38943F04003A3814FF0FF308EE7074429
:1033B000A8EB0008E9E700BF0100402038B50B6921
:1033C00005460C46DBB118B183690BB900F060F813
:1033D0000C4B9C4209D16C68B4F90C307BB121468E
:1033E0002846BDE83840FFF763BF074B9C4201D138
:1033F000AC68F1E7054B9C4208BFEC68ECE70020A5
:1034000038BD00BF7C4300089C4300085C430008B3
:10341000002310B50446C0E9003383608181436610
:10342000C281C0E904338361194608225C30FFF78A
:10343000FBFD054B6362054BA362054BE362054B45
:103440002462236310BD00BF6D3D00088F3D00085E
:10345000C73D0008EB3D0008014900F085B800BFFA
:10346000BD33000870B54A1E682555430E4605F168
:10347000740100F049F9044640B10021C0E900168A
:103480000C30A06005F16802FFF7CEFD204670BD4C
:10349000836910B5044633BBC0E912330365124B90
:1034A000124A1B688262984204BF0123836100F0C4
:1034B0001FF86060204600F01BF8A060204600F076
:1034C00017F80022E06004216068FFF7A1FF0122E5
:1034D0000921A068FFF79CFF02221221E068FFF794
:1034E00097FF0123A36110BD584300085934000819
:1034F000F8B51B4B1E68B369074613B93046FFF792
:10350000C7FF4836D6E90134013B03D5336833B1F0
:103510003668F7E7B4F90C506DB16834F4E704216C
:103520003846FFF79FFF30600028F1D10C233B6045
:1035300004462046F8BD0B4B6566C4E90055A560FE
:10354000C4E90335C4E905550822294604F15C00A5
:10355000FFF76AFDC4E90D55C4E91255E9E700BF5C
:10356000584300080100FFFF2DE9F84380468946D3
:1035700000F14804002614B93046BDE8F883D4E9C8
:103580000175013F01D52468F5E7AB89012B07D907
:10359000B5F90E30013303D029464046C8470643EB
:1035A0006835EEE770B50E46B1F90E10002996B0F9
:1035B00014461D4607DA00232B60B3891A0610D47F
:1035C0004FF480630EE06A4600F036FC0028F2DB20
:1035D000019A02F47042A2F500535A425A412A60FD
:1035E000EEE740230020236016B070BD8B8973B5D1
:1035F0009D0706460C4607D504F147032360236167
:103600000123636102B070BD01AB6A46FFF7CAFFD8
:1036100000990546304600F077F848B9B4F90C3007
:103620009A05EFD423F0030343F00203A381E3E7F9
:103630000D4BB362A389206043F08003A381009BFC
:103640006361019B20615BB1B4F90E10304600F05C
:1036500005FC28B1A38923F0030343F00103A381F0
:10366000A3891D43A581CDE75934000838B5054627
:10367000002945D051F8043C0C1F002BB8BFE418BA
:1036800000F00EFC1F4A1368104633B963601460E3
:103690002846BDE8384000F004BCA3420CD921689C
:1036A0006218934204BF1A685B68636004BF5218D3
:1036B00022600460ECE713465A680AB1A242FAD9C4
:1036C00019685818A0420BD120680144581882424A
:1036D0001960DDD1106852685A6001441960D7E75B
:1036E00002D90C232B60D3E7206821188A4204BF3B
:1036F00011685268626004BF091821605C60C7E706
:1037000038BD00BFA800002070B5CD1C25F0030512
:1037100008350C2D38BF0C25002D064601DBA942CB
:1037200003D90C233360002070BD00F0B9FB214A9F
:103730001468214691B9204C23681BB9304600F02B
:1037400005FB20602946304600F000FB431C24D1D5
:103750000C233360304600F0A4FBE4E70B685B1BEE
:1037600018D40B2B0FD90B60CD50CC18304600F07D
:1037700098FB04F10B00231D20F00700C31AD3D0DF
:103780005A42E250D0E78C424B6816BF6360136028
:103790000C46EBE70C464968CCE7C41C24F0030454
:1037A000A04205D0211A304600F0D0FA0130CFD027
:1037B0002560DBE7A8000020AC0000209368013BF7
:1037C000002B10B4936008DA9469A34201DB0A2944
:1037D00003D15DF8044BFFF7ABBC1368581C1060B5
:1037E000197008465DF8044B7047F8B506460F4659
:1037F0001446D518AC4201D1002007E03A4614F82F
:10380000011B3046FFF7DAFF431CF3D1F8BD00007F
:103810002DE9F04F0C469DB017461D46064618B1DF
:1038200083690BB9FFF734FE7C4B9C4258D1746816
:10383000A38918075ED52369002B5BD00023099369
:1038400020238DF8293030238DF82A3003954FF04E
:10385000010BB846454615F8013B0BB1252B54D159
:10386000B8EB070A0BD053463A4621463046FFF7DD
:10387000BCFF013000F0C280099B5344099398F8C3
:103880000030002B00F0BA8000234FF0FF32CDE96A
:103890000523049307938DF853301A93A846052205
:1038A00018F8011B5E48FCF79BFC049B78BBD9060B
:1038B00044BF20228DF853201A0744BF2B228DF8D5
:1038C00053202A782A2A2AD0079AA84600200A25B7
:1038D000414611F8013B303B092B69D960B324E024
:1038E000504B9C4201D1B468A2E74F4B9C4208BFA9
:1038F000F4689DE721463046FFF76CFC00289DD018
:103900004FF0FF301DB0BDE8F08FA846A2E7444A53
:10391000801A0BFA00F0184304904546BEE7039A5C
:10392000111D12680391002A01DB079204E0524244
:1039300043F002030792049398F800302E2B0ED127
:1039400098F801302A2B38D1039B1A1D1B6803926B
:10395000002BB8BF4FF0FF3308F102080593334D39
:1039600098F8001003222846FCF73AFC40B14023A7
:10397000401B03FA00F0049B034308F10108049381
:1039800098F800102A488DF82810062208F101073F
:10399000FCF726FC002837D0264B1BBB039B0733C4
:1039A00023F0070308330393099B4B44099350E723
:1039B00005FB0232012088468AE7002308F101084E
:1039C000059319460A25404610F8012B303A092A7A
:1039D00003D9002BC3D00591C1E705FB01210123C9
:1039E0008046F0E703AB00932246134B04A9304610
:1039F000AFF30080B0F1FF3F8146D5D1A3895B06CC
:103A00003FF57EAF09987DE703AB009322460A4B52
:103A100004A9304600F088F8ECE700BF7C430008BA
:103A2000BC4300089C4300085C430008C2430008F4
:103A3000C643000800000000EB3700082DE9F047FE
:103A400091461F468A680B69DDF820809342B8BF13
:103A50001346C9F8003091F8432006460C4612B1CF
:103A60000133C9F800302368990642BFD9F8003005
:103A70000233C9F80030256815F0060507D104F1B6
:103A8000190AE368D9F800209B1AAB4228DC94F8A5
:103A900043302268003318BF012392062DD404F16D
:103AA000430239463046C047013020D02368E568DC
:103AB000D9F8002003F00603042B08BFAD1AA36851
:103AC00022690CBF25EAE57500259342C4BF9B1A05
:103AD000ED184FF000091A344D451AD1002008E0C6
:103AE0000123524639463046C047013003D14FF0DA
:103AF000FF30BDE8F0870135C3E7E1185A1C3020DC
:103B000081F84300224494F8451082F843100233B0
:103B1000C5E70123224639463046C0470130E6D08A
:103B200009F10109D8E700002DE9F04301F1430C48
:103B30000C46097E85B06E291746064698460C9AB3
:103B400000F0B38022D8632936D00AD8002900F0CB
:103B5000B980582900F0838004F1420584F84210AE
:103B600032E0642901D06929F6D12068136805067E
:103B700003F104012AD51B681160002B03DA2D2202
:103B80005B4284F843206F480A2239E0732900F031
:103B90009D8008D86F2920D07029DDD1236843F09B
:103BA0002003236003E0752917D07829D4D1782326
:103BB00084F84530644855E01368191D1B6811608E
:103BC00004F1420584F8423001238CE01B68116047
:103BD00010F0400F18BF1BB2CFE713682568181DFF
:103BE0001060280601D51B6802E06806FBD51B881B
:103BF00054486F2914BF0A220822002184F8431078
:103C00006568A560002DC0F29580216821F004014F
:103C10002160002B3DD1002D40F08E806546082AA2
:103C20000BD12368DB0708D5236962689A42DEBF9F
:103C3000302305F8013C05F1FF35ACEB05032361AA
:103C4000CDF800803B4603AA21463046FFF7F6FE3A
:103C500001304DD14FF0FF3005B0BDE8F083394859
:103C600084F84510136821681D1D1B6815600A063D
:103C70000BD5CA0744BF41F0200121601BB922685F
:103C800022F0200222601022B7E74D0648BF9BB207
:103C9000EFE76546B3FBF2F102FB1133C35C05F8B5
:103CA000013D0B460029F5D1B9E713682568616924
:103CB000181D106028061B6801D5196002E06A060D
:103CC000FBD51980002323616546B9E71368191DE8
:103CD00011601D68626800212846FCF781FA08B16E
:103CE000401B606063682361002384F84330A7E7CA
:103CF00023692A4639463046C0470130AAD0236896
:103D00009B0713D4E068039B9842B8BF1846A3E70B
:103D100001234A4639463046C04701309AD0013522
:103D2000E368039A9B1AAB42F2DCEBE7002504F14F
:103D30001909F5E7002BACD1037884F8423004F17F
:103D400042056CE7CD430008DE43000838B5064C59
:103D50000023054608462360FFF7B4F8431C02D150
:103D6000236803B12B6038BD3402002010B50C4627
:103D7000B1F90E1000F096F80028ABBF636DA3896F
:103D80001B1823F48053ACBF6365A38110BD2DE9DC
:103D9000F0411F468B89DB0505460C46164605D5C6
:103DA00002230022B1F90E1000F068F8A389B4F9DB
:103DB0000E1023F48053A38132463B462846BDE8CB
:103DC000F04100F017B810B50C46B1F90E1000F034
:103DD00055F8431CA38915BF606523F4805343F451
:103DE0008053A38118BFA38110BDB1F90E1000F05C
:103DF00013B8000038B5074C0546084611460022A6
:103E000022601A46FFF750F8431C02D1236803B121
:103E10002B6038BD3402002038B5064C002305461F
:103E200008462360FFF76CF8431C02D1236803B1F6
:103E30002B6038BD3402002038B5074C00230546FE
:103E4000084611462360FFF75EF8431C02D1236841
:103E500003B12B6038BD00BF3402002038B5064CDA
:103E60000023054608462360FFF752F8431C02D1A1
:103E7000236803B12B6038BD3402002038B5074CED
:103E8000054608461146002222601A46FFF742F80E
:103E9000431C02D1236803B12B6038BD34020020DB
:103EA0007047704738B5074C054608461146002252
:103EB00022601A46FEF7EAFF431C02D1236803B1D1
:103EC0002B6038BD34020020F8B500BFF8BC08BC38
:103ED0009E467047F8B500BFF8BC08BC9E467047C8
:103EE00002030405060708090A0B0C0D0E0F10103B
:103EF0000102030405060708090A0B0C0D0E0F103A
:103F00000000000000000000010203040607080989
:103F1000000000000102030452483A2025326420C8
:103F20002525200920543A20253264202A43200ADE
:103F3000000000005A62726F6A656E6965207369DD
:103F40006C6E696B612076662E00000053696C6EA2
:103F5000696B207666206A65737420757A62726F69
:103F60006A6F6E792E0000005A62726F6A656E6920
:103F7000652073696C6E696B612076726C2E00002F
:103F800053696C6E696B2076726C206A657374205D
:103F9000757A62726F6A6F6E792E00005A62726F64
:103FA0006A656E69652073696C6E696B61207672F3
:103FB000722E000053696C6E696B20767272206AF3
:103FC00065737420757A62726F6A6F6E792E000065
:103FD0005A62726F6A656E69652073696C6E696B8F
:103FE0006120686C2E00000053696C6E696B20685C
:103FF0006C206A65737420757A62726F6A6F6E796D
:104000002E0000005A62726F6A656E6965207369DE
:104010006C6E696B612068722E00000053696C6ED3
:10402000696B206872206A65737420757A62726F9A
:104030006A6F6E792E00000053696C6E696B69209F
:10404000676F746F77652E00656E67696E652076A1
:10405000662050574D3D2533640A0000656E676940
:104060006E652076726C2050574D3D2533640A00F2
:10407000656E67696E65207672722050574D3D25DA
:1040800033640A00656E67696E6520686C2050575E
:104090004D3D2533640A0000656E67696E652068D2
:1040A000722050574D3D2533640A00004F7A6E61EF
:1040B000637A656E69612073696C6E696B6F773ABC
:1040C000000000007666202D2050433009000000DB
:1040D00076726C202D2050433109000076727220D8
:1040E0002D20504333000000686C202D20504134B7
:1040F000090000006872202D205041360A0000009F
:104100004F62736C75676977616E65206B6F6D6563
:104110006E647920746F3A003F202D20696E7374AD
:1041200072756B636A61000063202D20776C616398
:104130007A656E6965206C75622077796C61637A47
:10414000656E6965206F64637A79746F77207A2071
:10415000637A756A6E696B610000000073202D2020
:104160007A6174727A796D616E69652077737A7994
:1041700073746B6963682073696C6E696B6F770029
:1041800076202D20737465726F77616E6965207378
:10419000696C6E696B616D692070696F6E6F77799C
:1041A0006D69000068202D20737465726F77616EF1
:1041B00069652073696C6E696B616D6920706F7AD7
:1041C000696F6D796D69000031202D2073746572FF
:1041D0006F77616E69652073696C6E696B69656D77
:1041E0002076660032202D20737465726F77616EC1
:1041F00069652073696C6E696B69656D2076726C98
:104200000000000033202D20737465726F77616E9B
:1042100069652073696C6E696B69656D2076727271
:104220000000000034202D20737465726F77616E7A
:1042300069652073696C6E696B69656D20686C00D7
:1042400035202D20737465726F77616E69652073F8
:10425000696C6E696B69656D2068720A0A000000FE
:10426000576974616A20772070726F6772616D6937
:10427000650000004F64637A7974207A20637A7550
:104280006A6E696B612077796C61637A6F6E792EE3
:10429000000000004F64637A7974207A20637A7595
:1042A0006A6E696B6120776C61637A6F6E792E003C
:1042B0004E6965776C617363697779207A6E616B9B
:1042C0002E0000004F62736C75676977616E652020
:1042D000777970656C6E69656E6965203535302D4E
:1042E0003939302E0000000053696C6E696B69200B
:1042F0006A65737A637A65206E69652073612067E9
:104300006F746F77652E0000506F64616A20777953
:1043100070656C6E69656E69650000004E69657751
:104320006C617363697761206B6F6D656E64612E7C
:10433000000000004F62736C75676977616E6520DD
:10434000777970656C6E69656E69652035302D39D9
:104350003925252E0A0000001C0000200000000066
:10436000000000000000000000000000000000004D
:10437000000000000000000000000000000000003D
:10438000000000000000000000000000000000002D
:10439000000000000000000000000000000000001D
:1043A000000000000000000000000000000000000D
:1043B000000000000000000000000000232D302B52
:1043C0002000686C4C006566674546470030313216
:1043D000333435363738394142434445460030316D
:1043E00032333435363738396162636465660000CC
:0443F000C5010008FB
:0443F400A10100081B
:1043F80001000000100000000100EE02EE02EE02D3
:10440800EE02EE0200127A001C00002000000000FC
:104418007C4300089C4300085C430008000000003F
:104428000000000000000000000000000000000084
:104438000000000000000000000000000000000074
:104448000000000000000000000000000000000064
:104458000000000000000000000000000000000054
:0C44680000000000000000000000000048
:0400000508002F813F
:00000001FF
