:020000040800F2
:1000000000000120CD1B0008111B0008131B000875
:10001000151B0008171B0008191B00080000000032
:100020000000000000000000000000001B1B000892
:100030001D1B0008000000001F1B0008211B0008FA
:100040001D1C00081D1C00081D1C00081D1C0008AC
:100050001D1C00081D1C00081D1C00081D1C00089C
:100060001D1C00081D1C00081D1C00081D1C00088C
:100070001D1C00081D1C00081D1C00081D1C00087C
:100080001D1C00081D1C00081D1C00081D1C00086C
:100090001D1C00081D1C00081D1C00081D1C00085C
:1000A0001D1C00081D1C00081D1C00081D1C00084C
:1000B0001D1C00081D1C00081D1C00081D1C00083C
:1000C0001D1C00081D1C00081D1C00081D1C00082C
:1000D0001D1C00081D1C00081D1C00081D1C00081C
:1000E0001D1C00081D1C00081D1C00081D1C00080C
:1000F0001D1C00081D1C00081D1C00081D1C0008FC
:100100001D1C000800000000000000001D1C00086D
:100110001D1C00081D1C00081D1C00081D1C0008DB
:100120001D1C00081D1C00081D1C00081D1C0008CB
:100130001D1C00081D1C000800000000000000003D
:100140001D1C00081D1C00081D1C000800000000EC
:10015000000000000000000000000000000000009F
:100160001D1C00081D1C00081D1C00081D1C00088B
:100170001D1C00081D1C00081D1C00081D1C00087B
:100180001D1C00081D1C00080000000000000000ED
:040190001D1C00082A
:1001A00010B5054C237833B9044B13B10448AFF3B1
:1001B00000800123237010BD7000002000000000AB
:1001C0009024000808B5034B1BB103490348AFF363
:1001D000008008BD0000000074000020902400088A
:1001E00001F0FF01102A2BDB10F0070F08D010F8E8
:1001F000013B013A8B422DD010F0070F42B3F6D1EC
:10020000F0B441EA012141EA014122F007047FF004
:1002100000070023F0E80256083C85EA010586EA5B
:10022000010685FA47F5A3FA87F586FA47F6A5FA97
:1002300087F68EB9EED1F0BC01F0FF0102F00702A3
:1002400032B110F8013B013A83EA010313B1F8D14E
:100250000020704701387047002D06BF354603382F
:10026000073815F0010F07D1013015F4807F02BF68
:10027000013015F4C03F0130F0BC0138704700BFB9
:1002800010B504460E4B18784FF47A73B3FBF0F3B5
:100290000C4A1068B0FBF3F000F094F868B90F2C2A
:1002A00001D901200AE0002221464FF0FF3000F082
:1002B00055F8034B5C60002000E0012010BD00BF3A
:1002C000000000200800002008B5074A136843F02A
:1002D00010031360032000F02FF80020FFF7D0FF79
:1002E00001F0C6FB002008BD00200240034A11684F
:1002F000034B1B780B441360704700BFA000002025
:1003000000000020014B1868704700BFA0000020CB
:1003100038B50446FFF7F6FF0546B4F1FF3F02D0BB
:10032000044B1B781C44FFF7EDFF401BA042FAD39F
:1003300038BD00BF00000020074AD36823F4E06303
:100340001B041B0C000200F4E060184340F0BF6087
:1003500040F40030D060704700ED00E030B4174B3F
:10036000DB68C3F30223C3F10704042C28BF042471
:100370001D1D062D18D9033B4FF0FF3505FA04F477
:1003800021EA0401994005FA03F322EA0303194321
:1003900000280BDB0901C9B200F1604000F56140A3
:1003A00080F8001330BC70470023E5E700F00F0031
:1003B0000901C9B2024B1954F4E700BF00ED00E097
:1003C00014ED00E00138B0F1807F0AD2064B58608E
:1003D000064AF02182F823100020986007221A6054
:1003E00070470120704700BF10E000E000ED00E022
:1003F000F0B482B0002336E0062400E00024B440CC
:100400003C430235614E46F82540614C2568D44393
:1004100004EA05064F6817F4803F01D042EA05065A
:100420005B4D2E606D6804EA05064F6817F4003FC7
:1004300001D042EA0506564D6E60AD6804EA050635
:100440004F6817F4801F01D042EA0506504DAE6098
:10045000ED682C404E6816F4001F01D042EA0504F6
:100460004B4AD46001330A6832FA03F400F08B80FF
:1004700001249C402240F5D04D68022D01D0122D60
:1004800010D1DE08083650F826C003F00705AF008B
:100490000F25BD402CEA050C0D69BD4045EA0C0551
:1004A00040F8265006685F000325BD40ED4305EA8D
:1004B000060C4E6806F00306BE4046EA0C060660CF
:1004C0004E6806F1FF3CBCF1010F03D9112E01D09B
:1004D000122E10D1866805EA060CCE68BE4046EAA8
:1004E0000C068660466826EA04044E68C6F30016C9
:1004F0009E4026434660C46825408C68BC402C431F
:10050000C4604C6814F0805FACD0224CA56945F003
:100510000105A561A46904F001040194019C9D08F2
:10052000AE1C1A4C54F8267003F00304A6000F24E6
:10053000B44027EA0407B0F1904F3FF45FAF164C88
:10054000A04216D004F58064A04214D004F5806463
:10055000A04212D004F58064A04210D004F580645B
:10056000A0420ED004F58064A0423FF445AF0724BA
:1005700045E7012443E7022441E703243FE704243D
:100580003DE705243BE702B0F0BC704700000140A6
:1005900000040140001002400004004803691942B1
:1005A00001D100207047012070470AB9816270476D
:1005B00081617047002800F0F98270B582B004466E
:1005C000036813F0010F3DD0B44B5B6803F00C03DC
:1005D000042B20D0B14B5B6803F00C03082B13D025
:1005E0006368B3F5803F6AD0002B40F08D8003F143
:1005F000804303F504331A6822F480321A601A68C3
:1006000022F480221A605FE0A44B5B6803F4C033DD
:10061000B3F5803FE4D14FF4003393FAA3F39F4B3B
:1006200019684FF4003393FAA3F3B3FA83F303F09A
:100630001F03012202FA03F30B4203D06368002B6D
:1006400000F0BC82236813F0020F00F0C180934BCE
:100650005B6813F00C0F00F09780904B5B6803F021
:100660000C03082B00F08880E368002B00F0EE807C
:10067000012292FAA2F3B3FA83F303F1845303F550
:1006800084139B001A60FFF73DFE0546022393FA90
:10069000A3F3824B1968022393FAA3F3B3FA83F30B
:1006A00003F01F03012202FA03F30B4240F0BF8064
:1006B000FFF728FE401B0228E8D9032085E2774A8D
:1006C000136843F4803313606368002B36D0FFF760
:1006D00019FE05464FF4003393FAA3F36F4B1968E4
:1006E0004FF4003393FAA3F3B3FA83F303F01F0339
:1006F000012202FA03F30B42A4D1FFF703FE401BD1
:100700006428E7D9032060E2B3F5A02F09D0634B3A
:100710001A6822F480321A601A6822F480221A6061
:10072000D2E703F18043A3F53C331A6842F48022F8
:100730001A601A6842F480321A60C5E7FFF7E2FDDA
:1007400005464FF4003393FAA3F3544B19684FF462
:10075000003393FAA3F3B3FA83F303F01F030122E8
:1007600002FA03F30B423FF46DAFFFF7CBFD401BE2
:100770006428E6D9032028E2484B5B6803F4C033C1
:10078000B3F5004F7FF470AF022393FAA3F3434B0A
:100790001968022393FAA3F3B3FA83F303F01F0358
:1007A000012202FA03F30B4204D0E368934201D022
:1007B00001200AE23948036823F0F8032169F8228E
:1007C00092FAA2F2B2FA82F201FA02F21343036041
:1007D000236813F0080F00F08D806369002B61D04F
:1007E000012191FAA1F2B2FA82F22D4B13449B003F
:1007F0001960FFF787FD0546022393FAA3F293FAE7
:10080000A3F293FAA3F2254A516A93FAA3F3B3FA37
:1008100083F303F01F03012202FA03F30B4269D1B1
:10082000FFF770FD401B0228E6D90320CDE11B48ED
:10083000036823F0F8032169F82292FAA2F2B2FACF
:1008400082F201FA02F213430360C1E7012393FA33
:10085000A3F3B3FA83F303F1845303F584139B00EA
:1008600000221A60FFF74EFD0546022393FAA3F318
:100870000A4B1968022393FAA3F3B3FA83F303F044
:100880001F03012202FA03F30B42A1D0FFF73AFD46
:10089000401B0228E9D9032097E100BF0010024065
:1008A00020819010012292FAA2F2B2FA82F2C04B99
:1008B00013449B0000221A60FFF724FD0546022323
:1008C00093FAA3F293FAA3F293FAA3F2B94A516A04
:1008D00093FAA3F3B3FA83F303F01F03012202FA9E
:1008E00003F30B4206D0FFF70DFD401B0228E6D9AB
:1008F00003206AE1236813F0040F00F0B380AD4BCE
:10090000DB6913F0805F20D1AA4BDA6942F0805294
:10091000DA61DB6903F080530193019B0125A64B4B
:100920001B6813F4807F12D0A368012B23D073BB04
:1009300003F1804303F504331A6A22F001021A62BC
:100940001A6A22F004021A621AE00025E7E79A4ABE
:10095000136843F480731360FFF7D4FC0646964B8C
:100960001B6813F4807FDFD1FFF7CCFC801B642869
:10097000F5D9032029E18F4A136A43F0010313627A
:10098000A368002B41D0FFF7BDFC06462BE0052BEA
:1009900009D0884B1A6A22F001021A621A6A22F000
:1009A00004021A62ECE7834B1A6A42F004021A62EC
:1009B0001A6A42F001021A62E2E77E4B196A0223C8
:1009C00093FAA3F3B3FA83F303F01F03012202FAAD
:1009D00003F3194245D1FFF795FC801B41F28833A0
:1009E000984200F2ED80022393FAA3F293FAA3F364
:1009F000B3FA83F35B0943F00203022BDDD0022339
:100A000093FAA3F36B4B596AD9E7FFF77BFC0646D1
:100A100015E0684B196A022393FAA3F3B3FA83F340
:100A200003F01F03012202FA03F3194219D0FFF762
:100A300069FC801B41F28833984200F2C380022394
:100A400093FAA3F293FAA3F3B3FA83F35B0943F0A7
:100A50000203022BDDD0022393FAA3F3554B596A0C
:100A6000D9E7B5BBA369002B00F0AE80514A5268AC
:100A700002F00C02082A00F0AA80022B2FD04FF0BF
:100A8000807393FAA3F3B3FA83F303F1845303F56A
:100A900084139B0000221A60FFF734FC04464FF0D9
:100AA000007393FAA3F3434B19684FF0007393FA62
:100AB000A3F3B3FA83F303F01F03012202FA03F353
:100AC000194271D0FFF71EFC001B0228E7D9032052
:100AD0007BE0384AD36923F08053D361C2E74FF0FB
:100AE000807393FAA3F3B3FA83F303F1845303F50A
:100AF00084139B0000221A60FFF704FC05464FF0A8
:100B0000007393FAA3F32B4B19684FF0007393FA19
:100B1000A3F3B3FA83F303F01F03012202FA03F3F2
:100B2000194206D0FFF7EEFB401B0228E7D903204D
:100B30004BE0204AD36A23F00F03616A0B43D36270
:100B4000536823F47613216AE06901430B43536031
:100B50004FF0807393FAA3F3B3FA83F303F1845352
:100B600003F584139B0001221A60FFF7CBFB0446B8
:100B70004FF0007393FAA3F30E4B19684FF0007314
:100B800093FAA3F3B3FA83F303F01F03012202FAEB
:100B900003F3194206D1FFF7B5FB001B0228E7D982
:100BA000032012E0002010E000200EE0012070473A
:100BB000208190100010024000700040012004E0ED
:100BC000032002E0032000E0002002B070BD0120FD
:100BD000FBE700BF10B4184B5C6804F00C03082B53
:100BE00028D104F470124FF4701393FAA3F3B3FAFC
:100BF00083F322FA03F31149C85C0F4BDB6A03F05D
:100C00000F030F2292FAA2F2B2FA82F2D3400B44FF
:100C10001A7C14F4803F07D1094BB3FBF2F300FBBD
:100C200003F05DF8044B7047054BB3FBF2F300FB98
:100C300003F0F6E70248F4E700100240A824000899
:100C400000127A00002800F0C08070B50446614BA5
:100C50001B6803F007038B420CD25E4A136823F033
:100C600007030B431360136803F007038B4201D0A3
:100C7000012070BD236813F0020F06D0564A536856
:100C800023F0F003A068034353600D46236813F07C
:100C9000010F5AD06368012B2DD0022B40D00222C5
:100CA00092FAA2F24C4A1068022292FAA2F2B2FA26
:100CB00082F202F01F02012101FA02F2104200F05A
:100CC000868045494A6822F0030213434B60FFF7D0
:100CD00019FB0646404B5B6803F00C036268B3EBFC
:100CE000820F32D0FFF70EFB801B41F2883398420F
:100CF000F0D90320BDE74FF4003292FAA2F2364A4F
:100D000010684FF4003292FAA2F2B2FA82F202F0C4
:100D10001F02012101FA02F20242D2D10120A8E70A
:100D20004FF0007292FAA2F22B4A10684FF0007254
:100D300092FAA2F2B2FA82F202F01F02012101FA43
:100D400002F21042BDD1012093E7224B1B6803F051
:100D50000703AB420CD91F4A136823F007032B4348
:100D60001360136803F00703AB4201D0012080E752
:100D7000236813F0040F06D0174A536823F4E06386
:100D8000E1680B435360236813F0080F07D0124A41
:100D9000536823F46053216943EAC1035360FFF7AA
:100DA00019FF0D4B5B6803F0F003F02292FAA2F2F8
:100DB000B2FA82F2D340094AD35CD840084B18609B
:100DC0000020FFF75DFA002053E701207047012063
:100DD0004FE700BF0020024000100240C824000876
:100DE00008000020014B1868704700BF0800002071
:100DF00008B5FFF7F7FF074B5B6803F4E0634FF4B8
:100E0000E06292FAA2F2B2FA82F2D340024AD35CD2
:100E1000D84008BD00100240D824000808B5FFF7EC
:100E2000E1FF074B5B6803F460534FF4605292FAA2
:100E3000A2F2B2FA82F2D340024AD35CD84008BD93
:100E400000100240D8240008F0B583B004460368BF
:100E500013F4803F48D0A14BDB6913F0805F40F072
:100E600022819E4BDA6942F08052DA61DB6903F03D
:100E700080530193019B0125994B1B6813F4807FDC
:100E800000F01381954B1B6A13F4407322D0626803
:100E900002F440729A421DD09048016A21F44076D3
:100EA0004FF4803393FAA3F2B2FA82F28D4F3A44B0
:100EB00092004FF0010CC2F800C093FAA3F3B3FA0A
:100EC00083F33B449B0000221A60066211F0010F7D
:100ED00040F00081814A136A23F4407361680B4338
:100EE0001362002D40F02881236813F0010F06D013
:100EF0007A4A136B23F00303A1680B43136323683F
:100F000013F0020F06D0754A136B23F44033E168E7
:100F10000B431363236813F0040F06D06F4A136B5F
:100F200023F4402321690B431363236813F0200F3C
:100F300006D06A4A136B23F01003E1690B43136375
:100F4000236813F4003F06D0644A536823F48003F7
:100F5000616D0B435360236813F0400F06D05F4A66
:100F6000136B23F02003216A0B431363236813F4EC
:100F7000802F06D0594A136B23F04003616A0B435C
:100F80001363236813F0080F06D0544A136B23F43D
:100F9000401361690B431363236813F0100F06D0ED
:100FA0004E4A136B23F44003A1690B431363236878
:100FB00013F4007F06D0494A536823F40003216BE1
:100FC0000B435360236813F0800F06D0434AD36A63
:100FD00023F4F873A16A0B43D362236813F4807F70
:100FE00006D03E4AD36A23F47853E16A0B43D362B6
:100FF000236813F4805F06D0384A136B23F48073A0
:10100000616B0B431363236813F4005F06D0334A0C
:10101000136B23F40073216C0B431363236813F4E5
:10102000801F06D02D4A136B23F08073A16B0B43F6
:101030001363236813F4001F06D0284A136B23F0B0
:101040000073E16B0B431363236813F4800F06D026
:10105000224A136B23F48063616C0B431363236890
:1010600013F4000F06D01D4A136B23F40063A16C28
:101070000B431363236813F0807F06D0174A136B6A
:1010800023F40053E16C0B431363236813F0007FD8
:1010900059D0124A136B23F40043216D0B431363A1
:1010A000002003B0F0BD0025E6E60D4A136843F4C6
:1010B00080731360FFF726F90646094B1B6813F48B
:1010C000807F7FF4DFAEFFF71DF9801B6428F4D921
:1010D0000320E6E7FFF716F906461BE00010024082
:1010E0000070004000819010184B196A022393FA97
:1010F000A3F3B3FA83F303F01F03012202FA03F30D
:101100000B427FF4E7AEFFF7FDF8801B41F2883316
:10111000984216D8022393FAA3F293FAA3F3B3FAF0
:1011200083F35B0943F00203022BDDD0022393FA21
:10113000A3F3064B596AD9E7D36923F08053D361EF
:10114000D2E60320ADE70020ABE700BF001002406D
:1011500010B5044683680269134342691343C269A8
:101160001343016808689C4A024013430B602268DD
:10117000536823F44053E1680B435360A369226A28
:101180001A4321688B6823F4306313438B60236810
:10119000924A93421FD0924A93422FD0914A93424F
:1011A00046D0914A93425DD0904A934274D0102227
:1011B000E169B1F5004F00F08B80082A00F20A8146
:1011C000DFE812F0CE00DA00E6000801F2000801C4
:1011D00008010801FE0002F55842126B02F00302FA
:1011E000032A09D8DFE802F0020406720122DFE7D1
:1011F0000422DDE70822DBE71022D9E702F5E63218
:10120000126B02F44032B2F5803F0BD007D9B2F531
:10121000003F09D0B2F5403F08D10222C8E72AB901
:101220000022C5E70422C3E70822C1E71022BFE776
:1012300002F5E432126B02F44022B2F5802F0BD09B
:1012400007D9B2F5002F09D0B2F5402F08D10222FC
:10125000AEE72AB90022ABE70422A9E70822A7E7F4
:101260001022A5E702F5E232126B02F44012B2F549
:10127000801F0BD007D9B2F5001F09D0B2F5401F6F
:1012800008D1022294E72AB9002291E704228FE7CD
:1012900008228DE710228BE702F5E032126B02F490
:1012A0004002B2F5800F0BD007D9B2F5000F09D07C
:1012B000B2F5400F08D102227AE72AB9002277E777
:1012C000042275E7082273E7102271E702226FE714
:1012D000082A42D8DFE802F0051722412D4141419A
:1012E0003800FFF785FD6268530803EB4003B3FB4A
:1012F000F2F39BB2002023F00F02C3F34203134327
:101300002268D36010BDFFF789FD6268530803EBC4
:101310004003B3FBF2F39BB20020ECE76268530892
:1013200003F5740303F51053B3FBF2F39BB20020F3
:10133000E1E7FFF74FFC6268530803EB4003B3FBA0
:10134000F2F39BB20020D6E76268530803F58033BE
:10135000B3FBF2F39BB20020CDE701200023CAE7E4
:10136000FFF746FD636800EB5300B0FBF3F0236822
:1013700080B2D8600020C5E7FFF750FD636800EB3E
:101380005300B0FBF3F0236880B2D8600020B9E7C7
:1013900061684A0802F5F40202F59052B2FBF1F2DC
:1013A00092B2DA600020ADE7FFF714FC636800EB4F
:1013B0005300B0FBF3F0236880B2D8600020A1E7AF
:1013C00061684A0802F50042B2FBF1F292B2DA60BB
:1013D000002097E7012095E7F369FFEF003801400F
:1013E0000044004000480040004C004000500040D5
:1013F000436A13F0010F06D00268536823F40033E8
:10140000816A0B435360436A13F0020F06D00268EF
:10141000536823F48033C16A0B435360436A13F06B
:10142000040F06D00268536823F48023016B0B433A
:101430005360436A13F0080F06D00268536823F420
:101440000043416B0B435360436A13F0100F06D007
:101450000268936823F48053816B0B439360436A63
:1014600013F0200F06D00268936823F40053C16B79
:101470000B439360436A13F0400F0AD0026853682D
:1014800023F48013016C0B435360036CB3F5801F8E
:101490000BD0436A13F0800F06D00268536823F420
:1014A0000023816C0B43536070470268536823F438
:1014B000C003416C0B435360EBE72DE9F041054657
:1014C0000F4616469846069C2B68DB6937EA0303ED
:1014D0000CBF01230023B3421DD1B4F1FF3FF3D071
:1014E0002CB1FEF70FFFA0EB0800A042ECD92A6850
:1014F000136823F4D07313602A68936823F0010300
:101500009360202385F8693085F86A30002385F8D8
:101510006830032000E00020BDE8F0812DE9F041B3
:1015200082B01E4690F86930DBB2202B4ED10446C3
:101530000D46904600294ED0002A4ED090F86830D3
:10154000012B4CD0012380F868300023C36621238F
:1015500080F86930FEF7D6FE0746A4F85080A4F85C
:10156000528003E023682A781A850135B4F8523096
:101570009BB2DBB1B4F85230013B9BB2A4F85230BD
:1015800000963B46002280212046FFF796FF40BB95
:10159000A368B3F5805FE5D12369002BE2D122680F
:1015A00035F8023BC3F308031385DFE700963B469B
:1015B000002240212046FFF780FF034698B92022F1
:1015C00084F86920002284F8682000E0022318468D
:1015D00002B0BDE8F0810123F9E70123F7E7022318
:1015E000F5E70323F3E70323F1E730B583B00446BF
:1015F0000023C366FEF786FE054623681B6813F0CA
:10160000080F0ED123681B6813F0040F17D1202395
:1016100084F8693084F86A30002084F8680003B0E8
:1016200030BD6FF07E430093034600224FF400115B
:101630002046FFF742FF0028E4D00320EFE76FF0D9
:101640007E4300932B4600224FF480012046FFF793
:1016500034FF0028DBD00320E1E778B310B504465F
:1016600090F869300BB3242384F86930226813683A
:1016700023F0010313602046FFF76AFD012813D011
:10168000636ABBB92268536823F4904353602268AD
:10169000936823F02A0393602268136843F00103E0
:1016A00013602046FFF7A1FF10BD80F8683000F0FE
:1016B000FDF9D8E72046FFF79BFEE3E701207047DE
:1016C0000E4BDA6822F08072DA60DA6842F08072DB
:1016D000DA600B4B1A6822F001021A601A6842F0B5
:1016E00001021A6000225A6000BF00BF00BF5B68A1
:1016F0000BB9012070471046704700BFF0ED00E0C5
:10170000001000E010B58AB00024059406940794F8
:1017100008940994254B5A6942F400225A615A6987
:1017200002F400220192019A5A6942F480025A613D
:101730005A6902F480020292029A5A6942F4003213
:101740005A615A6902F400320392039A5A6942F4C8
:1017500080225A615B6903F480230493049B224630
:1017600020214FF09040FEF720FF4FF400530593E7
:101770000F4B0693079405A90E48FEF739FE022386
:1017800005930694079405A94FF09040FEF730FEAC
:1017900020230593012306930794089405A94FF08D
:1017A0009040FEF725FE0AB010BD00BF00100240B9
:1017B000000021100008004808B50948094B0360E3
:1017C0004FF4E133436000238360C36003610C2264
:1017D00042618361C36103624362FFF73EFF08BD5C
:1017E000C40000200044004008B5064902230B60F5
:1017F00001234B600023CB604FF09040FEF7F8FDD3
:1018000008BD00BFB000002008B5054902230B60E9
:1018100000234B608B604FF09040FEF7E9FD08BD60
:10182000B000002038B5FFF7DFFF002202214FF0A3
:101830009040FEF7BAFE44F25064094B5D68FFF732
:10184000D1FA084BA3FB0030800C04FB00F4044BDE
:101850005B685B1BA342FAD3FFF7D6FF38BD00BF1E
:10186000001000E083DE1B4338B528241B4B5D6865
:10187000FFF7B8FA1A4BA3FB0030800C04FB00F40E
:10188000164B5B685B1BA342FAD302214FF09040DA
:10189000FEF784FE38B102214FF09040FEF77EFE45
:1018A0000028F8D138BD50240C4B5D68FFF79AFA38
:1018B0000B4BA3FB00239B0C04FB03F4074B5B685F
:1018C0005B1BA342FAD302214FF09040FEF766FE65
:1018D0000028E0D0034B01221A70DCE7001000E082
:1018E00083DE1B438C000020F8B500260EE0C6F115
:1018F0000702012393401F43FFB202214FF09040A3
:10190000FEF74CFE0028F8D10136F6B2072E25D896
:1019100002214FF09040FEF741FE0028F8D0282425
:101920000F4B5D68FFF75EFA0E4BA3FB0030800C97
:1019300004FB00F40A4B5B685B1BA342FAD3022151
:101940004FF09040FEF72AFE0028D0D1C6F10702E2
:101950000123934027EA0307FFB2CEE73846F8BDDC
:10196000001000E083DE1B4330B5A7B02022002129
:101970001EA800F07FF900241794189419941A9463
:101980001B945822214601A800F074F901221C92F0
:101990004FF480331D931F920225229523934FF419
:1019A000E01324931CA8FEF705FE0F231793189548
:1019B00019944FF480631A931B94294617A8FFF7D4
:1019C00041F90195049401A8FFF73EFA27B030BD14
:1019D000F0B58FB0FEF778FCFFF7C6FFFFF792FE79
:1019E000FFF7EAFEFFF76CFE4FF47A70FEF790FC0B
:1019F000FFF718FFFFF738FFFFF776FF154F387036
:101A0000FFF772FF144E3070FFF76EFF134D287012
:101A1000FFF76AFF124C2070FFF766FF80B2114B90
:101A200018803A78317811442B781944247821446D
:101A30008842DDD10C4901A800F024F96423C2B228
:101A400001A90A48FFF76AFD4FF47A70FEF760FCBF
:101A5000CEE700BFA6000020AD000020AC000020B3
:101A600034010020A4000020E0240008C40000206D
:101A700000B583B00C4B9A6942F001029A619A69F1
:101A800002F001020092009ADA6942F08052DA61B3
:101A9000DB6903F080530193019B0720FEF74CFCA8
:101AA00003B05DF804FB00BF0010024000B589B030
:101AB0000023039304930593069307930268134B43
:101AC0009A4202D009B05DF804FB03F5E633DA6907
:101AD00042F40032DA61DA6902F400320192019ACA
:101AE0005A6942F400325A615B6903F4003302938D
:101AF000029B0C230393022304930723079303A958
:101B00004FF09040FEF774FCDCE700BF004400405B
:101B10007047FEE7FEE7FEE7FEE770477047704755
:101B200008B5FEF7E3FB08BD08B503460B4A12688B
:101B300042B10A4A106803446A46934206D8074AEB
:101B4000136008BD054A06491160F2E700F068F825
:101B50000C2303604FF0FF30F3E700BF900000203C
:101B6000400100201549D1F8883043F47003C1F8D2
:101B70008830134B1A6842F001021A605868114A03
:101B800002405A601A6822F0847222F480321A608D
:101B90001A6822F480221A605A6822F4FE025A60FF
:101BA000DA6A22F00F02DA62186B074A02401A63FF
:101BB00000229A604FF000638B60704700ED00E0F8
:101BC000001002400CC07FF8CCFC00FFDFF834D0DE
:101BD000002103E00C4B5B58435004310B480C4B85
:101BE00042189A42F6D30B4A02E0002342F8043B23
:101BF000094B9A42F9D3FFF7B5FF00F017F8FFF74A
:101C0000E7FEFEE7000001202C2500080000002070
:101C100070000020700000203C010020FEE7000062
:101C2000014B1868704700BF0C00002070B50D4EC6
:101C30000D4CA41BA4100025A54209D10B4E0C4C41
:101C400000F026FCA41BA4100025A54205D170BD00
:101C500056F8253098470135EEE756F82530984775
:101C60000135F2E724250008242500082425000872
:101C70002825000802440346934200D1704703F828
:101C8000011BF9E70EB400B59CB01DAB02900690A5
:101C90006FF00041094807910491094953F8042B5A
:101CA00005910068019302A900F066F8029B0022EA
:101CB0001A701CB05DF804EB03B070470C000020F4
:101CC0000802FFFF2DE9F0478E689E4282460C46CF
:101CD0009046994637D88A8912F4906F31D025689A
:101CE00009696F1A6569022305EB450595FBF3F554
:101CF00009F101033B449D4238BF1D46530530D5D1
:101D0000294600F02BFB064650B90C23CAF80030D8
:101D1000A38943F04003A3814FF0FF30BDE8F08773
:101D20003A46216900F0A8FAA38923F4906343F0AE
:101D30008003A381266165613E44ED1B2660A5609A
:101D40004E464E4500D94E4632464146206800F088
:101D50009EFAA3689B1BA36023681E442660002094
:101D6000DCE72A4600F054FB06460028E2D1216950
:101D7000504600F0A5FAC8E72DE9F04F1D468B89C3
:101D80001F069DB080460C4616460FD50B696BB9F1
:101D9000402100F0E3FA2060206128B90C23C8F844
:101DA00000304FF0FF30C8E0402363610023099307
:101DB00020238DF8293030238DF82A3003954FF0F9
:101DC000010B37463D4615F8013B0BB1252B3ED1A3
:101DD000B7EB060A0BD05346324621464046FFF782
:101DE00071FF013000F0A480099B534409933B78B4
:101DF000002B00F09D8000234FF0FF32CDE905233A
:101E0000049307938DF853301A932F46052217F841
:101E1000011B5048FEF7E4F9049BD0B9D90644BF32
:101E200020228DF853201A0744BF2B228DF853200F
:101E30002A782A2A15D0079A2F4600200A253946E3
:101E400011F8013B303B092B4DD9B8B10FE02F46BB
:101E5000B8E7404A801A0BFA00F0184304903D4658
:101E6000D3E7039A111D12680391002A01DB079240
:101E700004E0524243F00203079204933B782E2B76
:101E80000CD17B782A2B33D1039B1A1D1B6803923C
:101E9000002BB8BF4FF0FF33023705932E4D397832
:101EA00003222846FEF79CF938B14023401B03FA71
:101EB00000F0049B034301370493397827488DF8D9
:101EC000281006227E1CFEF78BF9002838D0244B00
:101ED00013BB039B073323F0070308330393099BCA
:101EE0004B4409936DE705FB023201200F46A6E73C
:101EF00000230137059319460A25384610F8012BAF
:101F0000303A092A03D9002BC8D00591C6E705FB52
:101F1000012101230746F0E703AB00932246114B52
:101F200004A94046AFF30080B0F1FF3F8146D6D10F
:101F3000A3895B063FF535AF09981DB0BDE8F08F6A
:101F400003AB00932246074B04A9404600F082F8F9
:101F5000EAE700BFF0240008F6240008FA2400088D
:101F600000000000C51C00082DE9F04791461F46FF
:101F70008A680B69DDF820809342B8BF1346C9F820
:101F8000003091F8432006460C4612B10133C9F8DF
:101F900000302368990642BFD9F800300233C9F8EF
:101FA0000030256815F0060507D104F1190AE36829
:101FB000D9F800209B1AAB4228DC94F84330226801
:101FC000003318BF012392062DD404F14302394691
:101FD0003046C047013020D02368E568D9F800209A
:101FE00003F00603042B08BFAD1AA36822690CBFD7
:101FF00025EAE57500259342C4BF9B1AED184FF002
:1020000000091A344D451AD1002008E00123524638
:1020100039463046C047013003D14FF0FF30BDE8AC
:10202000F0870135C3E7E1185A1C302081F84300DE
:10203000224494F8451082F843100233C5E7012387
:10204000224639463046C0470130E6D009F1010941
:10205000D8E700002DE9F04301F1430C0C46097E5E
:1020600085B06E291746064698460C9A00F0B38054
:1020700022D8632936D00AD8002900F0B98058291F
:1020800000F0838004F1420584F8421032E06429B4
:1020900001D06929F6D120681368050603F104010F
:1020A0002AD51B681160002B03DA2D225B4284F8CD
:1020B00043206F480A2239E0732900F09D8008D838
:1020C0006F2920D07029DDD1236843F020032360DD
:1020D00003E0752917D07829D4D1782384F84530C6
:1020E000644855E01368191D1B68116004F142052E
:1020F00084F8423001238CE01B68116010F0400F1F
:1021000018BF1BB2CFE713682568181D106028069A
:1021100001D51B6802E06806FBD51B8854486F296F
:1021200014BF0A220822002184F843106568A560C4
:10213000002DC0F29580216821F004012160002B60
:102140003DD1002D40F08E806546082A0BD12368D2
:10215000DB0708D5236962689A42DEBF302305F8A1
:10216000013C05F1FF35ACEB05032361CDF80080A0
:102170003B4603AA21463046FFF7F6FE01304DD11B
:102180004FF0FF3005B0BDE8F083394884F84510C2
:10219000136821681D1D1B6815600A060BD5CA0748
:1021A00044BF41F0200121601BB9226822F02002C7
:1021B00022601022B7E74D0648BF9BB2EFE76546A5
:1021C000B3FBF2F102FB1133C35C05F8013D0B4692
:1021D0000029F5D1B9E7136825686169181D1060F9
:1021E00028061B6801D5196002E06A06FBD5198034
:1021F000002323616546B9E71368191D11601D6846
:10220000626800212846FDF7EBFF08B1401B6060C3
:1022100063682361002384F84330A7E723692A46D3
:1022200039463046C0470130AAD023689B0713D4F3
:10223000E068039B9842B8BF1846A3E701234A46CB
:1022400039463046C04701309AD00135E368039AD9
:102250009B1AAB42F2DCEBE7002504F11909F5E724
:10226000002BACD1037884F8423004F142056CE7CE
:10227000012500081225000810B5431E0A449142AA
:1022800000D110BD11F8014B03F8014FF7E7884268
:1022900010B501EB020307D8421E99420AD011F88B
:1022A000014B02F8014FF8E78342F5D98118D21AA1
:1022B000D34200D110BD13F8014D01F8014DF7E7ED
:1022C00038B50546002945D051F8043C0C1F002BB9
:1022D000B8BFE41800F0D2F81F4A1368104633B9AB
:1022E000636014602846BDE8384000F0C8B8A342D7
:1022F0000CD921686218934204BF1A685B68636056
:1023000004BF521822600460ECE713465A680AB111
:10231000A242FAD919685818A0420BD1206801448A
:10232000581882421960DDD1106852685A60014421
:102330001960D7E702D90C232B60D3E72068211856
:102340008A4204BF11685268626004BF09182160A4
:102350005C60C7E738BD00BF9800002070B5CD1C99
:1023600025F0030508350C2D38BF0C25002D064639
:1023700001DBA94203D90C233360002070BD00F0BB
:102380007DF8214A1468214691B9204C23681BB975
:10239000304600F063F820602946304600F05EF8D1
:1023A000431C24D10C233360304600F068F8E4E786
:1023B0000B685B1B18D40B2B0FD90B60CD50CC18BE
:1023C000304600F05CF804F10B00231D20F00700FC
:1023D000C31AD3D05A42E250D0E78C424B6816BFA2
:1023E000636013600C46EBE70C464968CCE7C41CFD
:1023F00024F00304A04205D0211A304600F02EF844
:102400000130CFD02560DBE7980000209C00002041
:10241000F8B5074614460E4621B91146BDE8F84006
:10242000FFF79CBF22B9FFF74BFF25462846F8BDB2
:1024300000F026F8A0420FD221463846FFF78EFF63
:1024400005460028F2D031462246FFF715FF3146F7
:102450003846FFF735FFE9E73546E7E738B5064C7C
:102460000023054608462360FFF75EFB431C02D1AC
:10247000236803B12B6038BD3801002070477047D6
:1024800051F8043C181F002BBCBF0B58C0187047F4
:10249000F8B500BFF8BC08BC9E467047F8B500BF51
:0824A000F8BC08BC9E46704721
:1024A80002030405060708090A0B0C0D0E0F10108D
:1024B8000102030405060708090A0B0C0D0E0F108C
:1024C80000000000000000000102030406070809DC
:1024D8000000000001020304524820253264205401
:1024E80020253264200A0D00232D302B2000686C33
:1024F8004C0065666745464700303132333435361F
:102508003738394142434445460030313233343557
:0C25180036373839616263646566000084
:04252400C5010008E5
:04252800A101000805
:10252C00010000001000000000127A0010000020D2
:10253C00000000000000000000000000000000008F
:10254C00000000000000000000000000000000007F
:10255C00000000000000000000000000000000006F
:10256C00000000000000000000000000000000005F
:10257C00000000000000000000000000000000004F
:10258C00000000000000000000000000000000003F
:0400000508001BCD07
:00000001FF
