:020000040800F2
:1000000000000120393200080D3100080F310008CE
:1000100011310008133100081531000800000000FC
:100020000000000000000000000000001731000880
:1000300019310008000000001B3100081D310008C4
:1000400089320008893200088932000889320008A4
:100050008932000889320008893200088932000894
:100060008932000889320008893200088932000884
:100070008932000889320008893200088932000874
:100080008932000889320008893200088932000864
:100090008932000889320008893200088932000854
:1000A0008932000889320008893200088932000844
:1000B00025310008893200083531000889320008EE
:1000C0008932000889320008893200088932000824
:1000D0008932000889320008893200088932000814
:1000E0008932000889320008893200088932000804
:1000F00089320008893200088932000889320008F4
:100100008932000800000000000000008932000869
:1001100089320008893200088932000889320008D3
:1001200089320008893200088932000889320008C3
:100130008932000889320008000000000000000039
:100140008932000889320008893200080000000066
:10015000000000000000000000000000000000009F
:100160008932000889320008893200088932000883
:100170008932000889320008893200088932000873
:1001800089320008893200080000000000000000E9
:0401900089320008A8
:1001A00010B5054C237833B9044B13B10448AFF3B1
:1001B00000800123237010BD80000020000000009B
:1001C0001442000808B5034B1BB103490348AFF3C1
:1001D000008008BD000000008400002014420008D8
:1001E00001F0FF01102A2BDB10F0070F08D010F8E8
:1001F000013B013A8B422DD010F0070F42B3F6D1EC
:10020000F0B441EA012141EA014122F007047FF004
:1002100000070023F0E80256083C85EA010586EA5B
:10022000010685FA47F5A3FA87F586FA47F6A5FA97
:1002300087F68EB9EED1F0BC01F0FF0102F00702A3
:1002400032B110F8013B013A83EA010313B1F8D14E
:100250000020704701387047002D06BF354603382F
:10026000073815F0010F07D1013015F4807F02BF68
:10027000013015F4C03F0130F0BC0138704700BFB9
:1002800010B504460E4B18784FF47A73B3FBF0F3B5
:100290000C4A1068B0FBF3F000F08CF868B90F2C32
:1002A00001D901200AE0002221464FF0FF3000F082
:1002B00041F8034B5C60002000E0012010BD00BF4E
:1002C000000000201800002008B5074A136843F01A
:1002D00010031360032000F01BF80020FFF7D0FF8D
:1002E00002F022FE002008BD00200240034A1168EF
:1002F000034B1B780B441360704700BFC8000020FD
:1003000000000020014B1868704700BFC8000020A3
:10031000074AD36823F4E0631B041B0C000200F4BB
:10032000E060184340F0BF6040F40030D060704798
:1003300000ED00E030B4174BDB68C3F30223C3F1D8
:100340000704042C28BF04241D1D062D18D9033BC7
:100350004FF0FF3505FA04F421EA0401994005FA4B
:1003600003F322EA0303194300280BDB0901C9B296
:1003700000F1604000F5614080F8001330BC704728
:100380000023E5E700F00F000901C9B2024B195440
:10039000F4E700BF00ED00E014ED00E000F01F0204
:1003A000400901239340024A42F82030704700BFC1
:1003B00000E100E00138B0F1807F0AD2064B5860BE
:1003C000064AF02182F823100020986007221A6064
:1003D00070470120704700BF10E000E000ED00E032
:1003E000F0B482B0002336E0062400E00024B440DC
:1003F0003C430235614E46F82540614C2568D443A4
:1004000004EA05064F6817F4803F01D042EA05066A
:100410005B4D2E606D6804EA05064F6817F4003FD7
:1004200001D042EA0506564D6E60AD6804EA050645
:100430004F6817F4801F01D042EA0506504DAE60A8
:10044000ED682C404E6816F4001F01D042EA050406
:100450004B4AD46001330A6832FA03F400F08B800F
:1004600001249C402240F5D04D68022D01D0122D70
:1004700010D1DE08083650F826C003F00705AF009B
:100480000F25BD402CEA050C0D69BD4045EA0C0561
:1004900040F8265006685F000325BD40ED4305EA9D
:1004A000060C4E6806F00306BE4046EA0C060660DF
:1004B0004E6806F1FF3CBCF1010F03D9112E01D0AB
:1004C000122E10D1866805EA060CCE68BE4046EAB8
:1004D0000C068660466826EA04044E68C6F30016D9
:1004E0009E4026434660C46825408C68BC402C432F
:1004F000C4604C6814F0805FACD0224CA56945F014
:100500000105A561A46904F001040194019C9D0802
:10051000AE1C1A4C54F8267003F00304A6000F24F6
:10052000B44027EA0407B0F1904F3FF45FAF164C98
:10053000A04216D004F58064A04214D004F5806473
:10054000A04212D004F58064A04210D004F580646B
:10055000A0420ED004F58064A0423FF445AF0724CA
:1005600045E7012443E7022441E703243FE704244D
:100570003DE705243BE702B0F0BC704700000140B6
:1005800000040140001002400004004803691942C1
:1005900001D100207047012070470AB9816270477D
:1005A00081617047002800F0F98270B582B004467E
:1005B000036813F0010F3DD0B44B5B6803F00C03EC
:1005C000042B20D0B14B5B6803F00C03082B13D035
:1005D0006368B3F5803F6AD0002B40F08D8003F153
:1005E000804303F504331A6822F480321A601A68D3
:1005F00022F480221A605FE0A44B5B6803F4C033EE
:10060000B3F5803FE4D14FF4003393FAA3F39F4B4B
:1006100019684FF4003393FAA3F3B3FA83F303F0AA
:100620001F03012202FA03F30B4203D06368002B7D
:1006300000F0BC82236813F0020F00F0C180934BDE
:100640005B6813F00C0F00F09780904B5B6803F031
:100650000C03082B00F08880E368002B00F0EE808C
:10066000012292FAA2F3B3FA83F303F1845303F560
:1006700084139B001A60FFF745FE0546022393FA98
:10068000A3F3824B1968022393FAA3F3B3FA83F31B
:1006900003F01F03012202FA03F30B4240F0BF8074
:1006A000FFF730FE401B0228E8D9032085E2774A95
:1006B000136843F4803313606368002B36D0FFF770
:1006C00021FE05464FF4003393FAA3F36F4B1968EC
:1006D0004FF4003393FAA3F3B3FA83F303F01F0349
:1006E000012202FA03F30B42A4D1FFF70BFE401BD9
:1006F0006428E7D9032060E2B3F5A02F09D0634B4B
:100700001A6822F480321A601A6822F480221A6071
:10071000D2E703F18043A3F53C331A6842F4802208
:100720001A601A6842F480321A60C5E7FFF7EAFDE2
:1007300005464FF4003393FAA3F3544B19684FF472
:10074000003393FAA3F3B3FA83F303F01F030122F8
:1007500002FA03F30B423FF46DAFFFF7D3FD401BEA
:100760006428E6D9032028E2484B5B6803F4C033D1
:10077000B3F5004F7FF470AF022393FAA3F3434B1A
:100780001968022393FAA3F3B3FA83F303F01F0368
:10079000012202FA03F30B4204D0E368934201D032
:1007A00001200AE23948036823F0F8032169F8229E
:1007B00092FAA2F2B2FA82F201FA02F21343036051
:1007C000236813F0080F00F08D806369002B61D05F
:1007D000012191FAA1F2B2FA82F22D4B13449B004F
:1007E0001960FFF78FFD0546022393FAA3F293FAEF
:1007F000A3F293FAA3F2254A516A93FAA3F3B3FA48
:1008000083F303F01F03012202FA03F30B4269D1C1
:10081000FFF778FD401B0228E6D90320CDE11B48F5
:10082000036823F0F8032169F82292FAA2F2B2FADF
:1008300082F201FA02F213430360C1E7012393FA43
:10084000A3F3B3FA83F303F1845303F584139B00FA
:1008500000221A60FFF756FD0546022393FAA3F320
:100860000A4B1968022393FAA3F3B3FA83F303F054
:100870001F03012202FA03F30B42A1D0FFF742FD4E
:10088000401B0228E9D9032097E100BF0010024075
:1008900020819010012292FAA2F2B2FA82F2C04BA9
:1008A00013449B0000221A60FFF72CFD054602232B
:1008B00093FAA3F293FAA3F293FAA3F2B94A516A14
:1008C00093FAA3F3B3FA83F303F01F03012202FAAE
:1008D00003F30B4206D0FFF715FD401B0228E6D9B3
:1008E00003206AE1236813F0040F00F0B380AD4BDE
:1008F000DB6913F0805F20D1AA4BDA6942F08052A5
:10090000DA61DB6903F080530193019B0125A64B5B
:100910001B6813F4807F12D0A368012B23D073BB14
:1009200003F1804303F504331A6A22F001021A62CC
:100930001A6A22F004021A621AE00025E7E79A4ACE
:10094000136843F480731360FFF7DCFC0646964B94
:100950001B6813F4807FDFD1FFF7D4FC801B642871
:10096000F5D9032029E18F4A136A43F0010313628A
:10097000A368002B41D0FFF7C5FC06462BE0052BF2
:1009800009D0884B1A6A22F001021A621A6A22F010
:1009900004021A62ECE7834B1A6A42F004021A62FC
:1009A0001A6A42F001021A62E2E77E4B196A0223D8
:1009B00093FAA3F3B3FA83F303F01F03012202FABD
:1009C00003F3194245D1FFF79DFC801B41F28833A8
:1009D000984200F2ED80022393FAA3F293FAA3F374
:1009E000B3FA83F35B0943F00203022BDDD0022349
:1009F00093FAA3F36B4B596AD9E7FFF783FC0646DA
:100A000015E0684B196A022393FAA3F3B3FA83F350
:100A100003F01F03012202FA03F3194219D0FFF772
:100A200071FC801B41F28833984200F2C38002239C
:100A300093FAA3F293FAA3F3B3FA83F35B0943F0B7
:100A40000203022BDDD0022393FAA3F3554B596A1C
:100A5000D9E7B5BBA369002B00F0AE80514A5268BC
:100A600002F00C02082A00F0AA80022B2FD04FF0CF
:100A7000807393FAA3F3B3FA83F303F1845303F57A
:100A800084139B0000221A60FFF73CFC04464FF0E1
:100A9000007393FAA3F3434B19684FF0007393FA72
:100AA000A3F3B3FA83F303F01F03012202FA03F363
:100AB000194271D0FFF726FC001B0228E7D903205A
:100AC0007BE0384AD36923F08053D361C2E74FF00B
:100AD000807393FAA3F3B3FA83F303F1845303F51A
:100AE00084139B0000221A60FFF70CFC05464FF0B0
:100AF000007393FAA3F32B4B19684FF0007393FA2A
:100B0000A3F3B3FA83F303F01F03012202FA03F302
:100B1000194206D0FFF7F6FB401B0228E7D9032055
:100B20004BE0204AD36A23F00F03616A0B43D36280
:100B3000536823F47613216AE06901430B43536041
:100B40004FF0807393FAA3F3B3FA83F303F1845362
:100B500003F584139B0001221A60FFF7D3FB0446C0
:100B60004FF0007393FAA3F30E4B19684FF0007324
:100B700093FAA3F3B3FA83F303F01F03012202FAFB
:100B800003F3194206D1FFF7BDFB001B0228E7D98A
:100B9000032012E0002010E000200EE0012070474A
:100BA000208190100010024000700040012004E0FD
:100BB000032002E0032000E0002002B070BD01200D
:100BC000FBE700BF10B4184B5C6804F00C03082B63
:100BD00028D104F470124FF4701393FAA3F3B3FA0C
:100BE00083F322FA03F31149C85C0F4BDB6A03F06D
:100BF0000F030F2292FAA2F2B2FA82F2D3400B4410
:100C00001A7C14F4803F07D1094BB3FBF2F300FBCD
:100C100003F05DF8044B7047054BB3FBF2F300FBA8
:100C200003F0F6E70248F4E7001002402C42000807
:100C300000127A00002800F0C08070B50446614BB5
:100C40001B6803F007038B420CD25E4A136823F043
:100C500007030B431360136803F007038B4201D0B3
:100C6000012070BD236813F0020F06D0564A536866
:100C700023F0F003A068034353600D46236813F08C
:100C8000010F5AD06368012B2DD0022B40D00222D5
:100C900092FAA2F24C4A1068022292FAA2F2B2FA36
:100CA00082F202F01F02012101FA02F2104200F06A
:100CB000868045494A6822F0030213434B60FFF7E0
:100CC00021FB0646404B5B6803F00C036268B3EB04
:100CD000820F32D0FFF716FB801B41F28833984217
:100CE000F0D90320BDE74FF4003292FAA2F2364A5F
:100CF00010684FF4003292FAA2F2B2FA82F202F0D5
:100D00001F02012101FA02F20242D2D10120A8E71A
:100D10004FF0007292FAA2F22B4A10684FF0007264
:100D200092FAA2F2B2FA82F202F01F02012101FA53
:100D300002F21042BDD1012093E7224B1B6803F061
:100D40000703AB420CD91F4A136823F007032B4358
:100D50001360136803F00703AB4201D0012080E762
:100D6000236813F0040F06D0174A536823F4E06396
:100D7000E1680B435360236813F0080F07D0124A51
:100D8000536823F46053216943EAC1035360FFF7BA
:100D900019FF0D4B5B6803F0F003F02292FAA2F208
:100DA000B2FA82F2D340094AD35CD840084B1860AB
:100DB0000020FFF765FA002053E70120704701206B
:100DC0004FE700BF00200240001002404C420008E4
:100DD00018000020014B1868704700BF1800002061
:100DE00008B5FFF7F7FF074B5B6803F4E0634FF4C8
:100DF000E06292FAA2F2B2FA82F2D340024AD35CE3
:100E0000D84008BD001002405C42000808B5FFF75A
:100E1000E1FF074B5B6803F460534FF4605292FAB2
:100E2000A2F2B2FA82F2D340024AD35CD84008BDA3
:100E3000001002405C420008F0B583B0044603682D
:100E400013F4803F48D0A14BDB6913F0805F40F082
:100E500022819E4BDA6942F08052DA61DB6903F04D
:100E600080530193019B0125994B1B6813F4807FEC
:100E700000F01381954B1B6A13F4407322D0626813
:100E800002F440729A421DD09048016A21F44076E3
:100E90004FF4803393FAA3F2B2FA82F28D4F3A44C0
:100EA00092004FF0010CC2F800C093FAA3F3B3FA1A
:100EB00083F33B449B0000221A60066211F0010F8D
:100EC00040F00081814A136A23F4407361680B4348
:100ED0001362002D40F02881236813F0010F06D023
:100EE0007A4A136B23F00303A1680B43136323684F
:100EF00013F0020F06D0754A136B23F44033E168F8
:100F00000B431363236813F0040F06D06F4A136B6F
:100F100023F4402321690B431363236813F0200F4C
:100F200006D06A4A136B23F01003E1690B43136385
:100F3000236813F4003F06D0644A536823F4800307
:100F4000616D0B435360236813F0400F06D05F4A76
:100F5000136B23F02003216A0B431363236813F4FC
:100F6000802F06D0594A136B23F04003616A0B436C
:100F70001363236813F0080F06D0544A136B23F44D
:100F8000401361690B431363236813F0100F06D0FD
:100F90004E4A136B23F44003A1690B431363236888
:100FA00013F4007F06D0494A536823F40003216BF1
:100FB0000B435360236813F0800F06D0434AD36A73
:100FC00023F4F873A16A0B43D362236813F4807F80
:100FD00006D03E4AD36A23F47853E16A0B43D362C6
:100FE000236813F4805F06D0384A136B23F48073B0
:100FF000616B0B431363236813F4005F06D0334A1D
:10100000136B23F40073216C0B431363236813F4F5
:10101000801F06D02D4A136B23F08073A16B0B4306
:101020001363236813F4001F06D0284A136B23F0C0
:101030000073E16B0B431363236813F4800F06D036
:10104000224A136B23F48063616C0B4313632368A0
:1010500013F4000F06D01D4A136B23F40063A16C38
:101060000B431363236813F0807F06D0174A136B7A
:1010700023F40053E16C0B431363236813F0007FE8
:1010800059D0124A136B23F40043216D0B431363B1
:10109000002003B0F0BD0025E6E60D4A136843F4D6
:1010A00080731360FFF72EF90646094B1B6813F493
:1010B000807F7FF4DFAEFFF725F9801B6428F4D929
:1010C0000320E6E7FFF71EF906461BE0001002408A
:1010D0000070004000819010184B196A022393FAA7
:1010E000A3F3B3FA83F303F01F03012202FA03F31D
:1010F0000B427FF4E7AEFFF705F9801B41F288331E
:10110000984216D8022393FAA3F293FAA3F3B3FA00
:1011100083F35B0943F00203022BDDD0022393FA31
:10112000A3F3064B596AD9E7D36923F08053D361FF
:10113000D2E60320ADE70020ABE700BF001002407D
:1011400010B4036A046A24F001040462846924F080
:10115000F00444EA021223F00A030B4382610362A3
:101160005DF8044B704710B4036A23F01003036268
:101170008469036A24F4704444EA023223F0A00331
:1011800043EA0113826103625DF8044B7047836890
:1011900023F0700341F00701194381607047026832
:1011A000D36843F00103D3600268136843F001037E
:1011B000136000207047704770477047704710B544
:1011C000044603681A6912F0020F11D0DA6812F0AF
:1011D000020F0DD06FF002021A610123037703683A
:1011E0009B6913F0030F79D0FFF7E6FF0023237705
:1011F00023681A6912F0040F12D0DA6812F0040F93
:101200000ED06FF004021A610223237723689B69D2
:1012100013F4407F68D02046FFF7CEFF00232377EA
:1012200023681A6912F0080F12D0DA6812F0080F5A
:101230000ED06FF008021A61042323772368DB695C
:1012400013F0030F57D02046FFF7B6FF0023237794
:1012500023681A6912F0100F12D0DA6812F0100F1A
:101260000ED06FF010021A61082323772368DB6920
:1012700013F4407F46D02046FFF79EFF00232377DC
:1012800023681A6912F0010F03D0DA6812F0010F17
:101290003FD123681A6912F0800F03D0DA6812F088
:1012A000800F3DD123681A6912F4807F03D0DA6879
:1012B00012F0800F3BD123681A6912F0400F03D05F
:1012C000DA6812F0400F39D123681A6912F0200F42
:1012D00003D0DA6812F0200F37D110BDFFF76BFF93
:1012E0002046FFF76AFF81E72046FFF764FF2046AC
:1012F000FFF763FF92E72046FFF75DFF2046FFF709
:101300005CFFA3E72046FFF756FF2046FFF755FF97
:10131000B4E76FF001021A61204601F0A1FDB8E7C1
:101320006FF080021A61204600F03BFCBAE76FF4D0
:1013300080721A61204600F035FCBCE76FF0400275
:101340001A612046FFF73AFFBEE76FF020021A61EC
:10135000204600F025FCC0E70368324A904212D0D4
:10136000B0F1804F0FD0A2F5943290420BD002F52D
:101370008062904207D002F59632904203D002F587
:10138000E052904203D123F070034A681343254A88
:1013900090421ED0B0F1804F1BD0A2F59432904203
:1013A00017D002F58062904213D002F59632904237
:1013B0000FD002F5406290420BD002F5806290425D
:1013C00007D002F58062904203D002F5006290429D
:1013D00003D123F44073CA68134323F080034A699E
:1013E000134303608B68C3620B6883620D4B9842A2
:1013F00013D003F5006398420FD003F54063984281
:101400000BD003F58063984207D003F580639842C0
:1014100003D003F50063984201D10B6903630123F4
:1014200043617047002C0140A8B110B5044690F804
:101430003D305BB1022384F83D30211D2068FFF769
:101440008BFF012384F83D30002010BD80F83C3034
:1014500001F088FDEEE701207047A8B110B5044601
:1014600090F83D305BB1022384F83D30211D2068A7
:10147000FFF772FF012384F83D30002010BD80F893
:101480003C3001F0B7FDEEE70120704730B4036A4D
:1014900023F001030362036A4468826922F4803204
:1014A00022F073020D682A4323F002038D682B4358
:1014B000204DA84213D005F50065A8420FD005F5D0
:1014C0004065A8420BD005F58065A84207D005F518
:1014D0008065A84203D005F50065A84205D123F038
:1014E0000803CD682B4323F00403124DA84213D008
:1014F00005F50065A8420FD005F54065A8420BD060
:1015000005F58065A84207D005F58065A84203D09F
:1015100005F50065A84205D124F440754C692C43BB
:101520008D692C43446082614A684263036230BC27
:10153000704700BF002C014030B4036A23F0100351
:101540000362036A4468826922F0807222F4E642F0
:101550000D6842EA052223F020038D6843EA051353
:101560001B4DA84207D005F50065A84203D005F53C
:10157000E055A84206D123F08003CD6843EA051365
:1015800023F04003124DA84213D005F50065A84290
:101590000FD005F54065A8420BD005F58065A8423F
:1015A00007D005F58065A84203D005F50065A8427F
:1015B00007D124F440644D6944EA85048D6944EA06
:1015C0008504446082614A688263036230BC70476C
:1015D000002C014030B4036A23F480730362036A71
:1015E0004468C26922F4803222F073020D682A43F3
:1015F00023F400738D6843EA05231C4DA84207D0ED
:1016000005F50065A84203D005F5E055A84206D1CE
:1016100023F40063CD6843EA052323F48063134D6C
:10162000A84213D005F50065A8420FD005F5406526
:10163000A8420BD005F58065A84207D005F5806566
:10164000A84203D005F50065A84207D124F4405410
:101650004D6944EA05148D6944EA05144460C26189
:101660004A68C263036230BC704700BF002C01406F
:1016700030B4036A23F480530362036A4468C26986
:1016800022F0807222F4E6420D6842EA052223F439
:1016900000538D6843EA0533114DA84213D005F578
:1016A0000065A8420FD005F54065A8420BD005F5AE
:1016B0008065A84207D005F58065A84203D005F5EE
:1016C0000065A84204D124F480444D6944EA85149D
:1016D0004460C2614A680264036230BC704700BF64
:1016E000002C014010B4846824F47F4442EA0323B0
:1016F0000B43234383605DF8044B704790F83C3004
:10170000012B00F0828010B50446012380F83C30A4
:10171000022380F83D30026890683D4B034093609F
:101720000B68402B5DD010D9702B40D01FD8502BA8
:101730004DD0602B34D1CA6849682068FFF713FD8B
:1017400060212068FFF723FD2AE0102B53D008D931
:10175000202B55D0302B23D130212068FFF717FDE7
:101760001EE0EBB900212068FFF711FD18E0B3F58A
:10177000805F0ED0B3F5005F12D1CB684A688968EC
:101780002068FFF7AFFF2268936843F480439360BB
:1017900006E02268936823F4803323F00703936004
:1017A000012384F83D30002084F83C0010BDCB6854
:1017B0004A6889682068FFF795FF2268936823F4D8
:1017C000803323F0770343F077039360E8E7CA6838
:1017D00049682068FFF7B4FC50212068FFF7D7FC68
:1017E000DEE7CA6849682068FFF7AAFC4021206844
:1017F000FFF7CDFCD4E710212068FFF7C8FCCFE746
:1018000020212068FFF7C3FCCAE70220704700BF11
:101810008800FEFF10B4012303FA01F4036A23EAEF
:1018200004030362036A8A40134303625DF8044BB6
:101830007047000010B5044601220068FFF7EAFF78
:101840002368114A934213D002F5006293420FD0ED
:1018500002F5406293420BD002F58062934207D0BA
:1018600002F58062934203D002F50062934203D1F5
:101870005A6C42F400425A642268136843F0010330
:101880001360002010BD00BF002C014030B4036A7B
:1018900023F480330362036A4468426D22F4803289
:1018A00022F070020D682A4323F400338D6843EA66
:1018B0000543114DA84213D005F50065A8420FD08D
:1018C00005F54065A8420BD005F58065A84207D014
:1018D00005F58065A84203D005F50065A84204D14E
:1018E00024F480344D6944EA0524446042654A6822
:1018F0008265036230BC7047002C014030B4036A3B
:1019000023F480130362036A4468426D22F08072FC
:1019100022F4E0420D6842EA052223F400138D68A8
:1019200043EA0553114DA84213D005F50065A842BE
:101930000FD005F54065A8420BD005F58065A8429B
:1019400007D005F58065A84203D005F50065A842DB
:1019500004D124F480244D6944EA8524446042651E
:101960004A68C265036230BC704700BF002C01406A
:1019700038B590F83C30012B00F092800D460446BB
:10198000012380F83C30022380F83D30142A1ED811
:10199000DFE802F00B1D1D1D241D1D1D381D1D1D22
:1019A0004B1D1D1D5F1D1D1D72000068FFF76EFDA4
:1019B0002268936943F0080393612268936923F0D6
:1019C000040393612268936929690B43936101239E
:1019D00084F83D30002084F83C0038BD0068FFF7F3
:1019E000ABFD2268936943F40063936122689369B5
:1019F00023F48063936122689369296943EA012390
:101A00009361E4E70068FFF7E5FD2268D36943F0DE
:101A10000803D3612268D36923F00403D3612268E9
:101A2000D36929690B43D361D1E70068FFF720FE32
:101A30002268D36943F40063D3612268D36923F435
:101A40008063D3612268D369296943EA0123D361A2
:101A5000BDE70068FFF71AFF2268536D43F00803E3
:101A600053652268536D23F0040353652268536D58
:101A700029690B435365AAE70068FFF73FFF226817
:101A8000536D43F4006353652268536D23F4806300
:101A900053652268536D296943EA0123536596E72C
:101AA00002209AE790F83C30012B26D030B4012375
:101AB00080F83C30026853689568114CA24207D008
:101AC00004F50064A24203D004F5E054A24203D11D
:101AD00023F470034C68234323F070030C68234302
:101AE00025F08004896821435360036899600023CE
:101AF00080F83C30184630BC70470220704700BF69
:101B0000002C014090F83C30012B45D010B401234B
:101B100080F83C30CB6823F440738A68134323F485
:101B200080634A68134323F400630A68134323F471
:101B300080530A69134323F400534A69134323F47F
:101B400080438A6A134323F40043134323F470232E
:101B50008A6943EA02430268104CA24207D004F5A6
:101B60000064A24203D004F5E054A2420CD123F455
:101B700070034C6A43EA045323F08073CC69234317
:101B800023F00073096A0B435364002380F83C3050
:101B900018465DF8044B704702207047002C014046
:101BA000704770477047000010B5044683680269AB
:101BB000134342691343C2691343016808689C4A8E
:101BC000024013430B602268536823F44053E168DA
:101BD0000B435360A369226A1A4321688B6823F47C
:101BE000306313438B602368924A93421FD0924A1A
:101BF00093422FD0914A934246D0914A93425DD06E
:101C0000904A934274D01022E169B1F5004F00F080
:101C10008B80082A00F20A81DFE812F0CE00DA0099
:101C2000E6000801F200080108010801FE0002F5C3
:101C30005842126B02F00302032A09D8DFE802F0CF
:101C4000020406720122DFE70422DDE70822DBE757
:101C50001022D9E702F5E632126B02F44032B2F5F7
:101C6000803F0BD007D9B2F5003F09D0B2F5403F15
:101C700008D10222C8E72AB90022C5E70422C3E737
:101C80000822C1E71022BFE702F5E432126B02F42A
:101C90004022B2F5802F0BD007D9B2F5002F09D022
:101CA000B2F5402F08D10222AEE72AB90022ABE7F5
:101CB0000422A9E70822A7E71022A5E702F5E232ED
:101CC000126B02F44012B2F5801F0BD007D9B2F5A7
:101CD000001F09D0B2F5401F08D1022294E72AB9AB
:101CE000002291E704228FE708228DE710228BE77C
:101CF00002F5E032126B02F44002B2F5800F0BD015
:101D000007D9B2F5000F09D0B2F5400F08D1022271
:101D10007AE72AB9002277E7042275E7082273E7F9
:101D2000102271E702226FE7082A42D8DFE802F0AA
:101D3000051722412D4141413800FFF751F86268F3
:101D4000530803EB4003B3FBF2F39BB2002023F0F4
:101D50000F02C3F3420313432268D36010BDFFF7A1
:101D600055F86268530803EB4003B3FBF2F39BB2F0
:101D70000020ECE76268530803F5740303F5105381
:101D8000B3FBF2F39BB20020E1E7FEF71BFF6268B2
:101D9000530803EB4003B3FBF2F39BB20020D6E7FA
:101DA0006268530803F58033B3FBF2F39BB2002063
:101DB000CDE701200023CAE7FFF712F8636800EBC4
:101DC0005300B0FBF3F0236880B2D8600020C5E771
:101DD000FFF71CF8636800EB5300B0FBF3F02368D7
:101DE00080B2D8600020B9E761684A0802F5F402C1
:101DF00002F59052B2FBF1F292B2DA600020ADE748
:101E0000FEF7E0FE636800EB5300B0FBF3F02368DD
:101E100080B2D8600020A1E761684A0802F500425C
:101E2000B2FBF1F292B2DA60002097E7012095E769
:101E3000F369FFEF003801400044004000480040D3
:101E4000004C004000500040436A13F0010F06D0E0
:101E50000268536823F40033816A0B435360436A7A
:101E600013F0020F06D00268536823F48033C16A6E
:101E70000B435360436A13F0040F06D002685368A3
:101E800023F48023016B0B435360436A13F0080F64
:101E900006D00268536823F40043416B0B43536040
:101EA000436A13F0100F06D00268936823F480533E
:101EB000816B0B439360436A13F0200F06D00268D6
:101EC000936823F40053C16B0B439360436A13F090
:101ED000400F0AD00268536823F48013016C0B434F
:101EE0005360036CB3F5801F0BD0436A13F0800F6F
:101EF00006D00268536823F40023816C0B435360BF
:101F000070470268536823F4C003416C0B4353606D
:101F1000EBE72DE9F04105460F4616469846069C2C
:101F20002B68DB6937EA03030CBF01230023B342AC
:101F30001DD1B4F1FF3FF3D02CB1FEF7E3F9A0EBD4
:101F40000800A042ECD92A68136823F4D073136008
:101F50002A68936823F001039360202385F8693091
:101F600085F86A30002385F86830032000E00020FF
:101F7000BDE8F0812DE9F04182B01E4690F869304D
:101F8000DBB2202B4ED104460D46904600294ED0A0
:101F9000002A4ED090F86830012B4CD0012380F8F5
:101FA00068300023C366212380F86930FEF7AAF960
:101FB0000746A4F85080A4F8528003E023682A78EA
:101FC0001A850135B4F852309BB2DBB1B4F8523007
:101FD000013B9BB2A4F8523000963B460022802180
:101FE0002046FFF796FF40BBA368B3F5805FE5D1BD
:101FF0002369002BE2D1226835F8023BC3F30803C2
:102000001385DFE700963B46002240212046FFF77C
:1020100080FF034698B9202284F86920002284F8C2
:10202000682000E00223184602B0BDE8F0810123D9
:10203000F9E70123F7E70223F5E70323F3E7032397
:10204000F1E72DE9F04182B01E4690F86A30DBB22C
:10205000202B71D104460D469046002970D0002AED
:1020600070D090F86830012B6ED0012380F8683072
:102070000023C366222380F86A30FEF743F907463F
:10208000A4F85880A4F85A80A368B3F5805F06D0FE
:10209000A3B9236973B9FF23A4F85C3011E0236965
:1020A00023B940F2FF13A4F85C300AE0FF23A4F840
:1020B0005C3006E07F23A4F85C3002E0B3F1805F7F
:1020C00002D0B4F85C8010E023691BB97F23A4F828
:1020D0005C30F6E73F23A4F85C30F2E723689A8C83
:1020E0005FFA88F313402B700135B4F85A309BB275
:1020F000DBB1B4F85A30013B9BB2A4F85A300096D9
:102100003B46002220212046FFF703FFF0B9A368D9
:10211000B3F5805FE2D12369002BDFD123689B8C6C
:1021200008EA030325F8023BDFE7202384F86A303E
:10213000002084F8680000E0022002B0BDE8F081D1
:102140000120FAE70120F8E70220F6E70320F4E790
:1021500030B583B004460023C366FEF7D3F80546C6
:1021600023681B6813F0080F0ED123681B6813F057
:10217000040F17D1202384F8693084F86A300020D6
:1021800084F8680003B030BD6FF07E4300930346CF
:1021900000224FF400112046FFF7BBFE0028E4D0D8
:1021A0000320EFE76FF07E4300932B4600224FF4AD
:1021B00080012046FFF7ADFE0028DBD00320E1E7D9
:1021C00078B310B5044690F869300BB3242384F833
:1021D00069302268136823F0010313602046FFF77B
:1021E000E3FC012813D0636ABBB92268536823F467
:1021F000904353602268936823F02A039360226817
:10220000136843F0010313602046FFF7A1FF10BDE0
:1022100080F8683000F048FFD8E72046FFF714FE4A
:10222000E3E701207047000070B58AB000240594F0
:102230000694079408940994274B5A6942F40022A3
:102240005A615A6902F400220192019A5A6942F4D1
:1022500080025A615A6902F480020292029A5A6913
:1022600042F400325A615A6902F400320392039A2E
:102270005A6942F480225A615B6903F48023049313
:10228000049B224620214FF09040FEF786F9134E22
:10229000224601213046FEF780F94FF400530593A2
:1022A0000F4B0693079405A90E48FEF799F82023D3
:1022B0000593012506950794089405A94FF09040D1
:1022C000FEF78EF8059506950794089405A9304603
:1022D000FEF786F80AB070BD001002400004004806
:1022E000000021100008004808B50948094B0360A8
:1022F0004FF4E133436000238360C36003610C2229
:1023000042618361C36103624362FFF759FF08BD05
:10231000CC0100200044004030B589B00024049472
:102320000594069407940194029403940E4D4FF083
:1023300080432B6047236B60AC6040F2E733EB6077
:102340002C61AC612846FFF76FF84FF4805304937B
:1023500004A92846FFF7D2F90194039401A928465D
:10236000FFF7A0FB09B030BD8C01002030B589B06B
:102370000024049405940694079401940294039411
:102380000D4D0E4B2B606C60AC604723EB602C61F5
:10239000AC612846FFF748F84FF48053049304A932
:1023A0002846FFF7ABF90194039401A92846FFF7EB
:1023B00079FB09B030BD00BFCC0000200008004010
:1023C00030B59BB000241694179418941994139464
:1023D000149415940C940D940E940F9410941194DD
:1023E00012942C22214601A800F07AFF274D284B99
:1023F0002B6040F29F536B60AC606323EB602C61F9
:102400006C61AC612846FFF70FF84FF480531693C8
:1024100016A92846FFF772F92846FFF71EF813940D
:102420001494159413A92846FFF73CFB60230C93E2
:102430000D940E940F9410941194129422460CA9AA
:102440002846FFF795FA04220CA92846FFF790FAD0
:102450000C220CA92846FFF78BFA019402940394EE
:10246000049405944FF400530693079408944FF096
:10247000007309930A940B9401A92846FFF742FBC5
:10248000284600F0CDFD1BB030BD00BF4C01002040
:10249000002C014030B58BB00024079408940994B7
:1024A0000094019402940394049405940694144DAA
:1024B000144B2B6040F29F536B60AC606323EB6066
:1024C0002C61AC612846FEF7C8FF0794099407A960
:1024D0002846FFF7E7FA60230093019402940494DE
:1024E000224669462846FFF743FA042269462846F1
:1024F000FFF73EFA284600F093FD0BB030BD00BF59
:102500000C0100200004004030B5A7B024220021B7
:102510001DA800F0E5FE00241794189419941A944D
:102520001B945822214601A800F0DAFE02251C95D2
:1025300001231F931023209322954FF400432393EC
:102540004FF4E01324931CA8FEF72CF80F231793E5
:10255000189519944FF480631A931B94294617A871
:10256000FEF768FB054B019304940E940F941094AE
:1025700001A8FEF761FC27B030BD00BF021030009B
:1025800010B5134C00212046FFF754F904212046D2
:10259000FFF750F90C212046FFF74CF90D4C0021B4
:1025A0002046FFF747F904212046FFF743F90A4A7E
:1025B0004B23137009494B6353708B6393700B6407
:1025C000D370A1F594314B6313718B6310BD00BFC1
:1025D0004C0100200C01002008000020002C0140CC
:1025E00008B5013804280BD8DFE800F0030B131BF3
:1025F0002300144B1970144B5963144800F078FEF3
:1026000008BD104B5970104B9963114800F070FED3
:10261000F6E70C4B99700C4B19640E4800F068FEFD
:10262000EEE7084BD9700C4B59630C4800F060FE84
:10263000E6E7044B1971084A9163D978084800F01D
:1026400057FEDDE708000020002C0140644200082E
:102650007C4200089442000800040040AC4200089C
:10266000C442000808B5094800F0CAFE084800F056
:102670003FFE084800F03CFE074800F0C1FE074856
:1026800000F036FE064800F0BBFE08BDDC42000844
:10269000F4420008004300080C43000818430008F7
:1026A0002443000808B5144800F0AAFE134800F0BF
:1026B000A7FE134800F0A4FE124800F0A1FE124845
:1026C00000F09EFE114800F09BFE114800F098FEBD
:1026D000104800F095FE104800F092FE0F4800F000
:1026E0008FFE0F4800F08CFE0E4800F089FE0E4869
:1026F00000F086FE08BD00BF3043000848430008D4
:10270000584300088C430008C8430008F8430008F9
:102710001C44000840440008644400088044000849
:10272000A0440008C0440008DC44000808B5FFF7D6
:1027300099FFFFF7B7FF08BD08B5FDF7C5FDFFF727
:10274000E3FEFFF771FDFFF7CFFDFFF7E5FDFFF7B4
:102750000DFEFFF735FEFFF79DFE074800F050FE27
:10276000FFF7E4FFFFF70CFF0448FEF718FD0448ED
:10277000FEF715FDFEE700BFFC4400088C010020B9
:10278000CC00002008B50A4B5B79012B01D03BB18E
:1027900008BD074B00225A71064800F031FEF7E7EA
:1027A000034B01225A71044800F02AFEF0E700BFF3
:1027B000080000201045000860450008904B1B6889
:1027C000DB6913F0200F00D1704710B582B064238D
:1027D00001220DF107018A48FFF733FC894B1B7872
:1027E000012B00F0818023B1022B00F0968002B013
:1027F00010BD9DF8071073291DD03F2935D06329DE
:1028000036D0652948D070295AD0762906D0682953
:1028100004D0A1F13103DBB2042B5FD87A4B1B89C2
:10282000002B50D0794800F0EBFD774B19897848A0
:1028300000F05EFDDBE7774800F05AFD714C4B215C
:1028400061700120FFF7CCFE61780220FFF7C8FE1F
:1028500061780320FFF7C4FE61780420FFF7C0FE13
:1028600061780520FFF7BCFEC1E7FFF75FFFBEE719
:10287000644B9B78012B08D0002BB8D1614B01220F
:102880009A70654800F0BCFDB1E75E4B00229A707B
:10289000624800F0B5FDAAE75B4B9B79012B08D09D
:1028A000002BA4D1584B01229A715D4800F0A8FD7D
:1028B0009DE7554B00229A715A4800F0A1FD96E71A
:1028C000FFF760FF93E74F4CE170524800F010FDB6
:1028D000554800F095FD0123237088E7534800F028
:1028E0008FFDFFF7DFFE82E79DF80700A0F13503BB
:1028F000DBB2042B06D94E4800F082FD4D4800F0B3
:10290000F7FC74E73F4C00EB800253002033637008
:1029100000F006FD0223237069E79DF80710A1F17E
:102920003003DBB2092B06D9414800F069FD41486C
:1029300000F0DEFC5BE7334C63780B44303B6370A4
:10294000344800F0D5FCE378313B452B31D8DFE843
:1029500003F03E444A507330303030303030303045
:102960003030303030303030303030303030303067
:102970003030303030303030303030303030303057
:102980003030303030303030303430303030303043
:1029900030303030303030231A4C61780120FFF76E
:1029A0001FFE61780220FFF71BFE61780320FFF70E
:1029B00017FE144B00221A7019E7124C617804209C
:1029C000FFF70EFE61780520FFF70AFEF1E70D4BD9
:1029D00059780120FFF704FEEBE70A4B59780220F3
:1029E000FFF7FEFDE5E7074B59780320FFF7F8FDF9
:1029F000DFE7044B59780420FFF7F2FDD9E700BF69
:102A0000CC0100209C000020080000204446000863
:102A100064460008B0450008D4450008B4450008E5
:102A20001C460008F0450008744600088846000867
:102A3000A0460008B4460008024B59780520FFF76D
:102A4000CFFDB6E79C00002000B587B000230393BC
:102A50000493059301230193029301A90248FDF712
:102A6000BFFC07B05DF804FB0004004800B587B068
:102A70000023029303930493059301230193064BD0
:102A80005B79012B06D001A90448FDF7A9FC07B02A
:102A90005DF804FB0393F6E70800002000040048FB
:102AA00008B5124B9B7A012B02D0022B0ED008BD29
:102AB000FFF7CAFF002201210D48FDF76EFD0D4B07
:102AC00001221A71094B02229A72F0E7094B9B68A6
:102AD000112BECD9FFF7CAFF064B00221A719A603E
:102AE000024B01229A720222DA72E0E7080000200B
:102AF000000400489C00002008B5404B1B7B013BB4
:102B0000042B0AD8DFE803F0030A18414F003C4BBE
:102B100001221A73394B02221A7308BD384B1B6904
:102B2000272BFAD9364B00221A73012119711A6129
:102B3000324B03221A73F0E701213248FDF726FDDC
:102B400090B12F4B9B68B3F57A7FE6D92C4B0022CE
:102B50001A719A60294B01221A739B7993420DD006
:102B6000264B0122DA72D8E7254B01221A73002284
:102B70001A719A60214B04221A73CEE7224800F0A2
:102B80003FFC224800F03CFCEAE71D4B1B694F2B41
:102B9000C3D91B4B00221A73012119711A61174BFB
:102BA00005221A73B9E701211648FDF7EFFC012849
:102BB00012D0134B9B68B3F57A7FAED9104B00222D
:102BC0001A719A600D4B01221A739B7993420DD0B2
:102BD0000A4B0122DA72A0E7094B00221A719A60AF
:102BE000064B01221A730322DA7296E7064800F0B8
:102BF00007FC074800F004FCEAE700BF08000020DB
:102C00009C00002000040048D8460008F046000858
:102C10001447000810B5654B1B7D072B00F294800C
:102C2000634B5B7B013B032B09D8DFE803F0020910
:102C300033635E4B01221A715D4B02225A7310BD41
:102C400001215C48FDF7A2FC012812D0574B9B687C
:102C5000B3F57A7FF3D9554B00221A719A60544B21
:102C600001225A739B7993420DD0514B0122DA72A3
:102C7000E5E74E4B00221A719A6001221A734C4B01
:102C800003225A73DBE74C4800F0BAFB4B4800F0D4
:102C9000B7FBEAE7454B1B69272BD0D9434B0022F2
:102CA0001A731A6101214348FDF770FC88B93F4B44
:102CB000197DC1F10701012202FA01F15A7D22EAD0
:102CC00001025A75394B01221A71394B04225A7389
:102CD000B5E701213748FDF759FC0128F2D1334B04
:102CE000197DC1F10701012202FA01F15A7D0A435F
:102CF0005A75E7E701212F48FDF748FC90B12B4BAF
:102D00009B68B3F57A7F9AD9284B00221A719A6092
:102D1000274B01225A739B7993420ED0244B0122F8
:102D2000DA728CE7214B1A7D01321A75204A012193
:102D3000517300221A719A6081E71F4800F060FB0E
:102D40001F4800F05DFBE9E7184C617D1D4800F06D
:102D5000CFFA00232375A37D042B3FF670AFDFE885
:102D600003F003090F151B00104B5A7DDA75012281
:102D70009A7564E70D4B5A7D1A7602229A755EE7C2
:102D80000A4B5A7D5A7603229A7558E7074B5A7DAB
:102D90009A7604229A7552E7044B5A7DDA7600221D
:102DA0009A75034B0422DA7249E700BF9C000020A9
:102DB0000800002000040048D846000838470008F2
:102DC0005447000870470008164B9B7B012B02D02C
:102DD000022B17D0704710B51348C47EC17D037E07
:102DE0000B44427E1344807E03449C4206D00E4B2B
:102DF00001221A710B4B02229A7310BD0B4800F08E
:102E000077FAF4E7084B9B68B3F57A7F08D3064B53
:102E100000221A719A60034B01229A73DA7270478A
:102E2000704700BF080000209C0000207447000885
:102E300008B50A4BDB7A013B032B05D8DFE803F02A
:102E40000205080BFFF72CFE08BDFFF755FEFBE758
:102E5000FFF7E0FEF8E7FFF7B7FFF5E7080000200F
:102E600008B50368B3F1804F03D0164A934217D0D8
:102E700008BD154B1B79012B0DD0144B1B89002B62
:102E8000F6D0013B9BB2114A1381002BF0D11048C0
:102E900000F0B6FAECE70C4A936801339360ECE774
:102EA000094B1B7B012B08D0FFF788FC064B9B7856
:102EB000012BDDD1FFF7BCFFDAE7034A13690133C9
:102EC0001361F1E7000800409C000020080000208A
:102ED0008C47000810B582B002AC04F8010D012245
:102EE00020214FF09040FDF758FB01231A46214660
:102EF0000548FFF73FF8002220214FF09040FDF7F2
:102F00004CFB02B010BD00BFCC01002010B5044640
:102F10000A2804D0E0B2FFF7DDFF204610BD0D20E7
:102F2000FFF7D8FFF6E7000000B583B00C4B9A69B5
:102F300042F001029A619A6902F001020092009A3D
:102F4000DA6942F08052DA61DB6903F08053019361
:102F5000019B0720FDF7DCF903B05DF804FB00BF1F
:102F60000010024000B585B003681F4A934208D0A4
:102F7000B3F1804F10D01D4A934221D005B05DF8C7
:102F800004FB1B4B9A6942F400629A619B6903F44B
:102F900000630193019BF1E703F50433DA6942F022
:102FA0000102DA61DB6903F001030293029B002254
:102FB00011461C20FDF7BEF91C20FDF7EFF9DDE7F7
:102FC0000B4BDA6942F00402DA61DB6903F00403B7
:102FD0000393039B002211461E20FDF7ABF91E2030
:102FE000FDF7DCF9CAE700BF002C014000080040F3
:102FF000001002400268094B9A4200D0704782B02C
:1030000003F50333DA6942F00202DA61DB6903F0A7
:1030100002030193019B02B0704700BF000400400F
:1030200000B589B000230393049305930693079397
:103030000368194A934205D0184A934216D009B042
:103040005DF804FB164B5A6942F400225A615B6931
:1030500003F400230193019B0B23039302230493A6
:10306000079303A90F48FDF7BBF9E8E70C4B5A6932
:1030700042F400325A615B6903F400330293029B0D
:103080005023039302230493079303A94FF0904026
:10309000FDF7A6F9D3E700BF002C01400004004073
:1030A000001002400008004800B589B000230393D7
:1030B00004930593069307930268134B9A4202D038
:1030C00009B05DF804FB03F5E633DA6942F4003237
:1030D000DA61DA6902F400320192019A5A6942F423
:1030E00000325A615B6903F400330293029B0C23A4
:1030F0000393022304930723079303A94FF09040FF
:10310000FDF76EF9DCE700BF004400407047FEE7C2
:10311000FEE7FEE7FEE770477047704708B5FDF72A
:10312000E5F808BD08B50248FEF749F808BD00BF3C
:103130008C01002008B50248FEF741F808BD00BF29
:10314000CC00002070B50D461646002404E0AFF315
:103150000080287001340135B442F8DB304670BD80
:1031600070B51646002405E04D1C0878FFF7CEFE2A
:1031700001342946B442F7DB304670BD08B503463A
:103180000B4A126842B10A4A106803446A469342E5
:1031900006D8074A136008BD054A06491160F2E7E0
:1031A00000F074F80C2303604FF0FF30F3E700BF2A
:1031B000B8000020400200204FF0FF3070474FF46D
:1031C00000534B600020704701207047002070477B
:1031D0001549D1F8883043F47003C1F88830134B97
:1031E0001A6842F001021A605868114A02405A6097
:1031F0001A6822F0847222F480321A601A6822F46B
:1032000080221A605A6822F4FE025A60DA6A22F0BA
:103210000F02DA62186B074A02401A6300229A60B2
:103220004FF000638B60704700ED00E0001002403B
:103230000CC07FF8CCFC00FFDFF834D0002103E0A5
:103240000C4B5B58435004310B480C4B42189A42CC
:10325000F6D30B4A02E0002342F8043B094B9A42A2
:10326000F9D3FFF7B5FF00F017F8FFF765FAFEE7AF
:10327000000001203C4800080000002080000020E1
:103280008000002040020020FEE70000014B18688B
:10329000704700BF1C00002070B50D4E0D4CA41BE4
:1032A000A4100025A54209D10B4E0C4C00F0B2FF32
:1032B000A41BA4100025A54205D170BD56F82530E9
:1032C00098470135EEE756F8253098470135F2E783
:1032D00034480008344800083448000838480008DA
:1032E00002440346934200D1704703F8011BF9E7FB
:1032F0000FB40A4B13B51C6824B1A36913B9204657
:1033000000F036FA05AB049AA1680193204600F05C
:10331000EFFB02B0BDE8104004B070471C00002075
:1033200038B5084B1C68054624B1A36913B920467B
:1033300000F01EFAA26829462046BDE8384000F099
:1033400075BE00BF1C00002070B50E46054618B1C2
:1033500083690BB900F00CFAAB69AC6813B9284665
:1033600000F006FA234B9C4217D16C68A3891B0717
:103370001DD52369DBB1013EA36816F8011F013B8F
:10338000A360E9B9002B2EDA22460A21284600F074
:103390003FF8013011D00A2011E0174B9C4201D1B7
:1033A000AC68E3E7154B9C4208BFEC68DEE72146BA
:1033B000284600F07FF80028DDD04FF0FF3070BDC8
:1033C000002B04DAA2699A4206DC0A2904D0236899
:1033D0005A1C22601970CFE72246284600F018F8E0
:1033E0000130C9D1E9E723680A205A1C226018700D
:1033F000E5E700BFC0470008E0470008A047000815
:10340000024B01461868FFF79FBF00BF1C00002059
:10341000F8B50E461446054618B183690BB900F09D
:10342000A7F9214B9C422AD16C68A369A360A389A8
:103430001A072ED5236963B323692068C01A63690C
:10344000F6B28342374604DC2146284600F026F9CE
:1034500028BBA368013BA36023685A1C22601E702E
:1034600063690130834204D0A389DB0719D50A2E92
:1034700017D12146284600F011F990B10FE00B4B0F
:103480009C4201D1AC68D0E7094B9C4208BFEC6874
:10349000CBE72146284600F00DF80028CCD04FF0AD
:1034A000FF373846F8BD00BFC0470008E0470008B6
:1034B000A0470008324B70B51D6806460C4625B182
:1034C000AB6913B9284600F053F92E4B9C420FD13B
:1034D0006C68B4F90C309AB215072CD4D00611D40C
:1034E0000922326043F04003A3814FF0FF303EE0F9
:1034F000254B9C4201D1AC68EBE7244B9C4208BFB2
:10350000EC68E6E7510712D5616B41B104F1440361
:10351000994202D0304600F019FA00236363A38970
:1035200023F02403A3810023636023692360A3891C
:1035300043F00803A38123694BB9A38903F42073E3
:10354000B3F5007F03D02146304600F0BFF9A289D1
:1035500012F001030CD00023A36063695B42A361F6
:10356000236953B9B4F90C3013F08000BAD170BD9F
:10357000920758BF6369A360F2E70020F7E700BF36
:103580001C000020C0470008E0470008A0470008D2
:103590008A892DE9F041054610070C4658D44B683E
:1035A000002B05DC0B6C002B02DC0020BDE8F08159
:1035B000E66A002EF9D0002312F480522F68216AA7
:1035C0002B6032D0606DA3895A0705D56368C01A95
:1035D000636B0BB1236CC01A00230246E66A216AB2
:1035E0002846B047431CA38906D129681D2948D81D
:1035F000294ACA40D60744D500226260D90422690C
:10360000226004D5421C01D12B6803B96065616B4F
:103610002F600029C9D004F14403994202D0284602
:1036200000F094F900206063C0E701232846B0470A
:10363000411CC8D12B68002BC5D01D2B01D0162BE7
:1036400001D12F60B1E7A38943F04003A381ADE727
:103650000F69002FA9D093070E6808BF4B690F6050
:1036600018BF0023A6EB07088B60B8F1000F9CDDA4
:1036700043463A46216AA66A2846B047002806DC37
:10368000A38943F04003A3814FF0FF308EE7074446
:10369000A8EB0008E9E700BF0100402038B50B693E
:1036A00005460C46DBB118B183690BB900F060F830
:1036B0000C4B9C4209D16C68B4F90C307BB12146AB
:1036C0002846BDE83840FFF763BF074B9C4201D155
:1036D000AC68F1E7054B9C4208BFEC68ECE70020C2
:1036E00038BD00BFC0470008E0470008A0470008F9
:1036F000002310B50446C0E900338360818143662E
:10370000C281C0E904338361194608225C30FFF7A7
:10371000E7FD054B6362054BA362054BE362054B76
:103720002462236310BD00BFB9400008DB400008DD
:103730001341000837410008014900F085B800BF77
:103740009D36000870B54A1E682555430E4605F1A2
:10375000740100F049F9044640B10021C0E90016A7
:103760000C30A06005F16802FFF7BAFD204670BD7D
:10377000836910B5044633BBC0E912330365124BAD
:10378000124A1B688262984204BF0123836100F0E1
:103790001FF86060204600F01BF8A060204600F093
:1037A00017F80022E06004216068FFF7A1FF012202
:1037B0000921A068FFF79CFF02221221E068FFF7B1
:1037C00097FF0123A36110BD9C470008393700080B
:1037D000F8B51B4B1E68B369074613B93046FFF7AF
:1037E000C7FF4836D6E90134013B03D5336833B10E
:1037F0003668F7E7B4F90C506DB16834F4E704218A
:103800003846FFF79FFF30600028F1D10C233B6062
:1038100004462046F8BD0B4B6566C4E90055A5601B
:10382000C4E90335C4E905550822294604F15C00C2
:10383000FFF756FDC4E90D55C4E91255E9E700BF8D
:103840009C4700080100FFFF2DE9F84380468946A8
:1038500000F14804002614B93046BDE8F883D4E9E5
:103860000175013F01D52468F5E7AB89012B07D924
:10387000B5F90E30013303D029464046C847064308
:103880006835EEE770B50E46B1F90E10002996B016
:1038900014461D4607DA00232B60B3891A0610D49C
:1038A0004FF480630EE06A4600F06CFC0028F2DB07
:1038B000019A02F47042A2F500535A425A412A601A
:1038C000EEE740230020236016B070BD8B8973B5EE
:1038D0009D0706460C4607D504F147032360236184
:1038E0000123636102B070BD01AB6A46FFF7CAFFF6
:1038F00000990546304600F077F848B9B4F90C3025
:103900009A05EFD423F0030343F00203A381E3E716
:103910000D4BB362A389206043F08003A381009B19
:103920006361019B20615BB1B4F90E10304600F079
:103930003BFC28B1A38923F0030343F00103A381D7
:10394000A3891D43A581CDE73937000838B5054661
:10395000002945D051F8043C0C1F002BB8BFE418D7
:1039600000F044FC1F4A1368104633B963601460CA
:103970002846BDE8384000F03ABCA3420CD9216883
:103980006218934204BF1A685B68636004BF5218F0
:1039900022600460ECE713465A680AB1A242FAD9E1
:1039A00019685818A0420BD1206801445818824267
:1039B0001960DDD1106852685A6001441960D7E778
:1039C00002D90C232B60D3E7206821188A4204BF58
:1039D00011685268626004BF091821605C60C7E723
:1039E00038BD00BFC000002070B5CD1C25F0030518
:1039F00008350C2D38BF0C25002D064601DBA942E9
:103A000003D90C233360002070BD00F0EFFB214A86
:103A10001468214691B9204C23681BB9304600F048
:103A20003BFB20602946304600F036FB431C24D186
:103A30000C233360304600F0DAFBE4E70B685B1BD5
:103A400018D40B2B0FD90B60CD50CC18304600F09A
:103A5000CEFB04F10B00231D20F00700C31AD3D0C6
:103A60005A42E250D0E78C424B6816BF6360136045
:103A70000C46EBE70C464968CCE7C41C24F0030471
:103A8000A04205D0211A304600F006FB0130CFD00D
:103A90002560DBE7C0000020C40000209368013BE4
:103AA000002B10B4936008DA9469A34201DB0A2961
:103AB00003D15DF8044BFFF7ABBC1368581C1060D2
:103AC000197008465DF8044B7047F8B506460F4676
:103AD0001446D518AC4201D1002007E03A4614F84C
:103AE000011B3046FFF7DAFF431CF3D1F8BD00009D
:103AF0002DE9F04F0C469DB017461D46064618B1FD
:103B000083690BB9FFF734FE7C4B9C4258D1746833
:103B1000A38918075ED52369002B5BD00023099386
:103B200020238DF8293030238DF82A3003954FF06B
:103B3000010BB846454615F8013B0BB1252B54D176
:103B4000B8EB070A0BD053463A4621463046FFF7FA
:103B5000BCFF013000F0C280099B5344099398F8E0
:103B60000030002B00F0BA8000234FF0FF32CDE987
:103B70000523049307938DF853301A93A846052222
:103B800018F8011B5E48FCF72BFB049B78BBD90699
:103B900044BF20228DF853201A0744BF2B228DF8F2
:103BA00053202A782A2A2AD0079AA84600200A25D4
:103BB000414611F8013B303B092B69D960B324E041
:103BC000504B9C4201D1B468A2E74F4B9C4208BFC6
:103BD000F4689DE721463046FFF76CFC00289DD035
:103BE0004FF0FF301DB0BDE8F08FA846A2E7444A71
:103BF000801A0BFA00F0184304904546BEE7039A7A
:103C0000111D12680391002A01DB079204E0524261
:103C100043F002030792049398F800302E2B0ED144
:103C200098F801302A2B38D1039B1A1D1B68039288
:103C3000002BB8BF4FF0FF3308F102080593334D56
:103C400098F8001003222846FCF7CAFA40B1402336
:103C5000401B03FA00F0049B034308F1010804939E
:103C600098F800102A488DF82810062208F101075C
:103C7000FCF7B6FA002837D0264B1BBB039B073353
:103C800023F0070308330393099B4B44099350E740
:103C900005FB0232012088468AE7002308F101086B
:103CA000059319460A25404610F8012B303A092A97
:103CB00003D9002BC3D00591C1E705FB01210123E6
:103CC0008046F0E703AB00932246134B04A930462D
:103CD000AFF30080B0F1FF3F8146D5D1A3895B06E9
:103CE0003FF57EAF09987DE703AB009322460A4B70
:103CF00004A9304600F088F8ECE700BFC047000890
:103D000000480008E0470008A047000806480008EF
:103D10000A48000800000000CB3A00082DE9F047EF
:103D200091461F468A680B69DDF820809342B8BF30
:103D30001346C9F8003091F8432006460C4612B1EC
:103D40000133C9F800302368990642BFD9F8003022
:103D50000233C9F80030256815F0060507D104F1D3
:103D6000190AE368D9F800209B1AAB4228DC94F8C2
:103D700043302268003318BF012392062DD404F18A
:103D8000430239463046C047013020D02368E568F9
:103D9000D9F8002003F00603042B08BFAD1AA3686E
:103DA00022690CBF25EAE57500259342C4BF9B1A22
:103DB000ED184FF000091A344D451AD1002008E0E3
:103DC0000123524639463046C047013003D14FF0F7
:103DD000FF30BDE8F0870135C3E7E1185A1C3020F9
:103DE00081F84300224494F8451082F843100233CE
:103DF000C5E70123224639463046C0470130E6D0A8
:103E000009F10109D8E700002DE9F04301F1430C65
:103E10000C46097E85B06E291746064698460C9AD0
:103E200000F0B38022D8632936D00AD8002900F0E8
:103E3000B980582900F0838004F1420584F84210CB
:103E400032E0642901D06929F6D12068136805069B
:103E500003F104012AD51B681160002B03DA2D221F
:103E60005B4284F843206F480A2239E0732900F04E
:103E70009D8008D86F2920D07029DDD1236843F0B8
:103E80002003236003E0752917D07829D4D1782343
:103E900084F84530644855E01368191D1B681160AB
:103EA00004F1420584F8423001238CE01B68116064
:103EB00010F0400F18BF1BB2CFE713682568181D1C
:103EC0001060280601D51B6802E06806FBD51B8838
:103ED00054486F2914BF0A220822002184F8431095
:103EE0006568A560002DC0F29580216821F004016D
:103EF0002160002B3DD1002D40F08E806546082AC0
:103F00000BD12368DB0708D5236962689A42DEBFBC
:103F1000302305F8013C05F1FF35ACEB05032361C7
:103F2000CDF800803B4603AA21463046FFF7F6FE57
:103F300001304DD14FF0FF3005B0BDE8F083394876
:103F400084F84510136821681D1D1B6815600A065A
:103F50000BD5CA0744BF41F0200121601BB922687C
:103F600022F0200222601022B7E74D0648BF9BB224
:103F7000EFE76546B3FBF2F102FB1133C35C05F8D2
:103F8000013D0B460029F5D1B9E713682568616941
:103F9000181D106028061B6801D5196002E06A062A
:103FA000FBD51980002323616546B9E71368191D05
:103FB00011601D68626800212846FCF711F908B1FC
:103FC000401B606063682361002384F84330A7E7E7
:103FD00023692A4639463046C0470130AAD02368B3
:103FE0009B0713D4E068039B9842B8BF1846A3E729
:103FF00001234A4639463046C04701309AD0013540
:10400000E368039A9B1AAB42F2DCEBE7002504F16C
:104010001909F5E7002BACD1037884F8423004F19C
:1040200042056CE7114800082248000870B50D46AB
:104030001446064618B183690BB9FFF799FB134B79
:104040009C4212D17468A368013B002BA36016DA6E
:10405000A269934202DBEBB20A2B10D12246294619
:104060003046BDE87040FFF7D3B9094B9C4201D1FF
:10407000B468E8E7074B9C4208BFF468E3E72368AD
:104080005A1C22601D70E8B270BD00BFC047000816
:10409000E0470008A047000838B5064C0023054655
:1040A00008462360FFF76AF8431C02D1236803B176
:1040B0002B6038BD3C02002010B50C46B1F90E1043
:1040C00000F096F80028ABBF636DA3891B1823F49A
:1040D0008053ACBF6365A38110BD2DE9F0411F463D
:1040E0008B89DB0505460C46164605D502230022C2
:1040F000B1F90E1000F068F8A389B4F90E1023F49A
:104100008053A38132463B462846BDE8F04100F08B
:1041100017B810B50C46B1F90E1000F055F8431C55
:10412000A38915BF606523F4805343F48053A381B2
:1041300018BFA38110BDB1F90E1000F013B8000034
:1041400038B5074C054608461146002222601A463B
:10415000FFF706F8431C02D1236803B12B6038BD7A
:104160003C02002038B5064C002305460846236073
:10417000FFF722F8431C02D1236803B12B6038BD3E
:104180003C02002038B5074C00230546084611467E
:104190002360FFF714F8431C02D1236803B12B609E
:1041A00038BD00BF3C02002038B5064C0023054650
:1041B00008462360FFF708F8431C02D1236803B1C7
:1041C0002B6038BD3C02002038B5074C0546084638
:1041D0001146002222601A46FEF7F8FF431C02D166
:1041E000236803B12B6038BD3C0200207047704744
:1041F00038B5074C054608461146002222601A468B
:10420000FEF7A0FF431C02D1236803B12B6038BD29
:104210003C020020F8B500BFF8BC08BC9E467047C1
:0C422000F8B500BFF8BC08BC9E46704713
:10422C0002030405060708090A0B0C0D0E0F1010EB
:10423C000102030405060708090A0B0C0D0E0F10EA
:10424C00000000000000000001020304060708093A
:10425C000000000001020304656E67696E6520763C
:10426C00662050574D3D25326425250A000000007C
:10427C00656E67696E652076726C2050574D3D25D2
:10428C00326425250A000000656E67696E6520762C
:10429C0072722050574D3D25326425250A000000CE
:1042AC00656E67696E6520686C2050574D3D2532F0
:1042BC006425250A00000000656E67696E6520683C
:1042CC00722050574D3D25326425250A0000000010
:1042DC004F7A6E61637A656E69612073696C6E6981
:1042EC006B6F773A000000007666202D205043302B
:1042FC000900000076726C202D205043310900001B
:10430C00767272202D20504333000000686C202DF3
:10431C0020504134090000006872202D2050413695
:10432C000A0000004F62736C75676977616E6520D7
:10433C006B6F6D656E647920746F3A003F202D2091
:10434C00696E737472756B636A61000063202D2053
:10435C00776C61637A656E6965206C75622077791C
:10436C006C61637A656E6965206F64637A79746FCA
:10437C0077207A20637A756A6E696B6100000000A1
:10438C0065202D20776C61637A656E6965206C758C
:10439C00622077796C61637A656E6965206B6F6DED
:1043AC00756E696B61746F77206F20626C65647ACF
:1043BC00696520637A756A6E696B610070202D20C7
:1043CC00776C61637A656E6965206C7562207779AC
:1043DC006C61637A656E69652072657A7973746F46
:1043EC0072612070756C6C75702E000073202D201E
:1043FC007A6174727A796D616E69652077737A79F6
:10440C0073746B6963682073696C6E696B6F77008A
:10441C0076202D20737465726F77616E69652073D9
:10442C00696C6E696B616D692070696F6E6F7779FD
:10443C006D69000068202D20737465726F77616E52
:10444C0069652073696C6E696B616D6920706F7A38
:10445C00696F6D796D69000031202D207374657260
:10446C006F77616E69652073696C6E696B69656DD8
:10447C002076660032202D20737465726F77616E22
:10448C0069652073696C6E696B69656D2076726CF9
:10449C000000000033202D20737465726F77616EFD
:1044AC0069652073696C6E696B69656D20767272D3
:1044BC000000000034202D20737465726F77616EDC
:1044CC0069652073696C6E696B69656D20686C0039
:1044DC0035202D20737465726F77616E696520735A
:1044EC00696C6E696B69656D2068720A0A00000060
:1044FC00576974616A20772070726F6772616D6999
:10450C006500000052657A7973746F722070756C57
:10451C006C7570207A6F7374616E69652077796C35
:10452C0061637A6F6E792070727A79206E616A623B
:10453C006C697A737A656A207A6D69616E69652037
:10454C006B6F6E666967757261636A692070696EFC
:10455C00752E000052657A7973746F722070756CC9
:10456C006C7570207A6F7374616E696520776C61FD
:10457C00637A6F6E792070727A79206E616A626CE0
:10458C00697A737A656A207A6D69616E6965206BE8
:10459C006F6E666967757261636A692070696E75A2
:1045AC002E00000025630A004F64637A7974207A28
:1045BC0020637A756A6E696B612077796C61637AB6
:1045CC006F6E792E000000004F64637A7974207A44
:1045DC0020637A756A6E696B6120776C61637A6FA0
:1045EC006E792E004B6F6D756E696B617479206FEF
:1045FC0020626C65647A696520637A756A6E696B92
:10460C00612077796C61637A6F6E652E0000000013
:10461C004B6F6D756E696B617479206F20626C6580
:10462C00647A696520637A756A6E696B6120776C50
:10463C0061637A6F6E652E0053696C6E696B6920CD
:10464C006A65737A637A65206E6965207361206789
:10465C006F746F77652E00004F64637A656B616AC7
:10466C00202564206D730A00506F64616A2077798D
:10467C0070656C6E69656E69650000004E696577E2
:10468C006C617363697761206B6F6D656E64612E0D
:10469C00000000004E6965776C617363697779205F
:1046AC007A6E616B2E0000004F62736C75676977D0
:1046BC00616E6520777970656C6E69656E696520D1
:1046CC0035302D393925252E0A000000437A756ABC
:1046DC006E696B206E6965206F64706F77696164B9
:1046EC00610000005370726177647A616E696520B5
:1046FC006F64706F776965647A692C207374616E6E
:10470C00207779736F6B69005370726177647A618B
:10471C006E6965206F64706F776965647A692C20A7
:10472C007374616E206E69736B6900004F64637AF9
:10473C0079742064616E7963682C207374616E20C7
:10474C006E69736B690000004F64637A797420643E
:10475C00616E7963682C207374616E207779736F46
:10476C006B69000025640A0052483A202532642007
:10477C002525200920543A20253264202A430A009A
:10478C0053696C6E696B6920676F746F7765000095
:10479C0020000020000000000000000000000000CD
:1047AC0000000000000000000000000000000000FD
:1047BC0000000000000000000000000000000000ED
:1047CC0000000000000000000000000000000000DD
:1047DC0000000000000000000000000000000000CD
:1047EC0000000000000000000000000000000000BD
:1047FC0000000000232D302B2000686C4C006566F7
:10480C006745464700303132333435363738394115
:10481C00424344454600303132333435363738392B
:08482C0061626364656600002F
:04483400C5010008B2
:04483800A1010008D2
:10483C0001000000100000004B4B4B4B4B010100E2
:10484C00581B01010101010000127A002000002018
:10485C0000000000C0470008E0470008A04700081F
:10486C00000000000000000000000000000000003C
:10487C00000000000000000000000000000000002C
:10488C00000000000000000000000000000000001C
:10489C00000000000000000000000000000000000C
:1048AC0000000000000000000000000000000000FC
:040000050800323984
:00000001FF
