:020000040800F2
:10000000000001200D2F0008312E0008332E0008BB
:10001000352E0008372E0008392E00080000000099
:100020000000000000000000000000003B2E00085F
:100030003D2E0008000000003F2E0008412E000861
:100040005D2F00085D2F00085D2F00085D2F000860
:100050005D2F00085D2F00085D2F00085D2F000850
:100060005D2F00085D2F00085D2F00085D2F000840
:100070005D2F00085D2F00085D2F00085D2F000830
:100080005D2F00085D2F00085D2F00085D2F000820
:100090005D2F00085D2F00085D2F00085D2F000810
:1000A0005D2F00085D2F00085D2F00085D2F000800
:1000B000492E00085D2F00085D2F00085D2F000805
:1000C0005D2F00085D2F00085D2F00085D2F0008E0
:1000D0005D2F00085D2F0008592E00085D2F0008D5
:1000E0005D2F00085D2F00085D2F00085D2F0008C0
:1000F0005D2F00085D2F00085D2F00085D2F0008B0
:100100005D2F000800000000000000005D2F0008C7
:100110005D2F00085D2F00085D2F00085D2F00088F
:100120005D2F00085D2F00085D2F00085D2F00087F
:100130005D2F00085D2F0008000000000000000097
:100140005D2F00085D2F00085D2F000800000000F3
:10015000000000000000000000000000000000009F
:100160005D2F00085D2F00085D2F00085D2F00083F
:100170005D2F00085D2F00085D2F00085D2F00082F
:100180005D2F00085D2F0008000000000000000047
:040190005D2F0008D7
:1001A00010B5054C237833B9044B13B10448AFF3B1
:1001B00000800123237010BDDC010020000000003E
:1001C0005451000808B5034B1BB103490348AFF372
:1001D000008008BD00000000E0010020545100082C
:1001E00081F0004102E000BF83F0004330B54FEAE8
:1001F00041044FEA430594EA050F08BF90EA020F55
:100200001FBF54EA000C55EA020C7FEA645C7FEAE7
:10021000655C00F0E2804FEA5454D4EB5555B8BF0A
:100220006D420CDD2C4480EA020281EA030382EA7B
:10023000000083EA010180EA020281EA0303362D0D
:1002400088BF30BD11F0004F4FEA01314FF4801CE0
:100250004CEA113102D0404261EB410113F0004FF2
:100260004FEA03334CEA133302D0524263EB4303A9
:1002700094EA050F00F0A780A4F10104D5F1200E47
:100280000DDB02FA0EFC22FA05F2801841F10001A2
:1002900003FA0EF2801843FA05F359410EE0A5F176
:1002A00020050EF1200E012A03FA0EFC28BF4CF0A7
:1002B000020C43FA05F3C01851EBE37101F000455D
:1002C00007D54FF0000EDCF1000C7EEB00006EEB6A
:1002D0000101B1F5801F1BD3B1F5001F0CD34908F4
:1002E0005FEA30004FEA3C0C04F101044FEA44524B
:1002F00012F5800F80F09A80BCF1004F08BF5FEAD2
:10030000500C50F1000041EB045141EA050130BDB1
:100310005FEA4C0C404141EB010111F4801FA4F154
:100320000104E9D191F0000F04BF01460020B1FAA9
:1003300081F308BF2033A3F10B03B3F120020CDAE1
:100340000C3208DD02F1140CC2F10C0201FA0CF0BF
:1003500021FA02F10CE002F11402D8BFC2F1200C24
:1003600001FA02F120FA0CFCDCBF41EA0C019040DA
:10037000E41AA2BF01EB0451294330BD6FEA040423
:100380001F3C1CDA0C340EDC04F11404C4F120020E
:1003900020FA04F001FA02F340EA030021FA04F320
:1003A00045EA030130BDC4F10C04C4F1200220FA77
:1003B00002F001FA04F340EA0300294630BD21FAB5
:1003C00004F0294630BD94F0000F83F4801306BF7B
:1003D00081F480110134013D4EE77FEA645C18BF6F
:1003E0007FEA655C29D094EA050F08BF90EA020F06
:1003F00005D054EA000C04BF1946104630BD91EAFE
:10040000030F1EBF0021002030BD5FEA545C05D100
:100410004000494128BF41F0004130BD14F580043F
:100420003CBF01F5801130BD01F0004545F0FE41B3
:1004300041F470014FF0000030BD7FEA645C1ABFE8
:10044000194610467FEA655C1CBF0B46024650EA1F
:10045000013406BF52EA033591EA030F41F400214B
:1004600030BD00BF90F0000F04BF0021704730B5D1
:100470004FF4806404F132044FF000054FF00001A6
:1004800050E700BF90F0000F04BF0021704730B567
:100490004FF4806404F1320410F0004548BF40423C
:1004A0004FF000013EE700BF42004FEAE2014FEA91
:1004B00031014FEA02701FBF12F07F4393F07F4F6C
:1004C00081F06051704732F07F4208BF704793F06F
:1004D0007F4F04BF41F40021704730B54FF4607482
:1004E00001F0004521F000411CE700BF50EA010285
:1004F00008BF704730B54FF000050AE050EA01022E
:1005000008BF704730B511F0004502D5404261EB9D
:1005100041014FF4806404F132045FEA915C3FF4DE
:10052000D8AE4FF003025FEADC0C18BF03325FEA7B
:10053000DC0C18BF033202EBDC02C2F1200300FA2C
:1005400003FC20FA02F001FA03FE40EA0E0021FA51
:1005500002F11444BDE600BF70B54FF0FF0C4CF43F
:10056000E06C1CEA11541DBF1CEA135594EA0C0FF1
:1005700095EA0C0F00F0DEF82C4481EA030621EA2C
:100580004C5123EA4C5350EA013518BF52EA033567
:1005900041F4801143F4801338D0A0FB02CE4FF019
:1005A0000005E1FB02E506F00042E0FB03E54FF049
:1005B0000006E1FB03569CF0000F18BF4EF0010E41
:1005C000A4F1FF04B6F5007F64F5407404D25FEA3D
:1005D0004E0E6D4146EB060642EAC62141EA5551F0
:1005E0004FEAC52040EA5E504FEACE2EB4F1FD0C32
:1005F00088BFBCF5E06F1ED8BEF1004F08BF5FEAB0
:10060000500E50F1000041EB045170BD06F0004661
:1006100046EA010140EA020081EA0301B4EB5C040E
:10062000C2BFD4EB0C0541EA045170BD41F4801106
:100630004FF0000E013C00F3AB8014F1360FDEBF2B
:10064000002001F0004170BDC4F10004203C35DA07
:100650000C341BDC04F11404C4F1200500FA05F38A
:1006600020FA04F001FA05F240EA020001F000422B
:1006700021F0004110EBD37021FA04F642EB0601A1
:100680005EEA430E08BF20EAD37070BDC4F10C04CB
:10069000C4F1200500FA04F320FA05F001FA04F28F
:1006A00040EA020001F0004110EBD37041F100017B
:1006B0005EEA430E08BF20EAD37070BDC4F1200586
:1006C00000FA05F24EEA020E20FA04F301FA05F2EE
:1006D00043EA020321FA04F001F0004121FA04F296
:1006E00020EA020000EBD3705EEA430E08BF20EA66
:1006F000D37070BD94F0000F0FD101F000464000A0
:1007000041EB010111F4801F08BF013CF7D041EA21
:10071000060195F0000F18BF704703F00046520025
:1007200043EB030313F4801F08BF013DF7D043EAF6
:100730000603704794EA0C0F0CEA135518BF95EAAC
:100740000C0F0CD050EA410618BF52EA4306D1D133
:1007500081EA030101F000414FF0000070BD50EA52
:10076000410606BF1046194652EA430619D094EADC
:100770000C0F02D150EA013613D195EA0C0F05D1C6
:1007800052EA03361CBF104619460AD181EA03011A
:1007900001F0004141F0FE4141F470014FF00000D2
:1007A00070BD41F0FE4141F4780170BD70B54FF06D
:1007B000FF0C4CF4E06C1CEA11541DBF1CEA1355ED
:1007C00094EA0C0F95EA0C0F00F0A7F8A4EB0504CF
:1007D00081EA030E52EA03354FEA013100F08880C6
:1007E0004FEA03334FF0805545EA131343EA12638F
:1007F0004FEA022245EA111545EA10654FEA002644
:100800000EF000419D4208BF964244F1FD0404F5FC
:10081000407402D25B084FEA3202B61A65EB030558
:100820005B084FEA32024FF480104FF4002CB6EB15
:10083000020E75EB030E22BFB61A754640EA0C0095
:100840005B084FEA3202B6EB020E75EB030E22BFD5
:10085000B61A754640EA5C005B084FEA3202B6EB16
:10086000020E75EB030E22BFB61A754640EA9C00D5
:100870005B084FEA3202B6EB020E75EB030E22BFA5
:10088000B61A754640EADC0055EA060E18D04FEA63
:10089000051545EA16754FEA06164FEAC30343EA03
:1008A00052734FEAC2025FEA1C1CC0D111F4801FD0
:1008B0000BD141EA00014FF000004FF0004CB6E7C9
:1008C00011F4801F04BF01430020B4F1FD0C88BF68
:1008D000BCF5E06F3FF6AFAEB5EB030C04BFB6EB73
:1008E000020C5FEA500C50F1000041EB045170BD66
:1008F0000EF0004E4EEA113114EB5C04C2BFD4EB93
:100900000C0541EA045170BD41F480114FF0000E16
:10091000013C90E645EA060E8DE60CEA135594EA92
:100920000C0F08BF95EA0C0F3FF43BAF94EA0C0F95
:100930000AD150EA01347FF434AF95EA0C0F7FF40A
:1009400025AF104619462CE795EA0C0F06D152EA5E
:1009500003353FF4FDAE1046194622E750EA410642
:1009600018BF52EA43067FF4C5AE50EA41047FF453
:100970000DAF52EA43057FF4EBAE12E74FEA4102B6
:10098000B2F1E04324BFB3F5001CDCF1FE5C0DD9ED
:1009900001F0004C4FEAC0024CEA5070B2F1004F37
:1009A00040EB830008BF20F00100704711F0804F3A
:1009B00021D113F13872BCBF01F00040704741F4FF
:1009C00080114FEA5252C2F11802C2F1200C10FA03
:1009D0000CF320FA02F018BF40F001004FEAC123E7
:1009E0004FEAD32303FA0CFC40EA0C0023FA02F38B
:1009F0004FEA4303CCE77FEA625307D150EA013361
:100A00001EBF4FF0FE4040F44000704701F0004030
:100A100040F0FE4040F40000704700BF034613F86A
:100A2000012B002AFBD1181A013870470000000082
:100A300001F0FF01102A2BDB10F0070F08D010F88F
:100A4000013B013A8B422DD010F0070F42B3F6D193
:100A5000F0B441EA012141EA014122F007047FF0AC
:100A600000070023F0E80256083C85EA010586EA03
:100A7000010685FA47F5A3FA87F586FA47F6A5FA3F
:100A800087F68EB9EED1F0BC01F0FF0102F007024B
:100A900032B110F8013B013A83EA010313B1F8D1F6
:100AA0000020704701387047002D06BF35460338D7
:100AB000073815F0010F07D1013015F4807F02BF10
:100AC000013015F4C03F0130F0BC0138704700BF61
:100AD0004FF0FF3C06E000BF4FF0010C02E000BF0A
:100AE0004FF0010C4DF804CD4FEA410C7FEA6C5CED
:100AF0004FEA430C18BF7FEA6C5C1BD001B050EA90
:100B0000410C0CBF52EA430C91EA030F02BF90EA7A
:100B1000020F0020704710F1000F91EA030F58BF39
:100B2000994208BF90422CBFD8176FEAE37040F09B
:100B3000010070474FEA410C7FEA6C5C02D150EA39
:100B4000013C07D14FEA430C7FEA6C5CD6D152EAF4
:100B5000033CD3D05DF8040B704700BF84461046B9
:100B600062468C461946634600E000BF01B5FFF7B8
:100B7000B7FF002848BF10F1000F01BD4DF808ED88
:100B8000FFF7F4FF0CBF012000205DF808FB00BF59
:100B90004DF808EDFFF7EAFF34BF012000205DF8B3
:100BA00008FB00BF4DF808EDFFF7E0FF94BF012000
:100BB00000205DF808FB00BF4DF808EDFFF7CEFF01
:100BC00094BF012000205DF808FB00BF4DF808ED40
:100BD000FFF7C4FF34BF012000205DF808FB00BF11
:100BE0004FEA410C7FEA6C5C02D150EA013C0AD129
:100BF0004FEA430C7FEA6C5C02D152EA033C02D11B
:100C00004FF0000070474FF0010070474FEA41027B
:100C100012F5001215D211D56FF47873B3EB62524E
:100C200012D94FEAC12343F0004343EA505311F075
:100C3000004F23FA02F018BF404270474FF0000007
:100C4000704750EA013005D111F0004008BF6FF045
:100C5000004070474FF00000704700BF10B50446D9
:100C60000E4B18784FF47A73B3FBF0F30C4A10680C
:100C7000B0FBF3F000F08CF868B90F2C01D901201B
:100C80000AE0002221464FF0FF3000F041F8034B0C
:100C90005C60002000E0012010BD00BF00000020CB
:100CA0000800002008B5074A136843F010031360DA
:100CB000032000F01BF80020FFF7D0FF02F042F8FD
:100CC000002008BD00200240034A1168034B1B7836
:100CD0000B441360704700BF10020020000000208A
:100CE000014B1868704700BF10020020074AD36804
:100CF00023F4E0631B041B0C000200F4E0601843C3
:100D000040F0BF6040F40030D060704700ED00E07C
:100D100030B4174BDB68C3F30223C3F10704042C80
:100D200028BF04241D1D062D18D9033B4FF0FF35A5
:100D300005FA04F421EA0401994005FA03F322EAD2
:100D40000303194300280BDB0901C9B200F160401D
:100D500000F5614080F8001330BC70470023E5E7E0
:100D600000F00F000901C9B2024B1954F4E700BFAB
:100D700000ED00E014ED00E000F01F024009012347
:100D80009340024A42F82030704700BF00E100E083
:100D90000138B0F1807F0AD2064B5860064AF02134
:100DA00082F823100020986007221A607047012003
:100DB000704700BF10E000E000ED00E008B590F8DB
:100DC0002130022B03D004238363012008BD026875
:100DD000136823F00E0313600268136823F0010305
:100DE0001360036CC16B012202FA03F34B6080F8BD
:100DF0002120002380F82030436B13B19847002056
:100E0000E4E70020E2E70000F0B482B0002336E01F
:100E1000062400E00024B4403C430235614E46F80D
:100E20002540614C2568D44304EA05064F6817F451
:100E3000803F01D042EA05065B4D2E606D6804EAF2
:100E400005064F6817F4003F01D042EA0506564DEB
:100E50006E60AD6804EA05064F6817F4801F01D084
:100E600042EA0506504DAE60ED682C404E6816F41F
:100E7000001F01D042EA05044B4AD46001330A68DE
:100E800032FA03F400F08B8001249C402240F5D01C
:100E90004D68022D01D0122D10D1DE08083650F811
:100EA00026C003F00705AF000F25BD402CEA050C56
:100EB0000D69BD4045EA0C0540F8265006685F0004
:100EC0000325BD40ED4305EA060C4E6806F0030617
:100ED000BE4046EA0C0606604E6806F1FF3CBCF1D7
:100EE000010F03D9112E01D0122E10D1866805EA08
:100EF000060CCE68BE4046EA0C068660466826EAC6
:100F000004044E68C6F300169E4026434660C4683B
:100F100025408C68BC402C43C4604C6814F0805F52
:100F2000ACD0224CA56945F00105A561A46904F087
:100F300001040194019C9D08AE1C1A4C54F82670C3
:100F400003F00304A6000F24B44027EA0407B0F11D
:100F5000904F3FF45FAF164CA04216D004F580646A
:100F6000A04214D004F58064A04212D004F580643D
:100F7000A04210D004F58064A0420ED004F5806435
:100F8000A0423FF445AF072445E7012443E702248C
:100F900041E703243FE704243DE705243BE702B093
:100FA000F0BC704700000140000401400010024006
:100FB000000400480AB981627047816170470000EF
:100FC000002800F0F98270B582B00446036813F07F
:100FD000010F3DD0B44B5B6803F00C03042B20D011
:100FE000B14B5B6803F00C03082B13D06368B3F5B7
:100FF000803F6AD0002B40F08D8003F1804303F5E1
:1010000004331A6822F480321A601A6822F48022AB
:101010001A605FE0A44B5B6803F4C033B3F5803F14
:10102000E4D14FF4003393FAA3F39F4B19684FF4C4
:10103000003393FAA3F3B3FA83F303F01F030122FF
:1010400002FA03F30B4203D06368002B00F0BC826A
:10105000236813F0020F00F0C180934B5B6813F01C
:101060000C0F00F09780904B5B6803F00C03082B8B
:1010700000F08880E368002B00F0EE80012292FAF5
:10108000A2F3B3FA83F303F1845303F584139B00B3
:101090001A60FFF725FE0546022393FAA3F3824B5D
:1010A0001968022393FAA3F3B3FA83F303F01F033F
:1010B000012202FA03F30B4240F0BF80FFF710FE5B
:1010C000401B0228E8D9032085E2774A136843F4DD
:1010D000803313606368002B36D0FFF701FE0546AE
:1010E0004FF4003393FAA3F36F4B19684FF40033B6
:1010F00093FAA3F3B3FA83F303F01F03012202FA76
:1011000003F30B42A4D1FFF7EBFD401B6428E7D9A2
:10111000032060E2B3F5A02F09D0634B1A6822F4D4
:1011200080321A601A6822F480221A60D2E703F132
:101130008043A3F53C331A6842F480221A601A688F
:1011400042F480321A60C5E7FFF7CAFD05464FF446
:10115000003393FAA3F3544B19684FF4003393FA16
:10116000A3F3B3FA83F303F01F03012202FA03F39C
:101170000B423FF46DAFFFF7B3FD401B6428E6D987
:10118000032028E2484B5B6803F4C033B3F5004FFB
:101190007FF470AF022393FAA3F3434B1968022341
:1011A00093FAA3F3B3FA83F303F01F03012202FAC5
:1011B00003F30B4204D0E368934201D001200AE21A
:1011C0003948036823F0F8032169F82292FAA2F261
:1011D000B2FA82F201FA02F213430360236813F0B9
:1011E000080F00F08D806369002B61D0012191FA16
:1011F000A1F2B2FA82F22D4B13449B001960FFF763
:101200006FFD0546022393FAA3F293FAA3F293FA31
:10121000A3F2254A516A93FAA3F3B3FA83F303F0D6
:101220001F03012202FA03F30B4269D1FFF758FDB5
:10123000401B0228E6D90320CDE11B48036823F0B8
:10124000F8032169F82292FAA2F2B2FA82F201FAC4
:1012500002F213430360C1E7012393FAA3F3B3FA45
:1012600083F303F1845303F584139B0000221A6077
:10127000FFF736FD0546022393FAA3F30A4B1968DC
:10128000022393FAA3F3B3FA83F303F01F030122BB
:1012900002FA03F30B42A1D0FFF722FD401B022804
:1012A000E9D9032097E100BF00100240208190108F
:1012B000012292FAA2F2B2FA82F2C04B13449B00CE
:1012C00000221A60FFF70CFD0546022393FAA3F2F1
:1012D00093FAA3F293FAA3F2B94A516A93FAA3F3E9
:1012E000B3FA83F303F01F03012202FA03F30B4264
:1012F00006D0FFF7F5FC401B0228E6D903206AE17F
:10130000236813F0040F00F0B380AD4BDB6913F0DA
:10131000805F20D1AA4BDA6942F08052DA61DB6942
:1013200003F080530193019B0125A64B1B6813F426
:10133000807F12D0A368012B23D073BB03F18043BD
:1013400003F504331A6A22F001021A621A6A22F0C3
:1013500004021A621AE00025E7E79A4A136843F488
:1013600080731360FFF7BCFC0646964B1B6813F4B2
:10137000807FDFD1FFF7B4FC801B6428F5D9032000
:1013800029E18F4A136A43F001031362A368002B1B
:1013900041D0FFF7A5FC06462BE0052B09D0884B72
:1013A0001A6A22F001021A621A6A22F004021A6210
:1013B000ECE7834B1A6A42F004021A621A6A42F09E
:1013C00001021A62E2E77E4B196A022393FAA3F341
:1013D000B3FA83F303F01F03012202FA03F3194265
:1013E00045D1FFF77DFC801B41F28833984200F223
:1013F000ED80022393FAA3F293FAA3F3B3FA83F3F3
:101400005B0943F00203022BDDD0022393FAA3F31E
:101410006B4B596AD9E7FFF763FC064615E0684B4A
:10142000196A022393FAA3F3B3FA83F303F01F03B9
:10143000012202FA03F3194219D0FFF751FC801B75
:1014400041F28833984200F2C380022393FAA3F258
:1014500093FAA3F3B3FA83F35B0943F00203022B7D
:10146000DDD0022393FAA3F3554B596AD9E7B5BBF4
:10147000A369002B00F0AE80514A526802F00C02C2
:10148000082A00F0AA80022B2FD04FF0807393FA25
:10149000A3F3B3FA83F303F1845303F584139B009E
:1014A00000221A60FFF71CFC04464FF0007393FA09
:1014B000A3F3434B19684FF0007393FAA3F3B3FA05
:1014C00083F303F01F03012202FA03F3194271D0E0
:1014D000FFF706FC001B0228E7D903207BE0384A0F
:1014E000D36923F08053D361C2E74FF0807393FA3E
:1014F000A3F3B3FA83F303F1845303F584139B003E
:1015000000221A60FFF7ECFB05464FF0007393FAD8
:10151000A3F32B4B19684FF0007393FAA3F3B3FABC
:1015200083F303F01F03012202FA03F3194206D0EA
:10153000FFF7D6FB401B0228E7D903204BE0204AE7
:10154000D36A23F00F03616A0B43D362536823F419
:101550007613216AE06901430B4353604FF08073B7
:1015600093FAA3F3B3FA83F303F1845303F58413DB
:101570009B0001221A60FFF7B3FB04464FF0007393
:1015800093FAA3F30E4B19684FF0007393FAA3F389
:10159000B3FA83F303F01F03012202FA03F31942A3
:1015A00006D1FFF79DFB001B0228E7D9032012E0BC
:1015B000002010E000200EE00120704720819010F4
:1015C0000010024000700040012004E0032002E00F
:1015D000032000E0002002B070BD0120FBE700BF47
:1015E00010B4184B5C6804F00C03082B28D104F4E9
:1015F00070124FF4701393FAA3F3B3FA83F322FA41
:1016000003F31149C85C0F4BDB6A03F00F030F2291
:1016100092FAA2F2B2FA82F2D3400B441A7C14F48A
:10162000803F07D1094BB3FBF2F300FB03F05DF8F9
:10163000044B7047054BB3FBF2F300FB03F0F6E7F6
:101640000248F4E7001002407051000800127A00CE
:10165000002800F0C08070B50446614B1B6803F0A1
:1016600007038B420CD25E4A136823F007030B4337
:101670001360136803F007038B4201D0012070BD93
:10168000236813F0020F06D0564A536823F0F00384
:10169000A068034353600D46236813F0010F5AD02E
:1016A0006368012B2DD0022B40D0022292FAA2F2C5
:1016B0004C4A1068022292FAA2F2B2FA82F202F0C6
:1016C0001F02012101FA02F2104200F08680454912
:1016D0004A6822F0030213434B60FFF701FB064602
:1016E000404B5B6803F00C036268B3EB820F32D0AF
:1016F000FFF7F6FA801B41F288339842F0D90320B5
:10170000BDE74FF4003292FAA2F2364A10684FF465
:10171000003292FAA2F2B2FA82F202F01F02012122
:1017200001FA02F20242D2D10120A8E74FF0007282
:1017300092FAA2F22B4A10684FF0007292FAA2F2CB
:10174000B2FA82F202F01F02012101FA02F2104203
:10175000BDD1012093E7224B1B6803F00703AB4286
:101760000CD91F4A136823F007032B431360136837
:1017700003F00703AB4201D0012080E7236813F098
:10178000040F06D0174A536823F4E063E1680B4363
:101790005360236813F0080F07D0124A536823F4EC
:1017A0006053216943EAC1035360FFF719FF0D4BF2
:1017B0005B6803F0F003F02292FAA2F2B2FA82F22E
:1017C000D340094AD35CD840084B18600020FFF78B
:1017D00045FA002053E70120704701204FE700BF82
:1017E0000020024000100240905100080800002034
:1017F000014B1868704700BF0800002008B5FFF7CC
:10180000F7FF074B5B6803F4E0634FF4E06292FA82
:10181000A2F2B2FA82F2D340024AD35CD84008BDA9
:1018200000100240A051000808B5FFF7E1FF074B88
:101830005B6803F460534FF4605292FAA2F2B2FA7A
:1018400082F2D340024AD35CD84008BD0010024067
:10185000A0510008F0B583B00446036813F4803F3C
:1018600048D0A14BDB6913F0805F40F022819E4B92
:10187000DA6942F08052DA61DB6903F08053019348
:10188000019B0125994B1B6813F4807F00F01381A5
:10189000954B1B6A13F4407322D0626802F44072C5
:1018A0009A421DD09048016A21F440764FF480336B
:1018B00093FAA3F2B2FA82F28D4F3A4492004FF0BB
:1018C000010CC2F800C093FAA3F3B3FA83F33B44CC
:1018D0009B0000221A60066211F0010F40F00081A7
:1018E000814A136A23F4407361680B431362002D2D
:1018F00040F02881236813F0010F06D07A4A136B59
:1019000023F00303A1680B431363236813F0020F52
:1019100006D0754A136B23F44033E1680B4313631D
:10192000236813F0040F06D06F4A136B23F440238F
:1019300021690B431363236813F0200F06D06A4A12
:10194000136B23F01003E1690B431363236813F453
:10195000003F06D0644A536823F48003616D0B4353
:101960005360236813F0400F06D05F4A136B23F0D7
:101970002003216A0B431363236813F4802F06D0DE
:10198000594A136B23F04003616A0B4313632368C6
:1019900013F0080F06D0544A136B23F44013616907
:1019A0000B431363236813F0100F06D04E4A136BDA
:1019B00023F44003A1690B431363236813F4007FEE
:1019C00006D0494A536823F40003216B0B4353604C
:1019D000236813F0800F06D0434AD36A23F4F873C8
:1019E000A16A0B43D362236813F4807F06D03E4A7A
:1019F000D36A23F47853E16A0B43D362236813F468
:101A0000805F06D0384A136B23F48073616B0B43FD
:101A10001363236813F4005F06D0334A136B23F477
:101A20000073216C0B431363236813F4801F06D0EB
:101A30002D4A136B23F08073A16B0B431363236850
:101A400013F4001F06D0284A136B23F00073E16BD8
:101A50000B431363236813F4800F06D0224A136BE1
:101A600023F48063616C0B431363236813F4000F4A
:101A700006D01D4A136B23F40063A16C0B43136360
:101A8000236813F0807F06D0174A136B23F40053AA
:101A9000E16C0B431363236813F0007F59D0124AA3
:101AA000136B23F40043216D0B431363002003B039
:101AB000F0BD0025E6E60D4A136843F48073136019
:101AC000FFF70EF90646094B1B6813F4807F7FF47D
:101AD000DFAEFFF705F9801B6428F4D90320E6E7A1
:101AE000FFF7FEF806461BE00010024000700040C1
:101AF00000819010184B196A022393FAA3F3B3FAEA
:101B000083F303F01F03012202FA03F30B427FF475
:101B1000E7AEFFF7E5F8801B41F28833984216D80C
:101B2000022393FAA3F293FAA3F3B3FA83F35B09C4
:101B300043F00203022BDDD0022393FAA3F3064BFA
:101B4000596AD9E7D36923F08053D361D2E60320E1
:101B5000ADE70020ABE700BF0010024010B4036AFD
:101B6000046A24F001040462846924F0F00444EA65
:101B7000021223F00A030B43826103625DF8044BF7
:101B8000704710B4036A23F0100303628469036A88
:101B900024F4704444EA023223F0A00343EA011320
:101BA000826103625DF8044B7047836823F0700321
:101BB00041F007011943816070470268D36843F020
:101BC0000103D3600268136843F00103136000202F
:101BD0007047704770477047704710B504460368F8
:101BE0001A6912F0020F11D0DA6812F0020F0DD04C
:101BF0006FF002021A610123037703689B6913F0F7
:101C0000030F79D0FFF7E6FF0023237723681A69D3
:101C100012F0040F12D0DA6812F0040F0ED06FF039
:101C200004021A610223237723689B6913F4407F1F
:101C300068D02046FFF7CEFF0023237723681A6978
:101C400012F0080F12D0DA6812F0080F0ED06FF001
:101C500008021A61042323772368DB6913F0030F5A
:101C600057D02046FFF7B6FF0023237723681A6971
:101C700012F0100F12D0DA6812F0100F0ED06FF0C1
:101C800010021A61082323772368DB6913F4407F6D
:101C900046D02046FFF79EFF0023237723681A696A
:101CA00012F0010F03D0DA6812F0010F3FD1236860
:101CB0001A6912F0800F03D0DA6812F0800F3DD15C
:101CC00023681A6912F4807F03D0DA6812F0800F5B
:101CD0003BD123681A6912F0400F03D0DA6812F082
:101CE000400F39D123681A6912F0200F03D0DA6847
:101CF00012F0200F37D110BDFFF76BFF2046FFF722
:101D00006AFF81E72046FFF764FF2046FFF763FF85
:101D100092E72046FFF75DFF2046FFF75CFFA3E751
:101D20002046FFF756FF2046FFF755FFB4E76FF058
:101D300001021A61204600F013FFB8E76FF080023D
:101D40001A61204600F061F9BAE76FF480721A61F7
:101D5000204600F05BF9BCE76FF040021A612046B4
:101D6000FFF73AFFBEE76FF020021A61204600F04D
:101D70004BF9C0E70368324A904212D0B0F1804F6D
:101D80000FD0A2F5943290420BD002F580629042BF
:101D900007D002F59632904203D002F5E05290420D
:101DA00003D123F070034A681343254A90421ED0A2
:101DB000B0F1804F1BD0A2F59432904217D002F5BB
:101DC0008062904213D002F5963290420FD002F515
:101DD000406290420BD002F58062904207D002F53B
:101DE0008062904203D002F50062904203D123F456
:101DF0004073CA68134323F080034A6913430360A6
:101E00008B68C3620B6883620D4B984213D003F555
:101E1000006398420FD003F5406398420BD003F55E
:101E20008063984207D003F58063984203D003F59E
:101E30000063984201D10B6903630123436170473A
:101E4000002C0140A8B110B5044690F83D305BB1BC
:101E5000022384F83D30211D2068FFF78BFF01230A
:101E600084F83D30002010BD80F83C3000F088FF41
:101E7000EEE70120704710B4846824F47F4442EAFE
:101E800003230B43234383605DF8044B704700003A
:101E900090F83C30012B00F0828010B504460123FD
:101EA00080F83C30022380F83D30026890683D4B5A
:101EB000034093600B68402B5DD010D9702B40D04D
:101EC0001FD8502B4DD0602B34D1CA684968206888
:101ED000FFF757FE60212068FFF767FE2AE0102B0E
:101EE00053D008D9202B55D0302B23D13021206856
:101EF000FFF75BFE1EE0EBB900212068FFF755FEFF
:101F000018E0B3F5805F0ED0B3F5005F12D1CB6857
:101F10004A6889682068FFF7AEFF2268936843F437
:101F20008043936006E02268936823F4803323F0B3
:101F300007039360012384F83D30002084F83C00BF
:101F400010BDCB684A6889682068FFF794FF226853
:101F5000936823F4803323F0770343F0770393608F
:101F6000E8E7CA6849682068FFF7F8FD5021206853
:101F7000FFF71BFEDEE7CA6849682068FFF7EEFD41
:101F800040212068FFF711FED4E710212068FFF7F9
:101F90000CFECFE720212068FFF707FECAE70220EA
:101FA000704700BF8800FEFF90F83C30012B26D020
:101FB00030B4012380F83C30026853689568114CB6
:101FC000A24207D004F50064A24203D004F5E05415
:101FD000A24203D123F470034C68234323F070031F
:101FE0000C68234325F0800489682143536003680B
:101FF0009960002380F83C30184630BC70470220BE
:10200000704700BF002C014070477047704702685E
:10201000136823F4907313600268936823F001033C
:102020009360202380F86A30704790F86930DBB203
:10203000202B18D1C9B1D2B190F86830012B18D03B
:10204000C164A0F85020A0F852200023C3662122CA
:1020500080F8692080F8683001680A6842F08002E0
:102060000A6018467047022070470120704701201F
:1020700070470220704790F86A30DBB2202B49D1BC
:10208000002949D0002A49D090F86830012B47D068
:10209000012380F868304165A0F85820A0F85A2044
:1020A0008368B3F5805F06D0A3B9036973B9FF23D2
:1020B000A0F85C3011E0036923B940F2FF13A0F8E7
:1020C0005C300AE0FF23A0F85C3006E07F23A0F834
:1020D0005C3002E0B3F1805F12D00023C36622229D
:1020E00080F86A2080F8683001688A6842F001024E
:1020F0008A6001680A6842F490720A601846704764
:1021000003691BB97F23A0F85C30E6E73F23A0F802
:102110005C30E2E7022070470120704701207047E1
:10212000022070477047704708B5406A0023A0F846
:102130005A30A0F85230FFF7F6FF08BD10B504463C
:1021400083680269134342691343C26913430168F8
:1021500008689C4A024013430B602268536823F4CA
:102160004053E1680B435360A369226A1A43216814
:102170008B6823F4306313438B602368924A934245
:102180001FD0924A93422FD0914A934246D0914A0F
:1021900093425DD0904A934274D01022E169B1F528
:1021A000004F00F08B80082A00F20A81DFE812F06D
:1021B000CE00DA00E6000801F2000801080108017B
:1021C000FE0002F55842126B02F00302032A09D8FE
:1021D000DFE802F0020406720122DFE70422DDE7F5
:1021E0000822DBE71022D9E702F5E632126B02F48F
:1021F0004032B2F5803F0BD007D9B2F5003F09D08D
:10220000B2F5403F08D10222C8E72AB90022C5E74B
:102210000422C3E70822C1E71022BFE702F5E43237
:10222000126B02F44022B2F5802F0BD007D9B2F521
:10223000002F09D0B2F5402F08D10222AEE72AB90B
:102240000022ABE70422A9E70822A7E71022A5E7AE
:1022500002F5E232126B02F44012B2F5801F0BD08D
:1022600007D9B2F5001F09D0B2F5401F08D10222EC
:1022700094E72AB9002291E704228FE708228DE72C
:1022800010228BE702F5E032126B02F44002B2F545
:10229000800F0BD007D9B2F5000F09D0B2F5400F6F
:1022A00008D102227AE72AB9002277E7042275E7EB
:1022B000082273E7102271E702226FE7082A42D84A
:1022C000DFE802F0051722412D4141413800FFF7B8
:1022D00095FA6268530803EB4003B3FBF2F39BB239
:1022E000002023F00F02C3F3420313432268D3609C
:1022F00010BDFFF799FA6268530803EB4003B3FB84
:10230000F2F39BB20020ECE76268530803F5740314
:1023100003F51053B3FBF2F39BB20020E1E7FFF7A4
:102320005FF96268530803EB4003B3FBF2F39BB21F
:102330000020D6E76268530803F58033B3FBF2F35D
:102340009BB20020CDE701200023CAE7FFF756FA31
:10235000636800EB5300B0FBF3F0236880B2D860F1
:102360000020C5E7FFF760FA636800EB5300B0FB9D
:10237000F3F0236880B2D8600020B9E761684A08AA
:1023800002F5F40202F59052B2FBF1F292B2DA6079
:102390000020ADE7FFF724F9636800EB5300B0FBC2
:1023A000F3F0236880B2D8600020A1E761684A0892
:1023B00002F50042B2FBF1F292B2DA60002097E738
:1023C000012095E7F369FFEF003801400044004029
:1023D00000480040004C004000500040436A13F0A9
:1023E000010F06D00268536823F40033816A0B435F
:1023F0005360436A13F0020F06D00268536823F457
:102400008033C16A0B435360436A13F0040F06D054
:102410000268536823F48023016B0B435360436AC3
:1024200013F0080F06D00268536823F40043416B91
:102430000B435360436A13F0100F06D00268936891
:1024400023F48053816B0B439360436A13F0200F96
:1024500006D00268936823F40053C16B0B4393606A
:10246000436A13F0400F0AD00268536823F48013C4
:10247000016C0B435360036CB3F5801F0BD0436AB0
:1024800013F0800F06D00268536823F40023816C98
:102490000B43536070470268536823F4C003416CD8
:1024A0000B435360EBE72DE9F04105460F46164616
:1024B0009846069C2B68DB6937EA03030CBF0123AF
:1024C0000023B3421DD1B4F1FF3FF3D02CB1FEF78E
:1024D00007FCA0EB0800A042ECD92A68136823F49B
:1024E000D07313602A68936823F00103936020235C
:1024F00085F8693085F86A30002385F86830032054
:1025000000E00020BDE8F08130B583B00446002330
:10251000C366FEF7E5FB054623681B6813F0080F4A
:102520000ED123681B6813F0040F17D1202384F801
:10253000693084F86A30002084F8680003B030BD48
:102540006FF07E430093034600224FF400112046B3
:10255000FFF7A9FF0028E4D00320EFE76FF07E43E8
:1025600000932B4600224FF480012046FFF79BFF8B
:102570000028DBD00320E1E778B310B5044690F8DB
:1025800069300BB3242384F869302268136823F080
:10259000010313602046FFF7D1FD012813D0636AC1
:1025A000BBB92268536823F4904353602268936850
:1025B00023F02A0393602268136843F00103136039
:1025C0002046FFF7A1FF10BD80F8683000F0F6FB51
:1025D000D8E72046FFF702FFE3E70120704790F8B5
:1025E0006930DBB2212B2ED1B0F852309BB28BB1C7
:1025F0008368B3F5805F19D0C36C5A1CC26402684B
:102600001B781385B0F85230013B9BB2A0F85230D2
:10261000002070470268136823F08003136002688B
:10262000136843F040031360002070470369002BD8
:10263000E2D1C36C02681B88C3F308031385C36C23
:102640000233C364DEE70220704708B501680B68F7
:1026500023F040030B60202380F86930FFF762FD10
:10266000002008BDB0F85C2090F86A30DBB2222B65
:1026700031D110B503689B8C9BB28168B1F5805F46
:102680000ED0D2B2416D4C1C44651A400A70B0F8AD
:102690005A30013B9BB2A0F85A305BB1002010BD0C
:1026A00001690029EDD1416D1A400A80436D023362
:1026B0004365ECE70268136823F4907313600268C3
:1026C000936823F001039360202380F86A3000F0C0
:1026D00077FA0020E3E70268936943F00803936107
:1026E0000220704738B504460268D369116813F0B8
:1026F0000F0505D113F0200F02D011F0200F60D18B
:102700009068002D72D010F0010502D111F4907F75
:102710006CD013F0010F07D011F4807F04D001209A
:102720001062E26E0243E26613F0020F07D035B189
:10273000226802201062E26E42F00402E26613F0A8
:10274000040F07D035B1226804201062E26E42F017
:102750000202E26613F0080F09D011F0200F00D139
:102760002DB1226808201062E26E0243E266E26E3A
:10277000002A4DD013F0200F02D011F0200F23D1EA
:10278000E36E13F0080F04D123689B6813F0400F29
:1027900026D02046FFF73BFC23689A6812F0400FD2
:1027A0001AD09A6822F040029A60636E83B1234A7D
:1027B0005A63606EFEF702FB50B3606E436B98473E
:1027C00026E0FFF74FFF23E02046FFF74BFFD7E758
:1027D0002046FFF7A8FC1BE02046FFF7A4FC17E00B
:1027E0002046FFF7A0FC0023E36611E013F4801FEE
:1027F00002D010F4800F0CD113F0800F02D011F032
:10280000800F12D113F0400F02D011F0400F10D101
:1028100038BD4FF480131362202384F8693084F8A4
:102820006A30204600F00CF8F2E72046FFF7D7FEAA
:10283000EEE72046FFF709FFEAE700BF292100087D
:102840007047000010B58AB00024059406940794E0
:1028500008940994204B5A6942F400225A615A693B
:1028600002F400220192019A5A6942F480025A61EC
:102870005A6902F480020292029A5A6942F40032C2
:102880005A615A6902F400320392039A5A6942F477
:1028900080225A615B6903F480230493049B2246DF
:1028A00020214FF09040FEF785FB4FF40053059335
:1028B0000A4B0693079405A90948FEF7A5FA2023B9
:1028C0000593012306930794089405A94FF09040BF
:1028D000FEF79AFA0AB010BD001002400000211065
:1028E0000008004808B50948094B03604FF4E1337C
:1028F000436000238360C36003610C2242618361F3
:10290000C36103624362FFF737FE08BD580200202F
:102910000044004030B589B0002404940594069426
:1029200007940194029403940F4D4FF080432B6061
:1029300041F61F436B60AC6042F20F73EB602C6199
:10294000AC612846FFF77EFA4FF48053049304A944
:102950002846FFF79DFA0194039401A92846FFF742
:1029600023FB09B030BD00BF1802002038B500F0CD
:10297000A9FF154D85FB00231A18C317C3EBA2331B
:10298000C3EB0333DA00831A03F6FF730F4C84FBA7
:102990000312DB17C3EBA2030D4A138000F092FF72
:1029A00085FB00350544C317C3EBA533C3EB0333E5
:1029B000DA00831A03F6FF7384FB0324DB17C3EBEF
:1029C000A403044A138038BD8100088067666666E8
:1029D000C80200201402002008B508E0274B1B881D
:1029E000A3F5CD739BB240F6CC42934226D900F0BA
:1029F00069FF234A82FB0032C317C3EB221303EBA8
:102A0000830203EBC203C31A143B9BB21B4A128816
:102A100002FA83F1B1F5CD7FE0DB40F666618A42D0
:102A2000DCD81344154A1380D8E7164B1B88A3F54E
:102A3000CD739BB240F6CC4293421DD900F042FFC9
:102A40000F4A82FB0032C317C3EB221303EB83024E
:102A500003EBC203C31A143B9BB20A4A128802FA60
:102A600083F1B1F5CD7FE0DB40F666618A42DCD8C8
:102A70001344044A1380D8E708BD00BFC8020020F1
:102A80003F06E7631402002010B52DED028B2E4B9C
:102A90001888FDF7F7FC26A3D3E90023FDF75CFDBA
:102AA00025A3D3E90023FDF781FEFDF767FF08EEBC
:102AB000100A264B1888FDF7E5FC1DA3D3E9002377
:102AC000FDF74AFD1CA3D3E90023FDF76FFEFDF7D8
:102AD00055FFDFED1F7A07EE100A67EE277A17EE33
:102AE000900AFDF7E1FC12A3D3E90023FDF75EFE97
:102AF0000022184BFDF778FBFDF740FF164C2060D5
:102B0000DFED167A68EE277A17EE900AFDF7CCFC17
:102B100007A3D3E90023FDF749FE09A3D3E9002366
:102B2000FDF762FBFDF72AFF6060BDEC028B10BD74
:102B30006666666666660A400000000000FEAF40FA
:102B40000000000000B85040C8020020140200201D
:102B50000000FA4200002940F801002000C05A435A
:102B6000D0B594B03222002107A800F023FAFFF775
:102B70008BFF0F4C2068FDF797FC06460F460D4B68
:102B800004936068FDF790FCCDE9020125230093D2
:102B900032463B46084907A800F0C8FEC2B207A962
:102BA0000648FFF742FAFFF717FF14B0D0BD00BF89
:102BB000F8010020D8510008A85100085802002050
:102BC00030B58FB03222002101A800F0F3F92A4B72
:102BD0005B78A3F13002D2B2092A25D803EB830334
:102BE0005A002032D2B2244B9B78A3F13001C9B2F3
:102BF000092903D81A44D2B2303AD2B21E4BDB783C
:102C0000303BDBB2092B00D90023312A0ED91A49F7
:102C1000097876291BD0682923D004221649174841
:102C2000FFF729FA0FB030BD0022DCE701AC144DEC
:102C30000FCD0FC495E8070003C424F8022B120C33
:102C400022701A2201A90D48FFF7EFF9E5E70D49B7
:102C500001A800F06BFEC2B201A90848FFF7E5F930
:102C6000DBE7094901A800F061FEC2B201A90348EF
:102C7000FFF7DBF9D1E700BFCC02002058020020AB
:102C8000DC510008F85100081C52000830B5A7B00C
:102C9000242200211DA800F08DF900241794189417
:102CA00019941A941B945822214601A800F082F925
:102CB00002251C9501231F931023209322954FF486
:102CC000004323934FF4E01324931CA8FEF778F9F4
:102CD0000F231793189519944FF480631A931B943C
:102CE000294617A8FEF7B4FC044B019304940F94F3
:102CF00001A8FEF7AFFD27B030BD00BF02001000F5
:102D000008B5FDF7CFFFFFF7C1FFFFF79BFDFFF70A
:102D1000E9FDFFF7FFFD002000F028FE00F0AEFD0A
:102D2000FFF724FE0448FEF748FF04220349044845
:102D3000FFF7A1F9FEE700BF18020020CC02002037
:102D40005802002000B583B00C4B9A6942F0010292
:102D50009A619A6902F001020092009ADA6942F0DF
:102D60008052DA61DB6903F080530193019B0720F5
:102D7000FDF7BCFF03B05DF804FB00BF001002408C
:102D80000368B3F1804F00D0704700B583B003F5FE
:102D90000433DA6942F00102DA61DB6903F001030E
:102DA0000193019B002211461C20FDF7B1FF1C205E
:102DB000FDF7E2FF03B05DF804FB000000B589B049
:102DC0000023039304930593069307930268174B1C
:102DD0009A4202D009B05DF804FB03F5E633DA69E4
:102DE00042F40032DA61DA6902F400320192019AA7
:102DF0005A6942F400325A615B6903F4003302936A
:102E0000029B0C230393022304930723079303A934
:102E10004FF09040FDF7F8FF002211462620FDF705
:102E200077FF2620FDF7A8FFD4E700BF004400404D
:102E30007047FEE7FEE7FEE7FEE770477047704722
:102E400008B5FDF741FF08BD08B50248FEF7C5FE0D
:102E500008BD00BF1802002008B50248FFF742FC79
:102E600008BD00BF5802002008B503460B4A12688F
:102E700042B10A4A106803446A46934206D8074A98
:102E8000136008BD054A06491160F2E700F068F8D2
:102E90000C2303604FF0FF30F3E700BF0002002077
:102EA000D80200201549D1F8883043F47003C1F8E6
:102EB0008830134B1A6842F001021A605868114AB0
:102EC00002405A601A6822F0847222F480321A603A
:102ED0001A6822F480221A605A6822F4FE025A60AC
:102EE000DA6A22F00F02DA62186B074A02401A63AC
:102EF00000229A604FF000638B60704700ED00E0A5
:102F0000001002400CC07FF8CCFC00FFDFF834D08A
:102F1000002103E00C4B5B58435004310B480C4B31
:102F200042189A42F6D30B4A02E0002342F8043BCF
:102F3000094B9A42F9D3FFF7B5FF00F017F8FFF7F6
:102F4000DFFEFEE700000120A8540008000000207A
:102F5000DC010020DC010020D4020020FEE700009C
:102F6000014B1868704700BF0C00002070B50D4E73
:102F70000D4CA41BA4100025A54209D10B4E0C4CEE
:102F800002F0E8F8A41BA4100025A54205D170BDED
:102F900056F8253098470135EEE756F82530984722
:102FA0000135F2E7A0540008A0540008A05400081E
:102FB000A454000802440346934200D1704703F82A
:102FC000011BF9E72DE9FF4755EC104B0D9FDDF88C
:102FD00030A0002D0E4691461946B8BF22462B461A
:102FE00027F02007BBBF05F100431D4600232D231A
:102FF000B8BF1446462F0B7004D0452F00D10136C0
:10300000022100E0032103AB019302AB009332469F
:10301000534645EC104B00F04FFD472F804602D140
:1030200019F0010F26D0462F08EB060911D198F8A8
:103030000030302B0AD10022002320462946FDF71C
:103040009DFD18B9C6F10106CAF80060DAF8003033
:1030500099440022002320462946FDF78FFD38B908
:103060003022039B4B4505D2591C03911A70F8E797
:10307000CDF80C90039B0E9AA3EB08034046136017
:1030800004B0BDE8F087F7B500290446BABF49424D
:103090002D232B23092904F8022B437020DD0DF189
:1030A00007031F460A2691FBF6F506FB1511303182
:1030B000092D03F8011C03F1FF32294609DC3031E8
:1030C000023B02F8011CBB42224604D3101A03B093
:1030D000F0BD1346E7E713F8012B04F8012BF2E7E4
:1030E000302319448370021DC170EFE72DE9F04FC2
:1030F0008DB00C46DDF8588016461F46054601F097
:10310000A5FA036804931846FDF788FC00230A9388
:10311000D8F800300590073323F0070303F10802C5
:1031200094F818A0D4F800B0C8F80020D3E9002320
:10313000C4E91223D4E9128929F000430793CDF89A
:1031400018804FF0FF32A74BDDE90601FDF748FD7F
:1031500070BB4FF0FF32A34BDDE90601FDF722FD06
:1031600030BB0022002340464946FDF711FD10B157
:103170002D2384F843309C4A9C4BBAF1470F8CBFF7
:103180009046984603232BF00402236122604FF0FF
:103190000009009733460BAA2146284600F0E6F9BD
:1031A000013040F08D804FF0FF300DB0BDE8F08F62
:1031B00042464B4640464946FDF712FD10B18C4A47
:1031C0008C4BDAE761684B1C4BF480620AA83ED155
:1031D000062363600023CDE9020309AB009349ECA9
:1031E000108B0DF123032260CDF804A061682846FE
:1031F000FFF7E8FE0AF0DF03472B804609D1099B61
:10320000D81C02DB6268934247DDAAF1020A5FFA2A
:103210008AFABAF1650F099924D80139524604F1A6
:1032200050000991FFF72FFF0A9A1318012A8146CF
:10323000236102DC2268D10701D5013323619DF8A7
:103240002330002BA5D02D2384F84330A1E7BAF119
:10325000670F00F07781BAF1470FBBD10029B9D1D0
:103260000123B6E7BAF1660F19D1002963680CDDB6
:10327000216113B92268D20702D501330B442361BF
:10328000099BA3654FF00009D9E713B92268D0075D
:1032900001D50233F3E70123F1E74FF0670ADDE9D7
:1032A0000932934205DB22682361D107E8D5013357
:1032B000E5E7002BD4BFC3F1020301231344DEE78B
:1032C00023685A0507D42369424631462846B84741
:1032D00001302BD167E7BAF1650F40F2DC800022A4
:1032E0000023D4E91201FDF749FC002833D0012363
:1032F000414A31462846B84701303FF454AFDDE932
:1033000009239A4202DB2368D8070FD5DDE904239D
:1033100031462846B84701303FF445AF4FF000082A
:1033200004F11A090A9B013B434509DC23689B070A
:1033300000F10381E0680B9B9842B8BF184634E760
:1033400001234A4631462846B84701303FF42BAFA7
:1033500008F10108E6E7099B002B2BDC0123264A34
:1033600031462846B84701303FF41DAF099B23B9C9
:103370000A9B13B92368D907D8D5DDE90423314660
:103380002846B84701303FF40EAF4FF0000904F172
:103390001A0A099B5B424B4501DC0A9B94E7012317
:1033A000524631462846B84701303FF4FCAE09F199
:1033B0000109EEE70A9AA36D9A42A8BF1A46002AAD
:1033C000914607DD1346314642462846B84701304C
:1033D0003FF4E9AE04F11A034FF0000B29EAE97952
:1033E000069315E0FFFFEF7F4452000840520008AB
:1033F0004C52000848520008505200080123069A17
:1034000031462846B84701303FF4CDAE0BF1010BF1
:10341000D4F858A0AAEB09035B45EFDCDDE90923EA
:103420009A42D04415DB2368DA0712D40A9B099923
:10343000A3EB0A02A3EB010A9245A8BF9246BAF198
:10344000000F0EDC4FF000082AEAEA7A04F11A09AC
:1034500019E0DDE9042331462846B8470130E5D1BB
:10346000A1E65346424631462846B8470130E9D1E5
:1034700099E601234A4631462846B84701303FF4D1
:1034800092AE08F10108DDE909239B1AA3EB0A03B8
:103490004345EEDC4AE70A9A012A01DCDB073AD50C
:1034A0000123424631462846B84701303FF47BAEFF
:1034B000DDE9042331462846B847013008F1010808
:1034C0003FF471AE0A9B002203F1FF3AD4E91201E6
:1034D0000023FDF753FBC8B9534642463146284600
:1034E000B84701300ED15EE60123524631462846E8
:1034F000B84701303FF457AE08F101080A9B013B81
:103500004345F1DC4B4604F15002DEE64FF0000883
:1035100004F11A0AF2E70123DFE701234A463146A4
:103520002846B84701303FF43EAE08F10108E36891
:103530000B9A9B1A4345F0DCFCE64FF0000804F1BF
:103540001909F4E700293FF48BAE0023CDE902030B
:1035500009AB009349EC108B2260CDF804A00DF16B
:1035600023032846FFF72EFD804648E62DE9F04765
:1035700091461F468A680B69DDF820809342B8BFE8
:103580001346C9F8003091F8432006460C4612B1A4
:103590000133C9F800302368990642BFD9F80030DA
:1035A0000233C9F80030256815F0060507D104F18B
:1035B000190AE368D9F800209B1AAB4228DC94F87A
:1035C00043302268003318BF012392062DD404F142
:1035D000430239463046C047013020D02368E568B1
:1035E000D9F8002003F00603042B08BFAD1AA36826
:1035F00022690CBF25EAE57500259342C4BF9B1ADA
:10360000ED184FF000091A344D451AD1002008E09A
:103610000123524639463046C047013003D14FF0AE
:10362000FF30BDE8F0870135C3E7E1185A1C3020B0
:1036300081F84300224494F8451082F84310023385
:10364000C5E70123224639463046C0470130E6D05F
:1036500009F10109D8E700002DE9F04301F1430C1D
:103660000C46097E85B06E291746064698460C9A88
:1036700000F0B38022D8632936D00AD8002900F0A0
:10368000B980582900F0838004F1420584F8421083
:1036900032E0642901D06929F6D120681368050653
:1036A00003F104012AD51B681160002B03DA2D22D7
:1036B0005B4284F843206F480A2239E0732900F006
:1036C0009D8008D86F2920D07029DDD1236843F070
:1036D0002003236003E0752917D07829D4D17823FB
:1036E00084F84530644855E01368191D1B68116063
:1036F00004F1420584F8423001238CE01B6811601C
:1037000010F0400F18BF1BB2CFE713682568181DD3
:103710001060280601D51B6802E06806FBD51B88EF
:1037200054486F2914BF0A220822002184F843104C
:103730006568A560002DC0F29580216821F0040124
:103740002160002B3DD1002D40F08E806546082A77
:103750000BD12368DB0708D5236962689A42DEBF74
:10376000302305F8013C05F1FF35ACEB050323617F
:10377000CDF800803B4603AA21463046FFF7F6FE0F
:1037800001304DD14FF0FF3005B0BDE8F08339482E
:1037900084F84510136821681D1D1B6815600A0612
:1037A0000BD5CA0744BF41F0200121601BB9226834
:1037B00022F0200222601022B7E74D0648BF9BB2DC
:1037C000EFE76546B3FBF2F102FB1133C35C05F88A
:1037D000013D0B460029F5D1B9E7136825686169F9
:1037E000181D106028061B6801D5196002E06A06E2
:1037F000FBD51980002323616546B9E71368191DBD
:1038000011601D68626800212846FDF711F908B1B2
:10381000401B606063682361002384F84330A7E79E
:1038200023692A4639463046C0470130AAD023686A
:103830009B0713D4E068039B9842B8BF1846A3E7E0
:1038400001234A4639463046C04701309AD00135F7
:10385000E368039A9B1AAB42F2DCEBE7002504F124
:103860001909F5E7002BACD1037884F8423004F154
:1038700042056CE7525200086352000838B50D4B00
:103880001C68A36B05467BB9182000F0EDFE0A4AC0
:103890000A4BA063C0E90023094B83600B2383819B
:1038A00001220023C0E90423A36B00221D615A6199
:1038B00038BD00BF0C0000200E33CDAB34126DE6D6
:1038C000ECDE050038B5134B1C68A36B7BB91820E0
:1038D00000F0CAFE104A114BA063C0E90023104B50
:1038E00083600B23838101220023C0E90423A16BA1
:1038F0000C480A694B690C4C504304FB0300A2FBC3
:1039000004230344541C43F10005C1E9044525F098
:10391000004038BD0C0000200E33CDAB34126DE6F4
:10392000ECDE05002DF451582D7F954C0EB400B5FA
:103930009CB01DAB029006906FF0004109480791C2
:103940000491094953F8042B05910068019302A9D9
:1039500001F088FA029B00221A701CB05DF804EB9B
:1039600003B070470C0000200802FFFF1FB50B4B8F
:10397000044600226946186800F056FE002805DA61
:103980004FF0FF324FF0FF33CDE90023DDE90001B6
:103990000CB1C4E9000104B010BD00BF0C00002050
:1039A0002DE9F74F03690C69A3428046C0F282807B
:1039B000013C01F114074FEA840C00F1140657F89A
:1039C000245056F8240006EB0C03013507EB0C09D4
:1039D0000193B0FBF5F595B34FF0000A3846B646B3
:1039E000D34650F8042B93B205FB03A34FEA134AC6
:1039F0009BB2ABEB0303120CDEF800B005FB02A296
:103A000013FA8BF34FEA124A1FFA82FBDEF800200A
:103A1000CBEB124202EB23429BB243EA02438145C5
:103A20004FEA224B4EF8043BDBD256F80C3033B948
:103A3000019B043B9E421A4630D3C8F810404046D2
:103A400001F03AF8002825DB013530464FF0000C34
:103A500057F8042BD0F800E093B2ACEB0303120C40
:103A600013FA8EF3C2EB1E4202EB23429BB243EAEF
:103A70000243B9454FEA224C40F8043BE8D256F8DD
:103A8000242006EB84032AB9043B9E421A460BD33A
:103A9000C8F81040284603B0BDE8F08F1268043B18
:103AA000002ACAD1013CC5E71268043B002AEFD1C5
:103AB000013CEAE70020EEE72DE9F04F57EC106BF0
:103AC00097B0456A069104460B921293DDF8808008
:103AD000CDE900673DB9102000F0C6FD6062C0E985
:103AE00001550560C560636A196851B15A684A603A
:103AF000012393408B60204600F0FDFD636A0022A5
:103B00001A603B1EBBBF23F0004301930023012238
:103B1000ACBFC8F80030C8F80020AF4BDDF8048017
:103B200033EA080314D1129A42F20F731360009B18
:103B300023B9C8F31300002800F04285219BDFF869
:103B4000ACB2002B00F044850BF1030300F03EBD46
:103B5000DDE900670022002330463946FDF70EF804
:103B6000814668B1129A01231360219B002B00F05B
:103B700024859A4B219A03F1FF3B136000F028BD86
:103B800014AA15A947EC106B204601F00CF8C8F3F5
:103B90000A550490002D7CD0C7F3130343F07F5BDC
:103BA000B2464BF4401BA5F2FF35CDF84C900022F5
:103BB0008B4B50465946FCF717FB81A3D3E90023F2
:103BC000FCF7CAFC80A3D3E90023FCF70FFB0646F1
:103BD00028460F46FCF756FC7DA3D3E90023FCF7EB
:103BE000BBFC02460B4630463946FCF7FFFA064658
:103BF0000F46FDF70BF80022824600233046394677
:103C0000FCF7C6FF48B15046FCF73CFC32463B4649
:103C1000FCF7B4FF08B90AF1FF3ABAF1160F59D808
:103C2000704901EBCA01DDE90023D1E90001FCF78D
:103C3000CDFF002850D00AF1FF3A00230F93149BC8
:103C40005D1BB5F1010849BFC5F1010300230593D0
:103C50004FF0000858BF0593BAF1000F3EDB002378
:103C6000D044CDF838A00793069B092B00F2908032
:103C7000052BC4BF043B0693069BA3F10203CCBFF4
:103C800000250125032B00F28F80DFE803F07D7F04
:103C90003171DDE914531D4405F23240202813DD53
:103CA000C0F14000009B08FA00F805F2124023FA28
:103CB00000F048EA0000FCF7D5FB01238246A1F1A1
:103CC000F87B013D139372E7009BC0F1200003FADB
:103CD00000F0F0E70123B1E70F90B0E7059BA3EBFD
:103CE0000A030593CAF10003079300230E93BBE771
:103CF00001230A930B9B002B59DD02939946666AB8
:103D000000227260042202F114009842716853D9B3
:103D1000204600F0BCFC636A3060B9F10E0FD3F8A6
:103D200000B000F2E680002D00F0E3809DED007B06
:103D3000BAF1000F8DED107B74DD2A4A0AF00F03F3
:103D400002EBC30393ED007B4FEA2A16F0068DEDDC
:103D5000087B65D5244BDDE91001D3E90823FCF786
:103D600025FDCDE9000106F00F0603251E4F4CE0AE
:103D700001230A930B9B534403F1010902934B4621
:103D8000012BB8BF0123BAE70023B2E70023F0E715
:103D90000125002306930A954FF0FF3302939946BD
:103DA000002212230B92AAE701230A93F4E70123CE
:103DB000029399461A46F5E7013171605200A2E775
:103DC00061436F63A787D23FB3C8608B288AC63F21
:103DD000FB799F501344D33F0000F07F51520008FD
:103DE0000000F83FB0520008885200087D520008D9
:103DF000F10708D5DDE90801D7E90023FCF7ACFBA2
:103E0000CDE90801013576100837002EF0D1DDE943
:103E10000823DDE90001FCF7C9FCCDE900011AE047
:103E20000225A3E700F0A080CAF100069F4BA04F37
:103E300006F00F0203EBC203D3E90023DDE9100112
:103E4000FCF78AFBCDE90001361100230225002E84
:103E50007FD1002BE1D10F9B002B00F08780DDE9A3
:103E600000670022934B30463946FCF791FE00284C
:103E70007CD0B9F1000F79D0029B002B35DD0AF11F
:103E8000FF330893394600228B4B3046FCF764FB26
:103E9000CDE90001029F01352846FCF7F3FADDE980
:103EA0000023FCF759FB0022844BFCF79FF90546E1
:103EB000A1F15076002F5DD10022814BDDE9000198
:103EC000FCF792F92A463346CDE90001FCF77EFE65
:103ED000002840F088822A4606F10043DDE900010F
:103EE000FCF756FE002840F07C82DDE91023CDE986
:103EF0000023159B002BC0F25081BAF10E0F00F386
:103F00004C816A4B03EBCA0393ED007B0B9B002BA8
:103F10008DED027B80F2D880B9F1000F00F3D480E0
:103F200040F05E820022664B51EC170BFCF714FB4D
:103F3000DDE90023FCF740FE4F464E46002840F0E6
:103F4000348231230BF101058BF800300AF1010AAC
:103F50002FE2F20705D5D7E90023FCF7FDFA01357A
:103F600001237610083772E7022574E7CDF820A008
:103F70004F4691E74D4B03EBC70353E902010A9B00
:103F8000002B47D002460B4600204E49FCF70EFCA2
:103F90002A463346FCF728F9CDE90C015D46DDE9F8
:103FA0000001FCF733FE0646FCF76CFA02460B46AE
:103FB000DDE90001FCF718F9303605F8016BDDE9A1
:103FC0000C23CDE90001FCF7E3FD002863D1DDE916
:103FD000002300203749FCF707F9DDE90C23FCF743
:103FE000D7FD002840F0B780A5EB0B039F427FF779
:103FF0007CAF0022304BDDE90C01FCF7ADFA00226A
:10400000CDE90C012C4BDDE90001FCF7A5FACDE967
:104010000001C4E72A463346FCF79EFACDE90C01BD
:104020000BEB07055E46DDE90001FCF7EFFD0746F7
:10403000FCF728FA303702460B46DDE90001FCF7B1
:10404000D3F806F8017BAE42CDE900014FF0000243
:1040500026D11C4BDDE90C01FCF7C8F802460B46E3
:10406000DDE90001FCF7B2FD002874D1DDE90C2385
:1040700000201449FCF7B8F802460B46DDE90001C0
:10408000FCF786FD00283FF430AF15F8013C302BDB
:1040900005F1FF3202D0DDF820A04AE01546F4E732
:1040A000054BFCF759FACDE90001BCE7B052000816
:1040B000885200080000F03F0000244000001C402F
:1040C000000014400000E03FDDE900675D46DDE9E7
:1040D000022330463946FCF769FBFCF797FD804622
:1040E000FCF7D0F9DDE90223FCF736FA02460B466D
:1040F0003046394608F13006FCF776F805F8016BD2
:10410000A5EB0B06B14502460B4639D1FCF76EF81C
:10411000DDE9022306460F46FCF758FDC8B9DDE984
:10412000022330463946FCF729FD10B118F0010F83
:104130000FD10499204600F0DEFA0023129A2B706A
:104140000AF101031360219B002B00F041821D60E6
:104150003EE2CDF820A015F8012C392A05F1FF33F5
:1041600008D19B450AD1089B0133089330238BF873
:1041700000305B461A7801321A708CE71D46EAE778
:1041800000229B4BFCF7E8F90022002306460F466D
:10419000FCF7F4FC00289AD0CBE70A9A002A00F03A
:1041A0008B80069A012A6EDC139A002A67D003F2EC
:1041B0003343079F059D059A01211A442046059225
:1041C000984400F038FB0646002D0CDDB8F1000FD6
:1041D00009DD4545059A2B46A8BF4346D21A0592EC
:1041E000ED1AA8EB0308079BEBB10A9B002B67D0E5
:1041F0008FB131463A46204600F0BCFB049A014696
:104200000646204600F020FB04990890204600F066
:1042100072FA089B0493079BDA1B04D0049920468A
:1042200000F0A8FB04900121204600F004FB0E9B47
:104230000746002B00F0D0811A460146204600F0C8
:1042400099FB069B012B074640DC009B002B39D1D4
:10425000019BC3F31303002B36D1019B23F00043D2
:104260001B0D1B052BB1059B0133059308F10108BC
:10427000012307930E9B002B2AD1012030E0149BD1
:10428000C3F1360395E7079B09F1FF37BB42BFBF78
:10429000079B0797FA1A0E9BBBBF9B180E93DF1B59
:1042A0000027B9F1000FB5BF059B059DA3EB0905DC
:1042B0004B46B8BF00237EE7079F059D0A9E83E714
:1042C000079AABE70023D4E7009BD2E700230793CC
:1042D0003B6907EB8303186900F05FFAC0F1200027
:1042E000404410F01F0047D0C0F12003042B3BDDF9
:1042F000059BC0F11C000344059305448044059BC5
:10430000002B05DD1A460499204600F081FB04903D
:10431000B8F1000F05DD39464246204600F078FB33
:1043200007460F9B53B33946049800F0C5FB00289D
:1043300024DA00230A220499204600F0F3F90A9BAC
:1043400004900AF1FF3A002B00F04D810023314622
:104350000A22204600F0E6F9029B002B06464FDCBD
:10436000069B022B4CDD11E0C9D0059A1C331A4480
:1043700005921D449844C2E70346F6E7B9F1000FE1
:1043800038DC069B022B35DDCDF80890029B63B923
:1043900039460522204600F0C5F901460746049833
:1043A00000F08AFB00283FF7CCAD0B9B5D466FEA1F
:1043B000030A4FF000093946204600F09CF9002E10
:1043C0003FF4B7AEB9F1000F05D0B14503D049466F
:1043D000204600F090F93146204600F08CF9A8E61E
:1043E00000273E46E1E7DDF820A03E46A9E500BFF4
:1043F000000024400A9BCDF80890002B00F0FA80C2
:10440000002D05DD31462A46204600F001FB064618
:10441000079B002B4CD07168204600F038F93269B8
:1044200002320546920006F10C010C3000F024F92E
:1044300001222946204600F0EBFA009BCDF814B08B
:1044400003F00103B1460793064639460498FFF787
:10445000A7FA4946054600F13008049800F02CFB05
:10446000324600903946204600F040FBC3680246C1
:1044700003BB01460890049800F01EFB089A03460F
:1044800011462046089300F036F9089BA3B9069A16
:1044900092B9079A82B9B8F1390F29D0009B002B45
:1044A00001DD05F13108059B5D1C83F8008082E782
:1044B0003046C2E70123E3E7009A002A04DB25D156
:1044C000069A1ABB079A0ABB002BECDD012204995D
:1044D000204600F09DFA3946049000F0EDFA0028DD
:1044E00003DCE0D118F0010FDDD0B8F1390FD8D1DD
:1044F000059B059A5D1C3923137015F8013C392B77
:1045000005F1FF324FD00133137054E7059A002BA9
:1045100002F1010506DDB8F1390FE9D008F1010813
:10452000059BC2E7029A05F8018CA5EB0B039342A9
:1045300021D000230A220499204600F0F3F8B14567
:1045400004904FF000034FF00A024946204605D17F
:1045500000F0E8F881460646059576E700F0E2F8B7
:104560003146814600230A22204600F0DBF8064649
:10457000F2E74FF0000901220499204600F048FAC2
:104580003946049000F098FA0028B6DC02D118F001
:10459000010FB2D115F8013C302B05F1FF327FF449
:1045A0000AAF1546F6E7934505D131230AF1010A12
:1045B0008BF80030FFE615469FE7DFF864B007E0B0
:1045C000219BDFF860B01BB10BF10803219A136047
:1045D000584617B0BDE8F08F069B012B7FF735AE2C
:1045E0000E9B079349E6029B002B03DC069B022BE4
:1045F0003FF7CCAE5D4639460498FFF7D1F900F19C
:10460000300805F8018B029AA5EB0B039A42B0DD46
:1046100000230A220499204600F084F80490EAE777
:10462000505200087452000838B5074C0023054664
:1046300008461146236000F085FD431C02D1236823
:1046400003B12B6038BD00BFD0020020044B1B68B3
:10465000186A044B002808BF1846F030704700BFA6
:104660000C00002070000020024B0146186800F08A
:1046700045BB00BF0C00002010B5431E0A44914208
:1046800000D110BD11F8014B03F8014FF7E770B5E9
:10469000456A04460E463DB91020FFF7E5FF60620B
:1046A000C0E901550560C560656AEB6883B1636A5E
:1046B000DB6853F82600B8B9012101FA06F56A1D36
:1046C0009200204600F0BEFA60B1C0E901650EE03C
:1046D00021220421204600F0B5FA636AE860DB6815
:1046E000002BE4D1002070BD026843F8262000238F
:1046F000C0E90333F7E770B5446A06460D463CB996
:104700001020FFF7B1FF7062C0E901440460C4608B
:104710003DB1736A6A68DB6853F82210296043F878
:10472000225070BD2DE9F0410D691F4606460C462A
:1047300001F1140C0023DCF8000081B202FB0171CE
:104740000F0C000C02FB007089B2013301EB004139
:104750009D424FEA10474CF8041BECDCD7B1A3682C
:10476000AB4212DC616830460131FFF790FF2269ED
:10477000023204F10C01804692000C30FFF77CFFFE
:1047800021463046FFF7B7FF444604EB8503013569
:104790005F6125612046BDE8F081020C12040346EA
:1047A000B2B90304102013F07F4F04BF1B0208307E
:1047B00013F0704F04BF1B01043013F0404F04BFCF
:1047C0009B000230002B06DB5B0003D501307047F5
:1047D0000020E8E720207047036813F00702014635
:1047E0000BD0DA0723D4980749BF5B089B08012048
:1047F0000B605CBF0B600220704798B2A8B91B0C1D
:10480000102013F0FF0F04BF1B0A08301A0704BF63
:104810001B0904309A0704BF9B080230DA0702D450
:104820005B0806D001300B6070471046E9E70020B6
:1048300070472020704710B50C460121FFF727FF75
:1048400001224461026110BD2DE9F74F14460A6947
:1048500023699A42B8BF0B468846BCBFA0461C4697
:10486000D8F81070D4F81090D8F80830D8F80410A0
:1048700007EB0906B342B8BF0131FFF708FF00F1AB
:10488000140505EB860E2B460022734516D304F162
:10489000140208F1140102EB890301EB870700936E
:1048A000009B019293420CD8002E03DD5EF8043D7C
:1048B000002B5DD0066103B0BDE8F08F43F8042BF8
:1048C000E3E7B2F800B0BBF1000F23D08946AC4655
:1048D0004FF0000859F8044BDCF800A0A3B21FFA0F
:1048E0008AFA0BFB03A34FEA144ADCF80040434466
:1048F0004FEA14480BFB0A8404EB1344E2469BB2D4
:1049000043EA04434F454FEA14484AF8043B2BD886
:10491000CCF80480019BB3F802A00432BAF1000F76
:1049200020D02B688946A8464FF0000BB9F800C08C
:10493000B8F802400AFB0C445C44C4469BB243EA0C
:1049400004434CF8043B59F8043BB8F804B01B0C82
:104950000AFB03B303EB14434F454FEA134B05D84F
:10496000C8F8043004359BE7D446B3E7E046DDE7FA
:10497000013E99E72DE9F843154612F00302064679
:104980000F4607D0013A214C002354F82220FFF7AC
:10499000C9FE0746AD1035D0746A3CB91020FFF748
:1049A00063FE7062C0E901440460C460D6F82480EC
:1049B000D8F808404CB940F271213046FFF73BFF70
:1049C0000023C8F80800044603604FF00008EB0716
:1049D0000AD5394622463046FFF736FF394681462A
:1049E0003046FFF788FE4F466D100BD0206838B96F
:1049F000224621463046FFF727FF2060C0F800809E
:104A00000446E4E73846BDE8F88300BF7853000861
:104A10002DE9F0470C464FEA621A236949680AEB10
:104A20000309A3680746164609F10105AB4232DBCC
:104A30003846FFF72CFE0023804600F114011A4689
:104A400053452BDB20692AEAEA7A04F1140316F0B5
:104A50001F0201EB8A0103EB800C25D0C2F1200E6E
:104A600000201E688A46964030434AF8040B53F8EB
:104A7000040B9C4520FA0EF014D8486008B109F1E7
:104A80000205013D3846C8F810502146FFF733FEB5
:104A90004046BDE8F08701315B00C7E741F82320BD
:104AA0000133CDE75146DCE7043953F8042B41F8D4
:104AB000042F9C45F9D8E4E703690A699B1A30B5CD
:104AC0000CD19200143014318418114454F8045D50
:104AD00051F8042D954203D005D30123184630BD6B
:104AE000A042F3D3FAE74FF0FF33F7E72DE9F047A1
:104AF0000D460746114628461446FFF7DDFF061E01
:104B000008D131463846FFF7C2FD0123C0E904361B
:104B1000BDE8F087A4BF23462C4638466168A6BF8F
:104B20001D4600260126FFF7B2FD2B69C6602669E7
:104B300005F1140904F1140202EB860709EB83085E
:104B400000F114054FF0000E52F804AB59F8044B75
:104B50001EFA8AF1A3B2C91A230CC3EB1A4303EB62
:104B6000214389B24FEA234EC84541EA03439446A4
:104B700045F8043BE8D8BC4504D355F8043D83B15F
:104B80000661C5E75CF8041B1EFA81F31A1402EBF8
:104B900011429BB243EA02434FEA224E45F8043BDE
:104BA000E9E7013EE9E72DE9F7430E46012159EC1B
:104BB000108B1546FFF76BFDC9F30A540746C9F37E
:104BC000130334BB0193B8F1000327D002A840F8C7
:104BD000083DFFF701FE0099F0B1019AC0F12003F2
:104BE00002FA03F30B43C2407B610192019BBB615C
:104BF000002B14BF022101213961C4B1A4F2334456
:104C000004443460C0F135002860384603B0BDE884
:104C1000F08343F48013D5E77961E7E701A8FFF754
:104C2000DBFD019B7B61012139612030E5E707EB6A
:104C30008103A0F2324030601869FFF7AEFDC0EB8F
:104C40004110E1E738B502FB01F4214600F056F8C7
:104C5000054618B122460021FEF7ACF9284638BDBA
:104C600038B50546002945D051F8043C0C1F002BEF
:104C7000B8BFE41800F029FA1F4A1368104633B988
:104C8000636014602846BDE8384000F01FBAA342B4
:104C90000CD921686218934204BF1A685B6863608C
:104CA00004BF521822600460ECE713465A680AB148
:104CB000A242FAD919685818A0420BD120680144C1
:104CC000581882421960DDD1106852685A60014458
:104CD0001960D7E702D90C232B60D3E7206821188D
:104CE0008A4204BF11685268626004BF09182160DB
:104CF0005C60C7E738BD00BF0802002070B5CD1C5E
:104D000025F0030508350C2D38BF0C25002D06466F
:104D100001DBA94203D90C233360002070BD00F0F1
:104D2000D4F9214A1468214691B9204C23681BB953
:104D3000304600F08FF920602946304600F08AF9AD
:104D4000431C24D10C233360304600F0BFF9E4E764
:104D50000B685B1B18D40B2B0FD90B60CD50CC18F4
:104D6000304600F0B3F904F10B00231D20F00700DA
:104D7000C31AD3D05A42E250D0E78C424B6816BFD8
:104D8000636013600C46EBE70C464968CCE7C41C33
:104D900024F00304A04205D0211A304600F05AF94D
:104DA0000130CFD02560DBE7080200200C02002094
:104DB0002DE9F0478E689E4282460C469046994601
:104DC00037D88A8912F4906F31D0256809696F1A33
:104DD0006569022305EB450595FBF3F509F1010330
:104DE0003B449D4238BF1D46530530D52946FFF749
:104DF00085FF064650B90C23CAF80030A38943F05A
:104E00004003A3814FF0FF30BDE8F0873A462169A7
:104E1000FFF732FCA38923F4906343F08003A3815E
:104E2000266165613E44ED1B2660A5604E464E45F9
:104E300000D94E4632464146206800F02DF9A3685D
:104E40009B1BA36023681E4426600020DCE72A46E3
:104E500000F03DF906460028E2D121695046FFF7EF
:104E6000FFFEC8E72DE9F04F1D468B891F069DB058
:104E700080460C4616460FD50B696BB94021FFF7EB
:104E80003DFF2060206128B90C23C8F800304FF0A6
:104E9000FF30C8E0402363610023099320238DF88D
:104EA000293030238DF82A3003954FF0010B374617
:104EB0003D4615F8013B0BB1252B3ED1B7EB060A59
:104EC0000BD05346324621464046FFF771FF013072
:104ED00000F0A480099B534409933B78002B00F019
:104EE0009D8000234FF0FF32CDE905230493079303
:104EF0008DF853301A932F46052217F8011B50489E
:104F0000FBF796FD049BD0B9D90644BF20228DF84B
:104F100053201A0744BF2B228DF853202A782A2ABF
:104F200015D0079A2F4600200A25394611F8013B73
:104F3000303B092B4DD9B8B10FE02F46B8E7404AB6
:104F4000801A0BFA00F0184304903D46D3E7039A09
:104F5000111D12680391002A01DB079204E05242FE
:104F600043F00203079204933B782E2B0CD17B78FD
:104F70002A2B33D1039B1A1D1B680392002BB8BF49
:104F80004FF0FF33023705932E4D39780322284620
:104F9000FBF74EFD38B14023401B03FA00F0049BA1
:104FA000034301370493397827488DF828100622E7
:104FB0007E1CFBF73DFD002838D0244B13BB039B20
:104FC000073323F0070308330393099B4B440993EA
:104FD0006DE705FB023201200F46A6E700230137EB
:104FE000059319460A25384610F8012B303A092A4C
:104FF00003D9002BC8D00591C6E705FB0121012389
:105000000746F0E703AB00932246114B04A9404644
:10501000FEF76CF8B0F1FF3F8146D6D1A3895B065D
:105020003FF535AF09981DB0BDE8F08F03AB009395
:105030002246074B04A94046FEF70EFBEAE700BFF5
:10504000845300088A5300088E530008ED3000088E
:10505000B14D000838B5064C0023054608462360CC
:10506000FDF702FF431C02D1236803B12B6038BD5A
:10507000D002002082B001B901A942B14BB113782E
:105080000B601278101C18BF012002B07047104648
:10509000FBE76FF00100F8E7884210B501EB02036F
:1050A00007D8421E99420AD011F8014B02F8014F6D
:1050B000F8E78342F5D98118D21AD34200D110BD46
:1050C00013F8014D01F8014DF7E770477047F8B547
:1050D000074614460E4621B91146BDE8F840FFF7D1
:1050E0000DBE22B9FFF7BCFD25462846F8BD00F0ED
:1050F00021F8A0420FD221463846FFF7FFFD0546B2
:105100000028F2D031462246FFF7B6FA314638463B
:10511000FFF7A6FDE9E73546E7E749B1FF2A85BF76
:105120008A2303600A704FF0FF3098BF0120704758
:105130000846704751F8043C181F002BBCBF0B58A1
:10514000C0187047024B58221A604FF0FF3070476A
:10515000D0020020F8B500BFF8BC08BC9E467047DE
:0C516000F8B500BFF8BC08BC9E467047C4
:1051700002030405060708090A0B0C0D0E0F101098
:105180000102030405060708090A0B0C0D0E0F1097
:1051900000000000000000000102030406070809E7
:1051A000000000000102030457696C676F746E6FA2
:1051B00073633A20252E326625632E0D0A54656DE1
:1051C00070657261747572613A20252E326625739E
:1051D0002E0D0A0D0A0000002A4300005A61206DBE
:1051E000616C6520777970656C6E69656E696520A4
:1051F00050574D2E0D0A00005275636820772070BD
:10520000696F6E6965207A20443D25642070727A4A
:10521000657A202564732E0D0A00000052756368BC
:10522000207720706F7A696F6D6965207A20443D20
:1052300025642070727A657A202564732E0D0A0029
:10524000494E4600696E66004E414E006E616E002A
:105250003000303132333435363738394142434407
:105260004546003031323334353637383961626380
:1052700064656600496E66696E697479004E614EB8
:1052800000000000000000000080E03779C34143C7
:10529000176E05B5B5B89346F5F93FE9034F384D9C
:1052A000321D30F94877825A3CBF737FDD4F157548
:1052B000000000000000F03F00000000000024405B
:1052C00000000000000059400000000000408F4036
:1052D000000000000088C34000000000006AF840A1
:1052E0000000000080842E4100000000D0126341C5
:1052F0000000000084D797410000000065CDCD413B
:10530000000000205FA00242000000E8764837421B
:10531000000000A2941A6D42000040E59C30A242B9
:105320000000901EC4BCD64200003426F56B0C432E
:105330000080E03779C3414300A0D88557347643D5
:1053400000C84E676DC1AB43003D9160E458E14336
:10535000408CB5781DAF154450EFE2D6E41A4B44AB
:1053600092D54D06CFF08044F64AE1C7022DB544F0
:10537000B49DD9794378EA44050000001900000083
:105380007D000000232D302B2000686C4C006566EA
:1053900067454647004300504F534958002E0000D0
:1053A00020202020202020202028282828282020D5
:1053B00020202020202020202020202020202020ED
:1053C0008810101010101010101010101010101065
:1053D0000404040404040404040410101010101045
:1053E000104141414141410101010101010101011E
:1053F0000101010101010101010101101010101052
:1054000010424242424242020202020202020202EE
:105410000202020202020202020202101010102016
:10542000000000000000000000000000000000007C
:10543000000000000000000000000000000000006C
:10544000000000000000000000000000000000005C
:10545000000000000000000000000000000000004C
:10546000000000000000000000000000000000003C
:10547000000000000000000000000000000000002C
:10548000000000000000000000000000000000001C
:10549000000000000000000000000000000000000C
:0454A000C50100083A
:0454A400A10100085A
:1054A800010000001000000000127A001000002027
:1054B80000000000000000000000000000000000E4
:1054C80000000000000000000000000000000000D4
:1054D80000000000000000000000000000000000C4
:1054E80000000000000000000000000000000000B4
:1054F80000000000000000000000000000000000A4
:105508000000000000000000000000000000000093
:105518004300000000000000000000000000000040
:105528000000000000000000000000000000000073
:105538004300000000000000000000000000000020
:105548000000000000000000000000000000000053
:105558004300000000000000000000000000000000
:105568000000000000000000000000000000000033
:1055780043000000000000000000000000000000E0
:105588000000000000000000000000000000000013
:1055980043000000000000000000000000000000C0
:1055A80000000000000000000000000000000000F3
:1055B80043000000000000000000000000000000A0
:1055C80000000000000000000000000000000000D3
:1055D8004300000000000000000000000000000080
:1055E80000000000000000000000000000000000B3
:1055F8001B51000875500008000000009F53000868
:105608009D530008895300088953000889530008EE
:1056180089530008895300088953000889530008F2
:105628008953000889530008FFFFFFFFFFFFFFFFB2
:10563800FFFFFFFFFFFF00000100415343494900FE
:105648000000000000000000000000000000000052
:1056580000000000000000000000415343494900D9
:105668000000000000000000000000000000000032
:0C56780000000000000000000000000026
:0400000508002F0DB3
:00000001FF
