:020000040800F2
:100000000000012019310008513000085330000869
:100010005530000857300008593000080000000033
:100020000000000000000000000000005B3000083D
:100030005D300008000000005F30000861300008FB
:100040006931000869310008693100086931000828
:100050006931000869310008693100086931000818
:100060006931000869310008693100086931000808
:1000700069310008693100086931000869310008F8
:1000800069310008693100086931000869310008E8
:1000900069310008693100086931000869310008D8
:1000A00069310008693100086931000869310008C8
:1000B00065300008693100086931000869310008BD
:1000C00069310008693100086931000869310008A8
:1000D0006931000869310008713000086931000891
:1000E0006931000869310008693100086931000888
:1000F0006931000869310008693100086931000878
:1001000069310008000000000000000069310008AB
:100110006931000869310008693100086931000857
:100120006931000869310008693100086931000847
:10013000693100086931000800000000000000007B
:1001400069310008693100086931000800000000C9
:10015000000000000000000000000000000000009F
:100160006931000869310008693100086931000807
:1001700069310008693100086931000869310008F7
:10018000693100086931000800000000000000002B
:0401900069310008C9
:1001A00010B5054C237833B9044B13B10448AFF3B1
:1001B00000800123237010BD7000002000000000AB
:1001C000483B000808B5034B1BB103490348AFF394
:1001D000008008BD0000000074000020483B0008BB
:1001E00001F0FF01102A2BDB10F0070F08D010F8E8
:1001F000013B013A8B422DD010F0070F42B3F6D1EC
:10020000F0B441EA012141EA014122F007047FF004
:1002100000070023F0E80256083C85EA010586EA5B
:10022000010685FA47F5A3FA87F586FA47F6A5FA97
:1002300087F68EB9EED1F0BC01F0FF0102F00702A3
:1002400032B110F8013B013A83EA010313B1F8D14E
:100250000020704701387047002D06BF354603382F
:10026000073815F0010F07D1013015F4807F02BF68
:10027000013015F4C03F0130F0BC0138704700BFB9
:1002800081F0004102E000BF83F0004330B54FEA47
:1002900041044FEA430594EA050F08BF90EA020FB4
:1002A0001FBF54EA000C55EA020C7FEA645C7FEA47
:1002B000655C00F0E2804FEA5454D4EB5555B8BF6A
:1002C0006D420CDD2C4480EA020281EA030382EADB
:1002D000000083EA010180EA020281EA0303362D6D
:1002E00088BF30BD11F0004F4FEA01314FF4801C40
:1002F0004CEA113102D0404261EB410113F0004F52
:100300004FEA03334CEA133302D0524263EB430308
:1003100094EA050F00F0A780A4F10104D5F1200EA6
:100320000DDB02FA0EFC22FA05F2801841F1000101
:1003300003FA0EF2801843FA05F359410EE0A5F1D5
:1003400020050EF1200E012A03FA0EFC28BF4CF006
:10035000020C43FA05F3C01851EBE37101F00045BC
:1003600007D54FF0000EDCF1000C7EEB00006EEBC9
:100370000101B1F5801F1BD3B1F5001F0CD3490853
:100380005FEA30004FEA3C0C04F101044FEA4452AA
:1003900012F5800F80F09A80BCF1004F08BF5FEA31
:1003A000500C50F1000041EB045141EA050130BD11
:1003B0005FEA4C0C404141EB010111F4801FA4F1B4
:1003C0000104E9D191F0000F04BF01460020B1FA09
:1003D00081F308BF2033A3F10B03B3F120020CDA41
:1003E0000C3208DD02F1140CC2F10C0201FA0CF01F
:1003F00021FA02F10CE002F11402D8BFC2F1200C84
:1004000001FA02F120FA0CFCDCBF41EA0C01904039
:10041000E41AA2BF01EB0451294330BD6FEA040482
:100420001F3C1CDA0C340EDC04F11404C4F120026D
:1004300020FA04F001FA02F340EA030021FA04F37F
:1004400045EA030130BDC4F10C04C4F1200220FAD6
:1004500002F001FA04F340EA0300294630BD21FA14
:1004600004F0294630BD94F0000F83F4801306BFDA
:1004700081F480110134013D4EE77FEA645C18BFCE
:100480007FEA655C29D094EA050F08BF90EA020F65
:1004900005D054EA000C04BF1946104630BD91EA5D
:1004A000030F1EBF0021002030BD5FEA545C05D160
:1004B0004000494128BF41F0004130BD14F580049F
:1004C0003CBF01F5801130BD01F0004545F0FE4113
:1004D00041F470014FF0000030BD7FEA645C1ABF48
:1004E000194610467FEA655C1CBF0B46024650EA7F
:1004F000013406BF52EA033591EA030F41F40021AB
:1005000030BD00BF90F0000F04BF0021704730B530
:100510004FF4806404F132044FF000054FF0000105
:1005200050E700BF90F0000F04BF0021704730B5C6
:100530004FF4806404F1320410F0004548BF40429B
:100540004FF000013EE700BF42004FEAE2014FEAF0
:1005500031014FEA02701FBF12F07F4393F07F4FCB
:1005600081F06051704792F0000F14BF93F07F4FFD
:10057000704730B54FF4607401F0004521F0004140
:1005800020E700BF50EA010208BF704730B54FF0C6
:1005900000050AE050EA010208BF704730B511F0CB
:1005A000004502D5404261EB41014FF4806404F103
:1005B00032045FEA915C3FF4DCAE4FF003025FEA85
:1005C000DC0C18BF03325FEADC0C18BF033202EB0D
:1005D000DC02C2F1200300FA03FC20FA02F001FA67
:1005E00003FE40EA0E0021FA02F11444C1E600BF06
:1005F00070B54FF0FF0C4CF4E06C1CEA11541DBFB9
:100600001CEA135594EA0C0F95EA0C0F00F0DEF883
:100610002C4481EA030621EA4C5123EA4C5350EA68
:10062000013518BF52EA033541F4801143F48013B9
:1006300038D0A0FB02CE4FF00005E1FB02E506F04A
:100640000042E0FB03E54FF00006E1FB03569CF09F
:10065000000F18BF4EF0010EA4F1FF04B6F5007FA5
:1006600064F5407404D25FEA4E0E6D4146EB060617
:1006700042EAC62141EA55514FEAC52040EA5E50A0
:100680004FEACE2EB4F1FD0C88BFBCF5E06F1ED84A
:10069000BEF1004F08BF5FEA500E50F1000041EB81
:1006A000045170BD06F0004646EA010140EA02002E
:1006B00081EA0301B4EB5C04C2BFD4EB0C0541EA50
:1006C000045170BD41F480114FF0000E013C00F365
:1006D000AB8014F1360FDEBF002001F0004170BD89
:1006E000C4F10004203C35DA0C341BDC04F11404A2
:1006F000C4F1200500FA05F320FA04F001FA05F22E
:1007000040EA020001F0004221F0004110EBD370FA
:1007100021FA04F642EB06015EEA430E08BF20EA26
:10072000D37070BDC4F10C04C4F1200500FA04F3C9
:1007300020FA05F001FA04F240EA020001F000415B
:1007400010EBD37041F100015EEA430E08BF20EACE
:10075000D37070BDC4F1200500FA05F24EEA020E16
:1007600020FA04F301FA05F243EA020321FA04F045
:1007700001F0004121FA04F220EA020000EBD370FC
:100780005EEA430E08BF20EAD37070BD94F0000FFC
:100790000FD101F00046400041EB010111F4801F30
:1007A00008BF013CF7D041EA060195F0000F18BFE1
:1007B000704703F00046520043EB030313F4801F1D
:1007C00008BF013DF7D043EA0603704794EA0C0FD7
:1007D0000CEA135518BF95EA0C0F0CD050EA4106ED
:1007E00018BF52EA4306D1D181EA030101F000416A
:1007F0004FF0000070BD50EA410606BF1046194692
:1008000052EA430619D094EA0C0F02D150EA01369D
:1008100013D195EA0C0F05D152EA03361CBF1046DE
:1008200019460AD181EA030101F0004141F0FE417D
:1008300041F470014FF0000070BD41F0FE4141F401
:10084000780170BD70B54FF0FF0C4CF4E06C1CEA01
:1008500011541DBF1CEA135594EA0C0F95EA0C0FB6
:1008600000F0A7F8A4EB050481EA030E52EA033571
:100870004FEA013100F088804FEA03334FF0805592
:1008800045EA131343EA12634FEA022245EA1115BF
:1008900045EA10654FEA00260EF000419D4208BF70
:1008A000964244F1FD0404F5407402D25B084FEA1D
:1008B0003202B61A65EB03055B084FEA32024FF4C9
:1008C00080104FF4002CB6EB020E75EB030E22BF26
:1008D000B61A754640EA0C005B084FEA3202B6EBE6
:1008E000020E75EB030E22BFB61A754640EA5C0095
:1008F0005B084FEA3202B6EB020E75EB030E22BF25
:10090000B61A754640EA9C005B084FEA3202B6EB25
:10091000020E75EB030E22BFB61A754640EADC00E4
:1009200055EA060E18D04FEA051545EA16754FEA46
:1009300006164FEAC30343EA52734FEAC2025FEA64
:100940001C1CC0D111F4801F0BD141EA00014FF0F3
:1009500000004FF0004CB6E711F4801F04BF0143C4
:100960000020B4F1FD0C88BFBCF5E06F3FF6AFAEE0
:10097000B5EB030C04BFB6EB020C5FEA500C50F170
:10098000000041EB045170BD0EF0004E4EEA1131F3
:1009900014EB5C04C2BFD4EB0C0541EA045170BDFA
:1009A00041F480114FF0000E013C90E645EA060E3E
:1009B0008DE60CEA135594EA0C0F08BF95EA0C0F6C
:1009C0003FF43BAF94EA0C0F0AD150EA01347FF4B4
:1009D00034AF95EA0C0F7FF425AF104619462CE78B
:1009E00095EA0C0F06D152EA03353FF4FDAE1046EE
:1009F000194622E750EA410618BF52EA43067FF43F
:100A0000C5AE50EA41047FF40DAF52EA43057FF4CE
:100A1000EBAE12E74FEA4102B2F1E04324BFB3F577
:100A2000001CDCF1FE5C0DD901F0004C4FEAC00265
:100A30004CEA5070B2F1004F40EB830008BF20F049
:100A40000100704711F0804F21D113F13872BCBF03
:100A500001F00040704741F480114FEA5252C2F158
:100A60001802C2F1200C10FA0CF320FA02F018BFA1
:100A700040F001004FEAC1234FEAD32303FA0CFCF4
:100A800040EA0C0023FA02F34FEA4303CCE77FEA83
:100A9000625307D150EA01331EBF4FF0FE4040F4CD
:100AA0004000704701F0004040F0FE4040F400007C
:100AB000704700BF38B50E4A0E4B054618784FF404
:100AC0007A73B3FBF0F31068B0FBF3F000F0A0F81A
:100AD000044658B90F2D09D8024629464FF0FF3079
:100AE00000F056F8044B20461D6038BD012038BD8B
:100AF000080000200000002004000020074A08B57C
:100B0000136843F010031360032000F02FF8002057
:100B1000FFF7D0FF02F0CAF9002008BD0020024014
:100B2000034A044B11681B780B441360704700BFE5
:100B3000A000002000000020014B1868704700BF93
:100B4000A000002038B50446FFF7F6FF631C1CBF69
:100B5000054B1B78054618BFE418FFF7EDFF401B57
:100B60008442FAD838BD00BF00000020074AD3688D
:100B700023F4E0631B041B0C43F0BF63000243F447
:100B8000003300F4E0600343D360704700ED00E001
:100B9000174B30B5DC68C4F30224C4F10703251DEC
:100BA000042B28BF0423062D4FF0010505FA03F39B
:100BB00003F1FF338CBF033C00241940A14005FA28
:100BC00004F4013C2240002842EA01024FEA0212EA
:100BD000AFBF00F1604000F00F00064BD2B2A5BFDE
:100BE00000F56140D2B21A5480F8002330BD00BF36
:100BF00000ED00E014ED00E04209012300F01F00C9
:100C000003FA00F0014B43F82200704700E100E0D6
:100C10000138B0F1807F0AD2064B074A5860F021B4
:100C200082F823100020072298601A607047012084
:100C3000704700BF10E000E000ED00E090F82120D8
:100C4000022A10B503D004228263012010BD02687D
:100C5000C46B1168436B21F00E011160116821F023
:100C600001011160026C012101FA02F262600024AC
:100C700080F8211080F8204013B19847204610BD1D
:100C8000184610BD2DE9F74FD1F80080DFF890919C
:100C9000614A002338FA03F402D103B0BDE8F08FB3
:100CA0004FF0010E0EFA03FE18EA0E0600F0A680C1
:100CB0004C6824F01007022F16D14FEAD30A00EB3C
:100CC0008A0A03F0070BDAF820504FEA8B0B4FF03B
:100CD0000F0C0CFA0BFC25EA0C0C0D6905FA0BF550
:100CE00045EA0C05CAF820504FEA430A0325D0F81C
:100CF00000B005FA0AF5ED4304F0030C0BEA050B0E
:100D00000CFA0AFC013F4CEA0B0C012FC0F800C0A2
:100D100011D8876807EA050BCF6807FA0AFC4CEA86
:100D20000B078760476827EA0E0EC4F300179F4041
:100D300047EA0E074760C7683D408F6807FA0AF721
:100D40003D43C560E50059D5D9F8185045F0010577
:100D5000C9F81850D9F8185023F0030707F1804755
:100D600005F0010507F58037019503F0030C019D9F
:100D7000BD684FEA8C0C4FF00F0E0EFA0CFEB0F16E
:100D8000904F25EA0E0E3BD0244DA8423AD005F5EF
:100D90008065A84238D005F58065A84236D005F5B3
:100DA0008065A84234D005F58065A84232D005F5AB
:100DB0008065A84214BF0725062505FA0CF545EA0B
:100DC0000E05BD601568F74314F4803F0CBF3D402D
:100DD00035431560556814F4003F0CBF3D40354362
:100DE0005560956814F4801F0CBF3D4035439560F5
:100DF000D568A40254BF3D403543D560013349E76F
:100E00000025DAE70125D8E70225D6E70325D4E750
:100E10000425D2E70525D0E700040140000400487E
:100E2000001002400AB18161704781627047000082
:100E30002DE9F347054618B9012002B0BDE8F08757
:100E40000368DF0711D42B689E0700F188802B68A8
:100E50001C0700F1FC802B68580700F14581AA6946
:100E6000002A40F0DC810020E7E7BD4C636803F016
:100E70000C03042B0AD0636803F00C03082B19D170
:100E8000636803F4C033B3F5803F13D14FF40033EC
:100E900093FAA3F2216893FAA3F3B3FA83F303F06E
:100EA0001F03012202FA03F30B42CCD06B68002B24
:100EB000C9D1C1E76B68B3F5803F1ED1236843F405
:100EC00080332360FFF738FE4FF400368046012759
:100ED00096FAA6F3226896FAA6F3B3FA83F303F020
:100EE0001F0307FA03F31342ADD1FFF725FEA0EB72
:100EF00008006428ECD903209FE70BBB236823F488
:100F000080332360236823F480232360FFF714FEDB
:100F10004FF400368046012796FAA6F3226896FA27
:100F2000A6F3B3FA83F303F01F0307FA03F31342A4
:100F300089D0FFF701FEA0EB08006428ECD9DAE7BE
:100F4000B3F5A02F236803D143F480232360B5E7D2
:100F500023F480332360236823F48023B1E7804C9B
:100F6000636813F00C0F0AD0636803F00C03082BBE
:100F700025D1636803F4C033B3F5004F1FD10223BA
:100F800093FAA3F2216893FAA3F3B3FA83F303F07D
:100F90001F03012202FA03F30B4203D0EB689342D2
:100FA0007FF44AAF2168F82393FAA3F3B3FA83F2EC
:100FB0002B69934021F0F8021343236047E7EA6866
:100FC00001260AB396FAA6F3B3FA83F303F1845326
:100FD00003F584139B0002271E60FFF7ADFD8046DA
:100FE00097FAA7F3226897FAA7F3B3FA83F303F00B
:100FF0001F0306FA03F31342D4D1FFF79DFDA0EBC4
:1010000008000228ECD976E796FAA6F3B3FA83F340
:1010100003F1845303F584139B0002271A60FFF742
:101020008BFD804697FAA7F3226897FAA7F3B3FAE5
:1010300083F303F01F0306FA03F313423FF407AFF1
:10104000FFF77AFDA0EB08000228EBD953E76A69A5
:10105000434E444901241AB394FAA4F3B3FA83F338
:101060000B449B0002271C60FFF766FD804697FA41
:10107000A7F397FAA7F397FAA7F3726A97FAA7F379
:10108000B3FA83F303F01F0304FA03F313427FF46C
:10109000E2AEFFF751FDA0EB08000228E7D92AE7EE
:1010A00094FAA4F3B3FA83F30B449B0002271A606B
:1010B000FFF742FD804697FAA7F397FAA7F397FA4E
:1010C000A7F3726A97FAA7F3B3FA83F303F01F0347
:1010D00004FA03F313423FF4BEAEFFF72DFDA0EB7D
:1010E00008000228E7D906E71D4CE369D90034D48B
:1010F000E36943F08053E361E36903F080530193B4
:10110000019B0126184F3B68DA052FD5AB68012BF0
:101110003DD1236A43F001032362FFF70DFD02274F
:101120008246B9464FF0010897FAA7F397FAA7F35A
:10113000002B6CD0226A99FAA9F3B3FA83F303F077
:101140001F0308FA03F3134258D0002E3FF487AE72
:10115000E36923F08053E36181E60026D2E700BF14
:101160000010024020819010007000403B6843F462
:1011700080733B60FFF7E0FC80463B68DB05C5D42D
:10118000FFF7DAFCA0EB08006428F6D9B3E63BBB16
:10119000236A23F001032362236A23F004032362FA
:1011A000FFF7CAFC02278246B9464FF0010897FABA
:1011B000A7F397FAA7F373B3226A99FAA9F3B3FADC
:1011C00083F303F01F0308FA03F31342BDD0FFF7C4
:1011D000B3FC41F28833A0EB0A009842E7D98AE6D3
:1011E000052B236A03D143F00403236291E723F024
:1011F00001032362236A23F004038DE7FFF79CFCBD
:1012000041F28833A0EB0A0098428DD973E697FA31
:10121000A7F3626A8FE797FAA7F3626ACDE7444CB7
:10122000636803F00C03082B3FF406AE022A4FF06C
:10123000807358D193FAA3F3B3FA83F303F1845381
:1012400003F584139B0000221A60FFF775FC4FF032
:1012500000778046012697FAA7F3226897FAA7F34A
:10126000B3FA83F303F01F0306FA03F3134233D1F7
:10127000E36A6A6A23F00F031343E36262682B6A2E
:10128000E96922F476120B43134363604FF08073D5
:1012900093FAA3F3B3FA83F303F1845303F58413AE
:1012A0009B004FF000751E60FFF746FC01260746C5
:1012B00095FAA5F3226895FAA5F3B3FA83F303F040
:1012C0001F0306FA03F313427FF4CDADFFF734FC9E
:1012D000C01B0228ECD90EE6FFF72EFCA0EB08009D
:1012E0000228B8D907E693FAA3F3B3FA83F303F11C
:1012F000845303F584139B0000221A60FFF71CFC43
:101300004FF000750746012695FAA5F3226895FA75
:10131000A5F3B3FA83F303F01F0306FA03F31342B2
:101320003FF4A1ADFFF708FCC01B0228ECD9E2E5B1
:101330000010024011494B6803F00C02082A1AD130
:101340004FF4701292FAA2F20F20B2FA82F2C96A36
:1013500090FAA0F0B0FA80F001F00F0103F47013DE
:10136000D340C140064A0748415C0748B0FBF1F151
:10137000D05C484370470448704700BF00100240EB
:10138000603B0008703B000800127A002DE9F04134
:101390000D46044610B90120BDE8F0814C4A13689F
:1013A00003F007038B422ED32268910736D4D2076D
:1013B0003CD4474A136803F007039D4275D3226863
:1013C000444D12F0040F7CD1130706D56B682269D7
:1013D00023F4605343EAC2036B60FFF7ABFF6B6813
:1013E000F02292FAA2F2B2FA82F203F0F003D340B2
:1013F000394AD35CD840394B18600020FFF75AFBBC
:101400000020BDE8F081136823F007030B4313604D
:10141000136803F007039942BDD1C5E72D49A068C1
:101420004B6823F0F00303434B60C0E76268294E2A
:10143000012A27D14FF4003393FAA3F1316893FACC
:10144000A3F3B3FA83F303F01F0302FA03F30B428F
:10145000A1D0736823F003031A437260FFF76CFB9B
:1014600041F2883807467368626803F00C03B3EBF7
:10147000820F9ED0FFF760FBC01B4045F3D90320CD
:10148000BDE8F081022A0CBF4FF00073022393FAEB
:10149000A3F1306893FAA3F3B3FA83F303F01F03C5
:1014A000012101FA03F30342D2E7136823F0070393
:1014B0002B431360136803F007039D427FF46BAF67
:1014C0007DE76B68E16823F4E0630B436B607BE7C7
:1014D0000020024000100240163C000808000020D6
:1014E000084B4FF4E0625B6892FAA2F2B2FA82F221
:1014F00003F4E063D340044AD35C044A1068D84044
:10150000704700BF00100240263C00080800002081
:10151000084B4FF460525B6892FAA2F2B2FA82F280
:1015200003F46053D340044AD35C044A1068D840A3
:10153000704700BF00100240263C00080800002051
:1015400003682DE9F347DF03044623D59B4DEB6980
:10155000DE0000F1D780EB6943F08053EB61EB696B
:1015600003F080530193019B0126954F3B68D805FA
:1015700040F1CA802B6A13F4407340F0DA802B6A82
:10158000626823F4407313432B621EB1EB6923F0AE
:101590008053EB612068C30706D5884AA168136BA6
:1015A00023F003030B431363870706D5834AE168DF
:1015B000136B23F440330B431363460706D57F4A6E
:1015C0002169136B23F440230B431363850606D56F
:1015D0007A4AE169136B23F010030B431363810311
:1015E00006D5764A616D536823F480030B4353603C
:1015F000420606D5714A216A136B23F020030B4380
:101600001363430306D56D4A616A136B23F04003ED
:101610000B431363070706D5684A6169136B23F40C
:1016200040130B431363C60606D5644AA169136BC6
:1016300023F440030B431363850506D55F4A216BF2
:10164000536823F400030B435360010606D55B4A3D
:10165000A16AD36A23F4F8730B43D362C20506D59B
:10166000564AE16AD36A23F478530B43D362C30426
:1016700006D5524A616B136B23F480730B431363DB
:10168000870406D54D4A216C136B23F400730B437A
:101690001363C60206D5494AA16B136B23F080730E
:1016A0000B431363850206D5444AE16B136B23F0A9
:1016B00000730B431363410206D5404A616C136B00
:1016C00023F480630B431363020206D53B4AA16CEB
:1016D000136B23F400630B431363C30106D5374A2E
:1016E000E16C136B23F400530B43136310F0007091
:1016F0001CD0324A216D136B23F400430B43136358
:10170000002013E0002630E73B6843F480733B6021
:10171000FFF712FA80463B68D9053FF52BAFFFF77C
:101720000BFAA0EB08006428F5D9032002B0BDE84D
:10173000F087626802F4407293423FF420AF296A56
:101740004FF4803321F4407093FAA3F2DFF874E091
:10175000B2FA82F2724492000127176093FAA3F35F
:10176000B3FA83F373449B0000221A60CA0728620D
:101770007FF505AFFFF7E0F94FF002088246C1465A
:1017800098FAA8F398FAA8F3A3B12A6A99FAA9F3E8
:10179000B3FA83F303F01F0307FA03F313427FF452
:1017A000EEAEFFF7C9F941F28833A0EB0A00984288
:1017B000E6D9BAE798FAA8F36A6AE7E700100240A8
:1017C00000700040008190100368DA6842F0010266
:1017D000DA601A6842F001021A6000207047704710
:1017E000704770477047704703681A69910710B5D2
:1017F00004460FD5DA6892070CD56FF002021A6121
:101800009B6901229907027700F08580FFF7E9FFC5
:101810000023237723681A69520710D5DA68500726
:101820000DD56FF004021A619B69022213F4407F08
:101830002277204675D0FFF7D4FF00232377236853
:101840001A6911070FD5DA6812070CD56FF0080274
:101850001A61DB6904229B072277204667D0FFF7D5
:10186000C0FF0023237723681A69D00610D5DA68F1
:10187000D1060DD56FF010021A61DB69082213F44E
:10188000407F2277204658D0FFF7ABFF0023237715
:1018900023681A69D20708D5DA68D00705D56FF032
:1018A00001021A61204601F0C5F823681A69110681
:1018B00008D5DA68120605D56FF080021A61204655
:1018C00000F065FC23681A69D00508D5DA681106AE
:1018D00005D56FF480721A61204600F059FC236828
:1018E0001A69520608D5DA68500605D56FF040022D
:1018F0001A612046FFF777FF23681A69910622D5FF
:10190000DA6892061FD56FF0200220461A61BDE802
:10191000104000F03BBCFFF763FF2046FFF762FF7B
:1019200076E7FFF75DFF2046FFF75CFF85E7FFF7EF
:1019300057FF2046FFF756FF93E7FFF751FF20467A
:10194000FFF750FFA2E710BD324A0368904212D061
:10195000B0F1804F0FD0A2F5943290420BD002F537
:101960008062904207D002F59632904203D002F591
:10197000E052904215D14A6823F070031343254A80
:1019800090421DD0B0F1804F1AD0A2F5943290420F
:1019900016D002F58062904212D002F59632904243
:1019A0000ED01D4A90420BD002F58062904207D0C3
:1019B00002F58062904203D002F50062904203D1AA
:1019C000CA6823F4407313434A6923F08003134326
:1019D00003608B68C3620B6883620E4B984213D01E
:1019E00003F5006398420FD003F5406398420BD093
:1019F00003F58063984207D003F58063984203D0D3
:101A000003F50063984201D10B690363012343612D
:101A1000704700BF002C01400040014010B5044653
:101A2000A0B190F83D3003F0FF021BB980F83C20D4
:101A300001F058FA022384F83D302068211DFFF799
:101A400083FF012384F83D30002010BD012010BD2C
:101A500010B50446A0B190F83D3003F0FF021BB969
:101A600080F83C20FFF7BBFE022384F83D3020685D
:101A7000211DFFF769FF012384F83D30002010BDD0
:101A8000012010BD036A23F001030362036A70B5ED
:101A9000446882690D6822F4803222F073022A437E
:101AA0008D6823F002032B431F4DA84213D005F588
:101AB0000065A8420FD005F54065A8420BD005F59A
:101AC0008065A84207D005F58065A84203D005F5DA
:101AD0000065A84222D1CD6823F008032B43124DA4
:101AE000A84223F0040313D005F50065A8420FD0E7
:101AF00005F54065A8420BD005F58065A84207D0E2
:101B000005F58065A84203D005F50065A84205D11A
:101B100024F440758E694C6934432C4344608261DF
:101B20004A684263036270BD002C0140036A23F0DF
:101B300010030362036A70B5446882690D6822F07D
:101B4000807222F4E64242EA05228D6823F02003E7
:101B500043EA05131A4DA84207D005F50065A842CF
:101B600003D005F5E055A8420DD1CD6823F08003E0
:101B700043EA0513124DA84223F0400312D005F5A5
:101B80000065A8420ED00F4DA8420BD005F5806528
:101B9000A84207D005F58065A84203D005F5006589
:101BA000A84206D124F440658E694C69344345EA65
:101BB0008404446082614A688263036270BD00BF2E
:101BC000002C014000400140036A23F4807303624B
:101BD000036A70B54468C2690D6822F4803222F04D
:101BE00073022A438D6823F4007343EA05231A4DD8
:101BF000A84207D005F50065A84203D005F5E055D9
:101C0000A8420DD1CD6823F4006343EA0523124DA9
:101C1000A84223F4806312D005F50065A8420ED0D7
:101C20000E4DA8420BD005F58065A84207D005F5FA
:101C30008065A84203D005F50065A84206D124F4CA
:101C400040558E694C69344345EA04144460C261CE
:101C50004A68C263036270BD002C0140004001402D
:101C6000036A23F480530362036A30B54468C2698F
:101C70000D6822F0807222F4E64242EA05228D6865
:101C800023F4005343EA0533104DA84213D005F561
:101C90000065A8420FD005F54065A8420BD005F5B8
:101CA0008065A84207D005F58065A84203D005F5F8
:101CB0000065A84204D14D6924F4804444EA8514A7
:101CC0004460C2614A680264036230BD002C014076
:101CD00010B584680A4324F47F4442EA0323234373
:101CE000836010BD90F83C30012B70B504464FF076
:101CF00002001AD084F83D002068012384F83C30AB
:101D00008268524B134083600B68402B75D018D803
:101D1000102B00F08F8009D8002B00F08580012364
:101D2000002084F83D3084F83C0070BD202B00F08A
:101D30008780302BF3D1836823F0700343F037039F
:101D400033E0702B33D01BD8502B3FD0602BE6D123
:101D50004D68CE68016A21F0100101628269036A50
:101D600022F4704223F0A00343EA051342EA06324C
:101D700082610362836823F0700343F0670314E019
:101D8000B3F5805F0CD0B3F5005FC8D1CB684A686B
:101D90008968FFF79DFF2268936843F4804313E04E
:101DA000836823F4803323F007038360B7E7CB68AD
:101DB0004A688968FFF78CFF2268936823F48033B0
:101DC00023F0770343F077039360A8E74A68CE686F
:101DD000016A056A25F001050562836921F00A019F
:101DE00023F0F00343EA06130A4383610262836827
:101DF00023F0700343F05703D7E74A68CE68016ABF
:101E0000056A25F001050562836921F00A0123F0C6
:101E1000F00343EA06130A4383610262836823F0F6
:101E2000700343F04703C0E7836823F0700343F077
:101E30000703BAE7836823F0700343F01703B4E79E
:101E4000836823F0700343F02703AEE78800FEFFAA
:101E5000036A10B501248C4023EA04030362036A79
:101E60008A401A43026210BD10B504460122006880
:101E7000FFF7EEFF2368104A934213D002F5006289
:101E800093420FD002F5406293420BD002F580627C
:101E9000934207D002F58062934203D002F50062BC
:101EA000934203D15A6C42F400425A641A6842F0D9
:101EB00001021A60002010BD002C0140036A23F4C7
:101EC00080330362036A30B54468426D0D6822F4C2
:101ED000803222F070022A438D6823F4003343EAF3
:101EE0000543114DA84213D005F50065A8420FD057
:101EF00005F54065A8420BD005F58065A84207D0DE
:101F000005F58065A84203D005F50065A84204D117
:101F10004D6924F4803444EA0524446042654A68EB
:101F20008265036230BD00BF002C0140036A23F4C8
:101F300080130362036A30B54468426D0D6822F075
:101F4000807222F4E04242EA05228D6823F40013F5
:101F500043EA0553104DA84213D005F50065A84289
:101F60000FD005F54065A8420BD005F58065A84265
:101F700007D005F58065A84203D005F50065A842A5
:101F800004D14D6924F4802444EA852444604265E8
:101F90004A68C265036230BD002C014038B590F834
:101FA0003C30012B04460D464FF0020010D00123B7
:101FB000082A84F83C3084F83D0043D009D8FAB1AF
:101FC000042A2ED00123002084F83D3084F83C0000
:101FD00038BD102A47D0142A56D00C2AF2D12068D6
:101FE000FFF73EFE23682969DA6942F40062DA618C
:101FF000DA6922F48062DA61DA6942EA012230E0C9
:102000002068FFF73FFD236829699A6942F00802BA
:102010009A619A6922F004029A619A690A439A6164
:10202000D0E72068FFF782FD236829699A6942F4A6
:1020300000629A619A6922F480629A619A6942EA1E
:102040000122ECE72068FFF7BFFD23682969DA6900
:1020500042F00802DA61DA6922F00402DA61DA6930
:102060000A43DA61AEE72068FFF728FF23680969B1
:102070005A6D42F008025A655A6D22F004025A6500
:102080005A6D0A435A659DE72068FFF74FFF2368A2
:1020900009695A6D42F400625A655A6D22F48062F1
:1020A0005A655A6D42EA0122ECE7000090F83C3094
:1020B000012B30B520D00268104D53689468AA42B5
:1020C00007D005F50065AA4203D005F5E055AA4200
:1020D00003D14D6823F470032B430D68896823F006
:1020E00070032B4324F0800453602143002391604C
:1020F00080F83C30184630BD022030BD002C014035
:1021000090F83C30012B10B53CD0CB688A681E4C4F
:1021100023F4407313434A6823F4806313430A682B
:1021200023F4006313430A6923F4805313434A6979
:1021300023F4005313438A6A23F4404313438A6908
:1021400023F4702343EA02430268A24207D004F555
:102150000064A24203D004F5E054A2420CD14C6AC0
:1021600023F4700343EA0453CC69096A23F08073B3
:10217000234323F000730B435364002380F83C3067
:10218000184610BD022010BD002C0140704770475A
:10219000704703681A6822F490721A609A6822F0F5
:1021A00001029A60202380F86A30704790F8693005
:1021B000202B1AD1B9B1B2B190F86830012B14D0EC
:1021C000A0F85220C164A0F8502000230168C36623
:1021D000212280F869200A6880F8683042F0800285
:1021E0000A6018467047012070470220704790F837
:1021F0006A30202B3DD1002939D0002A37D090F801
:102200006830012B35D0012380F868308368416540
:10221000B3F5805FA0F85820A0F85A2019D10369BF
:10222000ABB940F2FF13A0F85C3000232222C36652
:1022300080F86A20026880F86830916841F00101F6
:102240009160116841F49071116018467047FF2346
:10225000E9E723B90369002BF9D07F23E3E7B3F162
:10226000805FE2D10369002BF7D03F23DBE7012039
:102270007047022070477047704708B5406A0023D6
:10228000A0F85A30A0F85230FFF7F6FF08BD000062
:1022900038B5044605682169A268C36928680A43FD
:1022A00061690A4377491A4301400A432A606A6810
:1022B000E168206A22F440520A436A60A968A26970
:1022C00021F4306102430A43AA606F4A954212D159
:1022D00002F558426D49126B02F00302B3F5004F4C
:1022E0008A5C66D0082A19D8DFE802F0C2929E18EC
:1022F000A9181818AC00664A954224D102F5E632B6
:10230000126B02F44032B2F5803F00F0A08007D893
:10231000002A00F0AA80B3F5004F76D0012038BD26
:10232000B2F5003F00F09980B2F5403FF3D1B3F52C
:10233000004F79D16068430803F5740303F5105327
:10234000B3FBF0F354E0534A95420ED102F5E43268
:10235000126B02F44022B2F5802F78D0D8D9B2F5B2
:10236000002F7AD0B2F5402FE0E74B4A95420ED1CC
:1023700002F5E232126B02F44012B2F5801F66D011
:10238000C6D9B2F5001F68D0B2F5401FCEE7434A68
:102390009542C0D102F5E032126B02F44002B2F570
:1023A000800F54D0B4D9B2F5000F56D0B2F5400F1B
:1023B000BCE7082A29D801A353F822F0E12300083A
:1023C00005240008352300080B24000855240008C4
:1023D0000B2400080B2400080B24000861240008CB
:1023E000FFF77EF861684A0802EB4003B3FBF1F3A4
:1023F0009BB2002023F00F022168C3F34203134372
:10240000CB6038BDFFF784F8ECE701200023F1E74B
:10241000FFF77EF8636800EB5300B0FBF3F01A4B54
:1024200080B2D860002038BD6268530803F5F40319
:1024300003F59053B3FBF2F39BB2EB60F2E7FEF7C8
:1024400079FF17E06268530803F50043F2E7B3F53C
:10245000004FF4D1FEF76EFFC4E7B3F5004FF1D1A2
:102460006068430803F580336AE7B3F5004FB7D0DF
:10247000FFF736F8636800EB5300B0FBF3F080B26F
:10248000E860CFE7F369FFEF00380140803B0008C8
:102490000044004000480040004C00400050004014
:1024A000436ADA0710B506D50168846A4A6822F4DF
:1024B000003222434A609C0706D50168C46A4A6814
:1024C00022F4803222434A60590706D50168046B22
:1024D0004A6822F4802222434A601A0706D501681E
:1024E000446B4A6822F4004222434A60DC0606D567
:1024F0000168846B8A6822F4805222438A609906BC
:1025000006D50168C46B8A6822F4005222438A60AF
:102510005A060FD50168046C4A6822F480122243DF
:10252000B4F5801F4A6005D14A68446C22F4C002A9
:1025300022434A601B0606D50268816C536823F467
:1025400000230B43536010BD2DE9F041069D044666
:102550000F46164698462168CA6937EA02030CBF3F
:1025600001220022B24202D00020BDE8F0816B1CA3
:10257000F2D09DB923681A6822F4D0721A609A6862
:1025800022F001029A60202384F8693084F86A30CE
:10259000002384F868300320BDE8F081FEF7CCFA10
:1025A000A0EB08008542D6D2E4E773B504460026C6
:1025B000C666FEF7C1FA23681B681A07054617D4DA
:1025C00023681B685B070AD56FF07E4300930022E7
:1025D0002B464FF480012046FFF7B6FFA0B9202319
:1025E000002084F8693084F8680084F86A300CE0D0
:1025F0006FF07E430093324603464FF400112046AD
:10260000FFF7A2FF0028DBD0032002B070BD10B599
:10261000044660B390F8693003F0FF021BB980F8FC
:10262000682000F0DDFC2268242384F869301368F8
:1026300023F0010313602046FFF72AFE012816D07D
:10264000636A13B12046FFF72BFF23685A6822F410
:1026500090425A609A6822F02A029A601A6842F000
:10266000010220461A60BDE81040FFF79EBF01201E
:1026700010BD90F86930212B27D1B0F85230026894
:102680009BB24BB9116821F080011160116841F0D3
:1026900040011160002070478368B3F5805FC36C10
:1026A0000ED1016961B933F8021BC1F3080111852C
:1026B000C364B0F85230013B9BB2A0F85230E9E756
:1026C000591CC1641B781385F3E702207047016829
:1026D00008B50B6823F040030B60202380F86930B5
:1026E000FFF7C9FD002008BD90F86A30222B10B515
:1026F000036829D1998C8368B0F85C20B3F5805FBA
:1027000002EA0102436D1BD10169C9B923F8022B0A
:102710004365B0F85A40013CA4B2A0F85A406CB9E5
:1027200003681A6822F490721A609A6822F0010213
:102730009A60202380F86A3000F0AEF9002010BDC6
:10274000591C41651A70E4E79A6942F008029A61DF
:10275000022010BD0268D369116870B513F00F052F
:10276000044607D19E0605D58E0603D5BDE8704008
:10277000FFF7BABF9068002D5CD010F0010502D1C0
:1027800011F4907F56D0D80707D5CE0505D5012086
:102790001062E06E40F00100E066980706D52DB1AA
:1027A00002201062E06E40F00400E0665E0706D58D
:1027B0002DB104201062E06E40F00200E0661807C0
:1027C00007D58E0600D425B108201062E26E0243C0
:1027D000E266E26E002A50D0980604D58A0602D539
:1027E0002046FFF781FFE36E1B07204604D42368D1
:1027F0009D6815F0400519D0FFF7CBFC23689A6857
:1028000056060FD59A68606E22F040029A6048B171
:102810001A4B4363FEF712FA78B3606EBDE870405E
:10282000436B18472046FFF727FD70BDFFF724FDD7
:10283000E56670BDDD020ED546020CD54FF480135F
:102840001362202384F86930204684F86A30BDE89A
:10285000704000F015B81D0606D5080604D52046C0
:10286000BDE87040FFF705BF5A0606D54B0604D5F4
:102870002046BDE87040FFF72ABF70BD7B220008EC
:102880007047000038B500F0CBFC47F6F87490FBB9
:10289000F4F303FB14000A4B0A2500F6FF7090FBCB
:1028A000F5F0188000F0BCFC90FBF4F303FB14007F
:1028B000044B00F6FF7090FBF5F0188038BD00BFA8
:1028C000D8010020A400002070B51F4C2925264601
:1028D00000F0A6FC90FBF5F303FB150014382388E9
:1028E00080B203FA80F2B2F5CD7F05DB40F6666276
:1028F00093429CBFC01820803388A3F5CD739BB250
:1029000040F6CC429342E3D8104C2925264600F0ED
:1029100087FC90FBF5F303FB15001438238880B285
:1029200003FA80F2B2F5CD7F05DB40F66662934292
:102930009CBFC01820803388A3F5CD739BB240F6AE
:10294000CC429342E3D870BDD8010020A4000020FF
:1029500008B5314B2DED028B1888FDF7E3FD28A358
:10296000D3E90023FDF744FE27A3D3E90023FDF7B5
:1029700069FFFEF74FF8294B08EE100A1888FDF79B
:10298000D1FD1FA3D3E90023FDF732FE1EA3D3E937
:102990000023FDF757FFFEF73DF8DFED217A07EE44
:1029A000100A67EE277A17EE900AFDF7CDFD14A303
:1029B000D3E90023FDF746FF00221A4BFDF764FC24
:1029C000FEF728F8DFED187A184B68EE277A1860C2
:1029D00017EE900AFDF7B8FD09A3D3E90023FDF730
:1029E00031FF0BA3D3E90023FDF74EFCFEF712F8ED
:1029F000BDEC028B0E4B186008BD00BFAFF300802A
:102A00006666666666660A400000000000FEAF402B
:102A10000000000000B85040D8010020A4000020B1
:102A20000000FA420000294000C05A438C000020F8
:102A30009000002030B595B03222002107A800F0A8
:102A4000BFFBFFF785FF0F4B1868FDF77DFD0E4BB1
:102A500004930E4B044618680D46FDF775FD2523BB
:102A6000CDE90201009322462B46094907A800F050
:102A700011FC07A9C2B20748FFF798FBFFF724FF34
:102A800015B030BD8C000020B23B00089000002043
:102A9000843B00086801002000B58FB0322200217D
:102AA00001A800F08DFB22494A78303AD3B2092BB5
:102AB0008B7898BF02EB8202A3F1300398BF5200DB
:102AC000DBB294BFD2B20022092B98BFD218CB78C8
:102AD000A3F13003DBB298BFD2B20A2B28BF002388
:102AE000312A10D8134901A800F0F8FB1A2201A9D5
:102AF0001148FFF75BFB04220D490F48FFF777FBF6
:102B00000FB05DF804FB0978762909D10B494A63B7
:102B10008A630A640A4901A800F0BCFBC2B2E6E776
:102B20006829E8D107494A638A630749F3E700BF88
:102B3000DA010020B53B000868010020002C0140AC
:102B4000D03B000800040040F23B000830B5A7B0BD
:102B50002822002106A800F033FB1422002101A83E
:102B600000F02EFB5822002110A800F029FB0123C1
:102B7000099310230A934FF4004302250D9306A8EE
:102B80004FF4E0130E9306950C95FEF751F90F23C1
:102B90000024019329464FF4806301A80493029511
:102BA00003940594FEF7F2FB054B109310A81394C1
:102BB0001D941E941F94FEF7C3FC27B030BD00BFC8
:102BC000021030002DE98048A1B0FDF797FFFFF714
:102BD000BDFF1422002115A800F0F2FAA84BA94F5E
:102BE0005A69DFF8BC82A84DDFF8B892DFF8B8A2C6
:102BF00042F400225A615A6902F400220392039AB5
:102C00005A6942F480025A615A6902F480020492BD
:102C1000049A5A6942F400325A615A6902F4003245
:102C20000592059A5A6942F480225A615B6903F45D
:102C300080230022069320214FF0904000244FF47F
:102C40000056069BFEF7EEF8904B9148159615A995
:102C500016931794FEF716F8202315A915934FF035
:102C600090400123169317941894FEF70BF8894AA5
:102C7000BC604FF4E1334FF00C0B384687E80C0092
:102C8000FC603C61C7F814B0BC61FC613C627C62D2
:102C9000FFF7BDFC1022214615A800F091FA4FF075
:102CA000804141F61F4388E80A00404642F20F7314
:102CB000C8F80C300E940F941094C8F80840C8F867
:102CC0001040C8F81840FEF7A9FE4FF4805315A92C
:102CD00040461593FFF706F80EA940460E9410944F
:102CE000FFF7E4F9102221460AA800F069FA1C2235
:102CF00021460EA807940894099400F061FA2C224A
:102D0000214615A800F05CFA40F29F536B602846FC
:102D10006323EB60C5F80090AC602C616C61AC6122
:102D2000FEF77CFE4FF480530AA928460A93FEF76B
:102D3000D9FF2846FEF78CFE07A928460794089479
:102D40000994FFF7B3F9602322460EA928460E9393
:102D500001930F9410941194129413941494FFF708
:102D60001DF904220EA92846FFF718F95A460EA9A4
:102D70002846FFF713F94FF0007215A928461D9257
:102D80001A96159416941794189419941B941C94DD
:102D90001E941F94FFF7B4F9284600F0E1F81022C2
:102DA00021460EA83C4E00F00BFA1C22214615A825
:102DB0000A940B940C9400F003FA40F29F53736052
:102DC00030466323F360C6F800A0B4603461B46198
:102DD000FEF724FE4FF480530EA930460E93FEF703
:102DE00081FF3046FEF734FE0AA930460A940C945F
:102DF000FFF75CF9019B1593224615A930461694FE
:102E000017941994FFF7CAF8042215A93046FFF762
:102E1000C5F8304600F0A4F8204600F067FA00F04C
:102E2000D7F9FFF72FFD4046FEF7CEFC2146284696
:102E3000FFF71AF804212846FFF716F859462846E6
:102E4000FFF712F821463046FFF70EF8042130460E
:102E5000FFF70AF84B23C9F8343041F65830C9F867
:102E60003830C9F84030CAF83430CAF83830FDF785
:102E700069FE042209493846FFF7B9F9FEE700BFA9
:102E80000010024068010020E8000020000021102E
:102E90000008004800440040A8000020DA0100209B
:102EA00028010020002C0140000400400C4B07B515
:102EB0009A6942F001029A619A6902F00102009255
:102EC000009ADA6942F08052DA61DB6903F08053DC
:102ED00001930720019BFDF749FE03B05DF804FB59
:102EE000001002401FB503681A4A93420CD11A4BD6
:102EF0009A6942F400629A619B6903F4006301934A
:102F0000019B05B05DF804FBB3F1804F13D103F5CD
:102F100004331C20DA6942F00102DA61DB69002225
:102F200003F0010302931146029BFDF731FE1C20C2
:102F3000FDF762FEE5E7094A9342E2D1064BDA6902
:102F400042F00202DA61DB6903F002030393039BA0
:102F5000D7E700BF002C01400010024000040040F1
:102F600010B5044688B01422002103A800F028F907
:102F70002368174A934214D1164B17485A6942F4F2
:102F800000225A615B6903F400230193019B0B2328
:102F9000039302230493079303A9FDF773FE08B07C
:102FA00010BD0E4A9342FAD10A4B5A6942F40032DC
:102FB0005A615B6903F400330293029B502303932D
:102FC00002230493079303A94FF09040E5E700BF65
:102FD000002C01400010024000080048000400409E
:102FE00010B5044688B01422002103A800F0E8F8C8
:102FF0002268164B9A4226D103F5E63303A9DA6913
:1030000042F40032DA61DA6902F400320192019A84
:103010005A6942F400325A615B6903F40033029347
:10302000029B0C230393022304934FF09040072349
:103030000793FDF727FE002226201146FDF7A8FD85
:103040002620FDF7D9FD08B010BD00BF00440040A8
:103050007047FEE7FEE7FEE7FEE770477047704700
:10306000FDF75EBD0148FEF7BFBB00BF2801002091
:103070000148FFF76FBB00BF6801002008B50A4B8D
:103080001968024609B90949196018686946024475
:103090008A4206D900F06AF80C2303604FF0FF3033
:1030A00008BD1A6008BD00BF94000020E4010020A4
:1030B0001549D1F8883043F47003C1F88830134BB8
:1030C0001A6842F001021A605868114A02405A60B8
:1030D0001A6822F0847222F480321A601A6822F48C
:1030E00080221A605A6822F4FE025A60DA6A22F0DC
:1030F0000F02DA62186B074A02401A6300229A60D4
:103100004FF000638B60704700ED00E0001002405C
:103110000CC07FF8CCFC00FFDFF834D0002103E0C6
:103120000C4B5B58435004310B480C4B42189A42ED
:10313000F6D30B4A02E0002342F8043B094B9A42C3
:10314000F9D3FFF7B5FF00F017F8FFF73BFDFEE7F7
:10315000000001206C3C00080000002070000020EE
:1031600070000020E4010020FEE70000014B186819
:10317000704700BF0C00002070B50D4E0D4CA41B15
:10318000A4100025A54209D10B4E0C4C00F0DCFC2C
:10319000A41BA4100025A54205D170BD56F825300A
:1031A00098470135EEE756F8253098470135F2E7A4
:1031B000643C0008643C0008643C0008683C00086B
:1031C00002440346934200D1704703F8011BF9E71C
:1031D00038B5124B1C68A36B0546D3B9182000F014
:1031E000ABF843F20E33A06303804AF6CD3343803D
:1031F00041F2342383804EF26D63C3804DF6EC635D
:103200000381052343810B23838101220023C0E92D
:103210000423A36B00221D615A6138BD0C000020FD
:10322000194B10B51C68A36BD3B9182000F084F8B3
:1032300043F20E33A06303804AF6CD33438041F25C
:10324000342383804EF26D63C3804DF6EC630381BB
:10325000052343810B23838101220023C0E904233A
:10326000A16B0A480A694B69094C504304FB0300EF
:10327000A2FB04230132034443F10003C1E9042308
:1032800023F0004010BD00BF0C0000202DF4515869
:103290002D7F954C0EB400B59CB04FF402711DAB60
:1032A000ADF81410029006906FF000410A480491A6
:1032B00007914FF6FF7153F8042BADF81610006814
:1032C000019302A900F048F9029B00221A701CB079
:1032D0005DF804EB03B070470C000020034611F8C2
:1032E000012B03F8012B002AF9D1704713B5084BC5
:1032F000044600221868694600F00CF80028BCBF9C
:103300004FF0FF330093009804B1206002B010BD6D
:103310000C00002038B5074C00230546084611462E
:10332000236000F009FC431C02D1236803B12B6029
:1033300038BD00BFE0010020024B0146186800F0D4
:1033400051B800BF0C00002038B50546002945D013
:1033500051F8043C0C1F002BB8BFE41800F0BBFB75
:103360001F4A1368104633B9636014602846BDE8ED
:10337000384000F0B1BBA3420CD9216862189342D7
:1033800004BF1A685B68636004BF5218226004605F
:10339000ECE713465A680AB1A242FAD919685818DC
:1033A000A0420BD120680144581882421960DDD137
:1033B000106852685A6001441960D7E702D90C239B
:1033C0002B60D3E7206821188A4204BF1168526835
:1033D000626004BF091821605C60C7E738BD00BFA8
:1033E0009800002070B5CD1C25F0030508350C2D84
:1033F00038BF0C25002D064601DBA94203D90C235A
:103400003360002070BD00F066FB234A146821463B
:1034100091B9224C23681BB9304600F027FB20608D
:103420002946304600F022FB431C26D10C23336092
:10343000304600F051FBE4E70B685B1B1AD40B2B02
:103440000FD90B60CD50CC18304600F045FB04F18D
:103450000B00231D20F00700C31A1BD05A42E25074
:1034600070BD8C420DBF63684B686360136018BF0A
:103470000C46E9E70C464968CAE7C41C24F003047B
:10348000A04205D0211A304600F0F0FA0130CDD02C
:103490002560D9E770BD00BF980000209C00002087
:1034A0002DE9F0478E689E4282460C46914698462A
:1034B00035D88A8912F4906F31D0256809696F1A5E
:1034C0006569022305EB450595FBF3F508F101035A
:1034D0003B449D4238BF1D46530531D52946FFF771
:1034E00081FF064650B90C23CAF80030A38943F087
:1034F0004003A3814FF0FF30BDE8F0873A462169D1
:1035000000F0C4FAA38923F4906343F08003A381FD
:10351000266165613E44ED1B2660A5604646464532
:1035200028BF464632464946206800F0BAFAA368EA
:103530009B1BA36023681E4426600020BDE8F08723
:103540002A4600F0CAFA06460028E1D12169504611
:10355000FFF7FAFEC7E700002DE9F04F9DB0804667
:1035600003938B891C060D4616460FD50B696BB964
:103570004021FFF737FF2860286128B90C23C8F8DD
:1035800000304FF0FF30C5E040236B61002309930A
:1035900020238DF8293030238DF82A304FF0010B8D
:1035A00037463C4614F8013B002B3CD1B7EB060AEA
:1035B0000BD05346324629464046FFF771FF013093
:1035C00000F0A380099B534409933B78002B00F043
:1035D0009C8000234FF0FF320493079305920693DB
:1035E0008DF853301A93052221785048FCF7F8FDE6
:1035F000671C049BD8B9D90644BF20228DF85320FC
:103600001A0744BF2B228DF8532022782A2A16D07D
:10361000079A00210A20274601343B78303B092BCA
:1036200051D9C9B111E0252BC0D02746B9E73F4A8F
:10363000801A0BFA00F0184304903C46D3E7039A33
:10364000111D12680391002A01DB079204E0524227
:1036500043F00203079204933B782E2B0ED17B7824
:103660002A2B07F1010132D1039B1A1D1B6803921B
:10367000002BB8BF4FF0FF33023705932C4C39783D
:1036800003222046FCF7ACFD38B14023001B03FAAF
:1036900000F0049B034304930137397825488DF8E3
:1036A000281006227E1CFCF79BFD002835D0224BFB
:1036B000FBB9039B073323F0070308330393099BEC
:1036C0004B4409936CE700FB02320121A3E700237E
:1036D000059318460A240F4601313A78303A092AF0
:1036E00003D9002BCAD00590C8E704FB00200123B2
:1036F000F1E703AB00932A46104B04A94046AFF311
:103700000080B0F1FF3F8146D9D1AB895B063FF520
:1037100038AF09981DB0BDE8F08F03AB00932A467F
:10372000064B04A9404600F081F8EAE72E3C000869
:10373000343C0008383C000800000000A1340008B8
:103740002DE9F04791461F468A680B69DDF8208015
:103750009342B8BF1346C9F8003091F8432006469B
:103760000C4612B10133C9F800302368990642BFF4
:10377000D9F800300233C9F80030256815F0060585
:1037800007D104F1190AE368D9F800209B1A9D4279
:1037900029DB94F843302268003318BF01239206D6
:1037A0002ED404F1430239463046C047013021D0BF
:1037B0002368E568D9F8002003F00603042B08BF4E
:1037C000AD1AA36822690CBF25EAE575002593426E
:1037D000C4BF9B1AED184FF000091A344D451BD198
:1037E0000020BDE8F0870123524639463046C047E5
:1037F000013003D14FF0FF30BDE8F0870135C2E75B
:10380000E1185A1C302081F84300224494F84510F6
:1038100082F843100233C4E701232246394630467A
:10382000C0470130E6D009F10109D7E72DE9F0439F
:1038300017460A7E85B06E2A984606460C460C9BB3
:1038400001F1430E00F0BC801AD8632A2ED00AD8AA
:10385000002A00F0C880582A00F08A8004F142054E
:1038600084F842202AE0642A01D0692AF6D121682E
:103870001A6811F0800F23D0111D1960136827E01A
:10388000732A00F0B48008D86F2A2AD0702AE5D1B4
:103890000A6842F020020A6003E0752A21D0782AE3
:1038A000DCD1782284F845206E4964E01A6801F181
:1038B0004205111D1960136884F842300123A3E00A
:1038C00011F0400F02F104011960D7D0B2F90030B5
:1038D000002B03DA2D225B4284F8432062490A223E
:1038E00017E02068196810F0800F03D0081D1860D9
:1038F0000B6806E010F0400F01F104001860F7D0EB
:103900000B8859496F2A14BF0A220822002084F824
:1039100043006568A560002DC0F29C80206820F0FF
:1039200004002060002B3FD1002D40F095807546AB
:10393000082A0BD12368DA0708D5236962689A42FE
:10394000DEBF302305F8013C05F1FF35AEEB050382
:103950002361CDF800803B4603AA21463046FFF79D
:10396000EFFE013055D14FF0FF3005B0BDE8F083D8
:1039700081F845203C492268186812F0800F00F158
:1039800004051D6001D0036802E05506FBD50388DD
:10399000D00744BF42F0200222601BB9226822F007
:1039A000200222601022B1E77546B3FBF2F002FB61
:1039B0001033CB5C05F8013D03460028F5D1B7E78D
:1039C00008681A68496910F0800F04D0101D18604B
:1039D0001368196007E010F0400F02F1040018604E
:1039E0001368F6D01980002323617546B1E71A6881
:1039F000111D19601568626800212846FCF7F0FB6C
:103A000008B1401B606063682361002384F8433081
:103A10009FE723692A4639463046C0470130A2D085
:103A200023689B0707D5002504F11909E368039A69
:103A30009B1A9D4205DBE068039B9842B8BF18467D
:103A400093E701234A4639463046C04701308AD0C1
:103A50000135EBE7002BA7D10B7884F8423004F155
:103A6000420565E7503C00083F3C000838B5064C6D
:103A70000023054608462360FFF700FB431C02D1E4
:103A8000236803B12B6038BDE001002010B5431E50
:103A90000A44914200D110BD11F8014B03F8014FC7
:103AA000F7E7884210B501EB020303D8421E9942A2
:103AB0000CD110BD9842F9D28118D21AD34200D14C
:103AC00010BD13F8014D01F8014DF7E711F8014B56
:103AD00002F8014FEBE770477047F8B50746144608
:103AE0000E4621B91146BDE8F840FFF77BBC22B96C
:103AF000FFF72AFC25462846F8BD00F014F884425A
:103B00000FD921463846FFF76DFC05460028F2D054
:103B100031462246FFF7BAFF31463846FFF714FC1C
:103B2000E9E73546E7E751F8040C0028A0F1040066
:103B3000BCBF0B58C0187047024B58221A604FF098
:103B4000FF307047E0010020F8B500BFF8BC08BCAA
:103B50009E467047F8B500BFF8BC08BC9E4670474B
:103B600002030405060708090A0B0C0D0E0F1010BE
:103B70000102030405060708090A0B0C0D0E0F10BD
:103B80000104080257696C676F746E6F73633A20A3
:103B9000252E326625632E0D0A54656D706572619F
:103BA000747572613A20252E326625732E0D0A0D2A
:103BB0000A002A43005A61206D616C652077797094
:103BC000656C6E69656E69652050574D2E0D0A0053
:103BD0005275636820772070696F6E6965207A205E
:103BE000443D25642070727A657A202564732E0D19
:103BF0000A0052756368207720706F7A696F6D696B
:103C000065207A20443D25642070727A657A2025EB
:103C100064732E0D0A000000000000000000010285
:103C20000304060708090000000001020304232D15
:103C3000302B2000686C4C006566674546470030B5
:103C40003132333435363738394142434445460002
:103C50003031323334353637383961626364656602
:043C60000000000060
:043C6400C50100088E
:043C6800A1010008AE
:103C6C00010000001000000000127A00100000207B
:103C7C000000000000000000000000000000000038
:103C8C000000000000000000000000000000000028
:103C9C000000000000000000000000000000000018
:103CAC000000000000000000000000000000000008
:103CBC0000000000000000000000000000000000F8
:103CCC0000000000000000000000000000000000E8
:0400000508003119A5
:00000001FF
